{
	"contracts/CRI.sol": {
		"Token": {
			"abi": [
				{
					"inputs": [],
					"stateMutability": "nonpayable",
					"type": "constructor"
				},
				{
					"anonymous": false,
					"inputs": [
						{
							"indexed": true,
							"internalType": "address",
							"name": "_from",
							"type": "address"
						},
						{
							"indexed": true,
							"internalType": "address",
							"name": "_to",
							"type": "address"
						},
						{
							"indexed": false,
							"internalType": "uint256",
							"name": "_value",
							"type": "uint256"
						}
					],
					"name": "Approve",
					"type": "event"
				},
				{
					"anonymous": false,
					"inputs": [
						{
							"indexed": true,
							"internalType": "address",
							"name": "_minter",
							"type": "address"
						}
					],
					"name": "MinterAdded",
					"type": "event"
				},
				{
					"anonymous": false,
					"inputs": [
						{
							"indexed": true,
							"internalType": "address",
							"name": "_minter",
							"type": "address"
						}
					],
					"name": "MinterRemoved",
					"type": "event"
				},
				{
					"anonymous": false,
					"inputs": [
						{
							"indexed": true,
							"internalType": "address",
							"name": "_from",
							"type": "address"
						},
						{
							"indexed": true,
							"internalType": "address",
							"name": "_to",
							"type": "address"
						},
						{
							"indexed": false,
							"internalType": "uint256",
							"name": "_value",
							"type": "uint256"
						}
					],
					"name": "Transfer",
					"type": "event"
				},
				{
					"inputs": [
						{
							"internalType": "address",
							"name": "_minter",
							"type": "address"
						}
					],
					"name": "addMinter",
					"outputs": [],
					"stateMutability": "nonpayable",
					"type": "function"
				},
				{
					"inputs": [
						{
							"internalType": "address",
							"name": "_owner",
							"type": "address"
						},
						{
							"internalType": "address",
							"name": "_spender",
							"type": "address"
						}
					],
					"name": "allowance",
					"outputs": [
						{
							"internalType": "uint256",
							"name": "",
							"type": "uint256"
						}
					],
					"stateMutability": "view",
					"type": "function"
				},
				{
					"inputs": [
						{
							"internalType": "address",
							"name": "_spender",
							"type": "address"
						},
						{
							"internalType": "uint256",
							"name": "_value",
							"type": "uint256"
						}
					],
					"name": "approve",
					"outputs": [
						{
							"internalType": "bool",
							"name": "",
							"type": "bool"
						}
					],
					"stateMutability": "nonpayable",
					"type": "function"
				},
				{
					"inputs": [
						{
							"internalType": "address",
							"name": "_user",
							"type": "address"
						}
					],
					"name": "balanceOf",
					"outputs": [
						{
							"internalType": "uint256",
							"name": "",
							"type": "uint256"
						}
					],
					"stateMutability": "view",
					"type": "function"
				},
				{
					"inputs": [],
					"name": "getCurrentSupply",
					"outputs": [
						{
							"internalType": "uint256",
							"name": "",
							"type": "uint256"
						}
					],
					"stateMutability": "view",
					"type": "function"
				},
				{
					"inputs": [],
					"name": "getTotalSupply",
					"outputs": [
						{
							"internalType": "uint256",
							"name": "",
							"type": "uint256"
						}
					],
					"stateMutability": "view",
					"type": "function"
				},
				{
					"inputs": [
						{
							"internalType": "uint256",
							"name": "_amount",
							"type": "uint256"
						}
					],
					"name": "mint",
					"outputs": [],
					"stateMutability": "nonpayable",
					"type": "function"
				},
				{
					"inputs": [
						{
							"internalType": "address",
							"name": "_to",
							"type": "address"
						},
						{
							"internalType": "uint256",
							"name": "_amount",
							"type": "uint256"
						}
					],
					"name": "mintTo",
					"outputs": [],
					"stateMutability": "nonpayable",
					"type": "function"
				},
				{
					"inputs": [
						{
							"internalType": "address",
							"name": "_minter",
							"type": "address"
						}
					],
					"name": "removeMinter",
					"outputs": [],
					"stateMutability": "nonpayable",
					"type": "function"
				},
				{
					"inputs": [
						{
							"internalType": "address",
							"name": "_receiver",
							"type": "address"
						},
						{
							"internalType": "uint256",
							"name": "_value",
							"type": "uint256"
						}
					],
					"name": "transfer",
					"outputs": [
						{
							"internalType": "bool",
							"name": "",
							"type": "bool"
						}
					],
					"stateMutability": "nonpayable",
					"type": "function"
				},
				{
					"inputs": [
						{
							"internalType": "address",
							"name": "_sender",
							"type": "address"
						},
						{
							"internalType": "address",
							"name": "_receiver",
							"type": "address"
						},
						{
							"internalType": "uint256",
							"name": "_value",
							"type": "uint256"
						}
					],
					"name": "transferFrom",
					"outputs": [],
					"stateMutability": "nonpayable",
					"type": "function"
				}
			],
			"devdoc": {
				"kind": "dev",
				"methods": {},
				"version": 1
			},
			"evm": {
				"assembly": "    /* \"contracts/CRI.sol\":67:3799  contract Token{... */\n  mstore(0x40, 0x80)\n    /* \"contracts/CRI.sol\":539:718  constructor() {... */\n  callvalue\n  dup1\n  iszero\n  tag_1\n  jumpi\n  0x00\n  dup1\n  revert\ntag_1:\n  pop\n    /* \"contracts/CRI.sol\":578:588  1000000000 */\n  0x3b9aca00\n    /* \"contracts/CRI.sol\":564:575  totalSupply */\n  0x02\n    /* \"contracts/CRI.sol\":564:588  totalSupply = 1000000000 */\n  dup2\n  swap1\n  sstore\n  pop\n    /* \"contracts/CRI.sol\":615:616  0 */\n  0x00\n    /* \"contracts/CRI.sol\":599:612  currentSupply */\n  0x01\n    /* \"contracts/CRI.sol\":599:616  currentSupply = 0 */\n  dup2\n  swap1\n  sstore\n  pop\n    /* \"contracts/CRI.sol\":635:645  msg.sender */\n  caller\n    /* \"contracts/CRI.sol\":627:632  owner */\n  0x00\n  dup1\n    /* \"contracts/CRI.sol\":627:645  owner = msg.sender */\n  0x0100\n  exp\n  dup2\n  sload\n  dup2\n  0xffffffffffffffffffffffffffffffffffffffff\n  mul\n  not\n  and\n  swap1\n  dup4\n  0xffffffffffffffffffffffffffffffffffffffff\n  and\n  mul\n  or\n  swap1\n  sstore\n  pop\n    /* \"contracts/CRI.sol\":674:678  true */\n  0x01\n    /* \"contracts/CRI.sol\":656:664  isMinter */\n  0x05\n    /* \"contracts/CRI.sol\":656:671  isMinter[owner] */\n  0x00\n    /* \"contracts/CRI.sol\":665:670  owner */\n  dup1\n  0x00\n  swap1\n  sload\n  swap1\n  0x0100\n  exp\n  swap1\n  div\n  0xffffffffffffffffffffffffffffffffffffffff\n  and\n    /* \"contracts/CRI.sol\":656:671  isMinter[owner] */\n  0xffffffffffffffffffffffffffffffffffffffff\n  and\n  0xffffffffffffffffffffffffffffffffffffffff\n  and\n  dup2\n  mstore\n  0x20\n  add\n  swap1\n  dup2\n  mstore\n  0x20\n  add\n  0x00\n  keccak256\n  0x00\n    /* \"contracts/CRI.sol\":656:678  isMinter[owner] = true */\n  0x0100\n  exp\n  dup2\n  sload\n  dup2\n  0xff\n  mul\n  not\n  and\n  swap1\n  dup4\n  iszero\n  iszero\n  mul\n  or\n  swap1\n  sstore\n  pop\n    /* \"contracts/CRI.sol\":67:3799  contract Token{... */\n  dataSize(sub_0)\n  dup1\n  dataOffset(sub_0)\n  0x00\n  codecopy\n  0x00\n  return\nstop\n\nsub_0: assembly {\n        /* \"contracts/CRI.sol\":67:3799  contract Token{... */\n      mstore(0x40, 0x80)\n      callvalue\n      dup1\n      iszero\n      tag_1\n      jumpi\n      0x00\n      dup1\n      revert\n    tag_1:\n      pop\n      jumpi(tag_2, lt(calldatasize, 0x04))\n      shr(0xe0, calldataload(0x00))\n      dup1\n      0x70a08231\n      gt\n      tag_14\n      jumpi\n      dup1\n      0x70a08231\n      eq\n      tag_8\n      jumpi\n      dup1\n      0x983b2d56\n      eq\n      tag_9\n      jumpi\n      dup1\n      0xa0712d68\n      eq\n      tag_10\n      jumpi\n      dup1\n      0xa9059cbb\n      eq\n      tag_11\n      jumpi\n      dup1\n      0xc4e41b22\n      eq\n      tag_12\n      jumpi\n      dup1\n      0xdd62ed3e\n      eq\n      tag_13\n      jumpi\n      jump(tag_2)\n    tag_14:\n      dup1\n      0x095ea7b3\n      eq\n      tag_3\n      jumpi\n      dup1\n      0x23b872dd\n      eq\n      tag_4\n      jumpi\n      dup1\n      0x3092afd5\n      eq\n      tag_5\n      jumpi\n      dup1\n      0x449a52f8\n      eq\n      tag_6\n      jumpi\n      dup1\n      0x4f3e1efc\n      eq\n      tag_7\n      jumpi\n    tag_2:\n      0x00\n      dup1\n      revert\n        /* \"contracts/CRI.sol\":2158:2360  function approve(address _spender, uint _value) public returns (bool) {... */\n    tag_3:\n      tag_15\n      0x04\n      dup1\n      calldatasize\n      sub\n      dup2\n      add\n      swap1\n      tag_16\n      swap2\n      swap1\n      tag_17\n      jump\t// in\n    tag_16:\n      tag_18\n      jump\t// in\n    tag_15:\n      mload(0x40)\n      tag_19\n      swap2\n      swap1\n      tag_20\n      jump\t// in\n    tag_19:\n      mload(0x40)\n      dup1\n      swap2\n      sub\n      swap1\n      return\n        /* \"contracts/CRI.sol\":2981:3486  function transferFrom(address _sender, address _receiver, uint _value) public {... */\n    tag_4:\n      tag_21\n      0x04\n      dup1\n      calldatasize\n      sub\n      dup2\n      add\n      swap1\n      tag_22\n      swap2\n      swap1\n      tag_23\n      jump\t// in\n    tag_22:\n      tag_24\n      jump\t// in\n    tag_21:\n      stop\n        /* \"contracts/CRI.sol\":1716:1854  function removeMinter(address _minter) public onlyOwner {... */\n    tag_5:\n      tag_25\n      0x04\n      dup1\n      calldatasize\n      sub\n      dup2\n      add\n      swap1\n      tag_26\n      swap2\n      swap1\n      tag_27\n      jump\t// in\n    tag_26:\n      tag_28\n      jump\t// in\n    tag_25:\n      stop\n        /* \"contracts/CRI.sol\":1862:2066  function mintTo(address _to, uint _amount) public {... */\n    tag_6:\n      tag_29\n      0x04\n      dup1\n      calldatasize\n      sub\n      dup2\n      add\n      swap1\n      tag_30\n      swap2\n      swap1\n      tag_17\n      jump\t// in\n    tag_30:\n      tag_31\n      jump\t// in\n    tag_29:\n      stop\n        /* \"contracts/CRI.sol\":3699:3796  function getCurrentSupply() public view returns (uint256) {... */\n    tag_7:\n      tag_32\n      tag_33\n      jump\t// in\n    tag_32:\n      mload(0x40)\n      tag_34\n      swap2\n      swap1\n      tag_35\n      jump\t// in\n    tag_34:\n      mload(0x40)\n      dup1\n      swap2\n      sub\n      swap1\n      return\n        /* \"contracts/CRI.sol\":1398:1500  function balanceOf(address _user) public view returns (uint) {... */\n    tag_8:\n      tag_36\n      0x04\n      dup1\n      calldatasize\n      sub\n      dup2\n      add\n      swap1\n      tag_37\n      swap2\n      swap1\n      tag_27\n      jump\t// in\n    tag_37:\n      tag_38\n      jump\t// in\n    tag_36:\n      mload(0x40)\n      tag_39\n      swap2\n      swap1\n      tag_35\n      jump\t// in\n    tag_39:\n      mload(0x40)\n      dup1\n      swap2\n      sub\n      swap1\n      return\n        /* \"contracts/CRI.sol\":1543:1675  function addMinter(address _minter) public onlyOwner {... */\n    tag_9:\n      tag_40\n      0x04\n      dup1\n      calldatasize\n      sub\n      dup2\n      add\n      swap1\n      tag_41\n      swap2\n      swap1\n      tag_27\n      jump\t// in\n    tag_41:\n      tag_42\n      jump\t// in\n    tag_40:\n      stop\n        /* \"contracts/CRI.sol\":1139:1325  function mint(uint _amount) public {... */\n    tag_10:\n      tag_43\n      0x04\n      dup1\n      calldatasize\n      sub\n      dup2\n      add\n      swap1\n      tag_44\n      swap2\n      swap1\n      tag_45\n      jump\t// in\n    tag_44:\n      tag_46\n      jump\t// in\n    tag_43:\n      stop\n        /* \"contracts/CRI.sol\":2595:2926  function transfer(address _receiver, uint _value) public returns (bool) {... */\n    tag_11:\n      tag_47\n      0x04\n      dup1\n      calldatasize\n      sub\n      dup2\n      add\n      swap1\n      tag_48\n      swap2\n      swap1\n      tag_17\n      jump\t// in\n    tag_48:\n      tag_49\n      jump\t// in\n    tag_47:\n      mload(0x40)\n      tag_50\n      swap2\n      swap1\n      tag_20\n      jump\t// in\n    tag_50:\n      mload(0x40)\n      dup1\n      swap2\n      sub\n      swap1\n      return\n        /* \"contracts/CRI.sol\":3545:3638  function getTotalSupply() public view returns (uint256) {... */\n    tag_12:\n      tag_51\n      tag_52\n      jump\t// in\n    tag_51:\n      mload(0x40)\n      tag_53\n      swap2\n      swap1\n      tag_35\n      jump\t// in\n    tag_53:\n      mload(0x40)\n      dup1\n      swap2\n      sub\n      swap1\n      return\n        /* \"contracts/CRI.sol\":2453:2585  function allowance(address _owner, address _spender) public view returns (uint) {... */\n    tag_13:\n      tag_54\n      0x04\n      dup1\n      calldatasize\n      sub\n      dup2\n      add\n      swap1\n      tag_55\n      swap2\n      swap1\n      tag_56\n      jump\t// in\n    tag_55:\n      tag_57\n      jump\t// in\n    tag_54:\n      mload(0x40)\n      tag_58\n      swap2\n      swap1\n      tag_35\n      jump\t// in\n    tag_58:\n      mload(0x40)\n      dup1\n      swap2\n      sub\n      swap1\n      return\n        /* \"contracts/CRI.sol\":2158:2360  function approve(address _spender, uint _value) public returns (bool) {... */\n    tag_18:\n        /* \"contracts/CRI.sol\":2222:2226  bool */\n      0x00\n        /* \"contracts/CRI.sol\":2271:2277  _value */\n      dup2\n        /* \"contracts/CRI.sol\":2239:2246  allowed */\n      0x04\n        /* \"contracts/CRI.sol\":2239:2258  allowed[msg.sender] */\n      0x00\n        /* \"contracts/CRI.sol\":2247:2257  msg.sender */\n      caller\n        /* \"contracts/CRI.sol\":2239:2258  allowed[msg.sender] */\n      0xffffffffffffffffffffffffffffffffffffffff\n      and\n      0xffffffffffffffffffffffffffffffffffffffff\n      and\n      dup2\n      mstore\n      0x20\n      add\n      swap1\n      dup2\n      mstore\n      0x20\n      add\n      0x00\n      keccak256\n        /* \"contracts/CRI.sol\":2239:2268  allowed[msg.sender][_spender] */\n      0x00\n        /* \"contracts/CRI.sol\":2259:2267  _spender */\n      dup6\n        /* \"contracts/CRI.sol\":2239:2268  allowed[msg.sender][_spender] */\n      0xffffffffffffffffffffffffffffffffffffffff\n      and\n      0xffffffffffffffffffffffffffffffffffffffff\n      and\n      dup2\n      mstore\n      0x20\n      add\n      swap1\n      dup2\n      mstore\n      0x20\n      add\n      0x00\n      keccak256\n        /* \"contracts/CRI.sol\":2239:2277  allowed[msg.sender][_spender] = _value */\n      dup2\n      swap1\n      sstore\n      pop\n        /* \"contracts/CRI.sol\":2313:2321  _spender */\n      dup3\n        /* \"contracts/CRI.sol\":2293:2330  Approve(msg.sender, _spender, _value) */\n      0xffffffffffffffffffffffffffffffffffffffff\n      and\n        /* \"contracts/CRI.sol\":2301:2311  msg.sender */\n      caller\n        /* \"contracts/CRI.sol\":2293:2330  Approve(msg.sender, _spender, _value) */\n      0xffffffffffffffffffffffffffffffffffffffff\n      and\n      0x6e11fb1b7f119e3f2fa29896ef5fdf8b8a2d0d4df6fe90ba8668e7d8b2ffa25e\n        /* \"contracts/CRI.sol\":2323:2329  _value */\n      dup5\n        /* \"contracts/CRI.sol\":2293:2330  Approve(msg.sender, _spender, _value) */\n      mload(0x40)\n      tag_60\n      swap2\n      swap1\n      tag_35\n      jump\t// in\n    tag_60:\n      mload(0x40)\n      dup1\n      swap2\n      sub\n      swap1\n      log3\n        /* \"contracts/CRI.sol\":2348:2352  true */\n      0x01\n        /* \"contracts/CRI.sol\":2341:2352  return true */\n      swap1\n      pop\n        /* \"contracts/CRI.sol\":2158:2360  function approve(address _spender, uint _value) public returns (bool) {... */\n      swap3\n      swap2\n      pop\n      pop\n      jump\t// out\n        /* \"contracts/CRI.sol\":2981:3486  function transferFrom(address _sender, address _receiver, uint _value) public {... */\n    tag_24:\n        /* \"contracts/CRI.sol\":3070:3090  uint allowed_balance */\n      0x00\n        /* \"contracts/CRI.sol\":3093:3100  allowed */\n      0x04\n        /* \"contracts/CRI.sol\":3093:3109  allowed[_sender] */\n      0x00\n        /* \"contracts/CRI.sol\":3101:3108  _sender */\n      dup6\n        /* \"contracts/CRI.sol\":3093:3109  allowed[_sender] */\n      0xffffffffffffffffffffffffffffffffffffffff\n      and\n      0xffffffffffffffffffffffffffffffffffffffff\n      and\n      dup2\n      mstore\n      0x20\n      add\n      swap1\n      dup2\n      mstore\n      0x20\n      add\n      0x00\n      keccak256\n        /* \"contracts/CRI.sol\":3093:3121  allowed[_sender][msg.sender] */\n      0x00\n        /* \"contracts/CRI.sol\":3110:3120  msg.sender */\n      caller\n        /* \"contracts/CRI.sol\":3093:3121  allowed[_sender][msg.sender] */\n      0xffffffffffffffffffffffffffffffffffffffff\n      and\n      0xffffffffffffffffffffffffffffffffffffffff\n      and\n      dup2\n      mstore\n      0x20\n      add\n      swap1\n      dup2\n      mstore\n      0x20\n      add\n      0x00\n      keccak256\n      sload\n        /* \"contracts/CRI.sol\":3070:3121  uint allowed_balance = allowed[_sender][msg.sender] */\n      swap1\n      pop\n        /* \"contracts/CRI.sol\":3162:3168  _value */\n      dup2\n        /* \"contracts/CRI.sol\":3141:3149  balances */\n      0x03\n        /* \"contracts/CRI.sol\":3141:3158  balances[_sender] */\n      0x00\n        /* \"contracts/CRI.sol\":3150:3157  _sender */\n      dup7\n        /* \"contracts/CRI.sol\":3141:3158  balances[_sender] */\n      0xffffffffffffffffffffffffffffffffffffffff\n      and\n      0xffffffffffffffffffffffffffffffffffffffff\n      and\n      dup2\n      mstore\n      0x20\n      add\n      swap1\n      dup2\n      mstore\n      0x20\n      add\n      0x00\n      keccak256\n      sload\n        /* \"contracts/CRI.sol\":3141:3168  balances[_sender] >= _value */\n      lt\n      iszero\n        /* \"contracts/CRI.sol\":3140:3200  (balances[_sender] >= _value) && (allowed_balance >= _value) */\n      dup1\n      iszero\n      tag_62\n      jumpi\n      pop\n        /* \"contracts/CRI.sol\":3193:3199  _value */\n      dup2\n        /* \"contracts/CRI.sol\":3174:3189  allowed_balance */\n      dup2\n        /* \"contracts/CRI.sol\":3174:3199  allowed_balance >= _value */\n      lt\n      iszero\n        /* \"contracts/CRI.sol\":3140:3200  (balances[_sender] >= _value) && (allowed_balance >= _value) */\n    tag_62:\n        /* \"contracts/CRI.sol\":3132:3201  require((balances[_sender] >= _value) && (allowed_balance >= _value)) */\n      tag_63\n      jumpi\n      0x00\n      dup1\n      revert\n    tag_63:\n        /* \"contracts/CRI.sol\":3333:3339  _value */\n      dup2\n        /* \"contracts/CRI.sol\":3310:3318  balances */\n      0x03\n        /* \"contracts/CRI.sol\":3310:3329  balances[_receiver] */\n      0x00\n        /* \"contracts/CRI.sol\":3319:3328  _receiver */\n      dup6\n        /* \"contracts/CRI.sol\":3310:3329  balances[_receiver] */\n      0xffffffffffffffffffffffffffffffffffffffff\n      and\n      0xffffffffffffffffffffffffffffffffffffffff\n      and\n      dup2\n      mstore\n      0x20\n      add\n      swap1\n      dup2\n      mstore\n      0x20\n      add\n      0x00\n      keccak256\n      0x00\n        /* \"contracts/CRI.sol\":3310:3339  balances[_receiver] += _value */\n      dup3\n      dup3\n      sload\n      tag_64\n      swap2\n      swap1\n      tag_65\n      jump\t// in\n    tag_64:\n      swap3\n      pop\n      pop\n      dup2\n      swap1\n      sstore\n      pop\n        /* \"contracts/CRI.sol\":3371:3377  _value */\n      dup2\n        /* \"contracts/CRI.sol\":3350:3358  balances */\n      0x03\n        /* \"contracts/CRI.sol\":3350:3367  balances[_sender] */\n      0x00\n        /* \"contracts/CRI.sol\":3359:3366  _sender */\n      dup7\n        /* \"contracts/CRI.sol\":3350:3367  balances[_sender] */\n      0xffffffffffffffffffffffffffffffffffffffff\n      and\n      0xffffffffffffffffffffffffffffffffffffffff\n      and\n      dup2\n      mstore\n      0x20\n      add\n      swap1\n      dup2\n      mstore\n      0x20\n      add\n      0x00\n      keccak256\n      0x00\n        /* \"contracts/CRI.sol\":3350:3377  balances[_sender] -= _value */\n      dup3\n      dup3\n      sload\n      tag_66\n      swap2\n      swap1\n      tag_67\n      jump\t// in\n    tag_66:\n      swap3\n      pop\n      pop\n      dup2\n      swap1\n      sstore\n      pop\n        /* \"contracts/CRI.sol\":3420:3426  _value */\n      dup2\n        /* \"contracts/CRI.sol\":3388:3395  allowed */\n      0x04\n        /* \"contracts/CRI.sol\":3388:3404  allowed[_sender] */\n      0x00\n        /* \"contracts/CRI.sol\":3396:3403  _sender */\n      dup7\n        /* \"contracts/CRI.sol\":3388:3404  allowed[_sender] */\n      0xffffffffffffffffffffffffffffffffffffffff\n      and\n      0xffffffffffffffffffffffffffffffffffffffff\n      and\n      dup2\n      mstore\n      0x20\n      add\n      swap1\n      dup2\n      mstore\n      0x20\n      add\n      0x00\n      keccak256\n        /* \"contracts/CRI.sol\":3388:3416  allowed[_sender][msg.sender] */\n      0x00\n        /* \"contracts/CRI.sol\":3405:3415  msg.sender */\n      caller\n        /* \"contracts/CRI.sol\":3388:3416  allowed[_sender][msg.sender] */\n      0xffffffffffffffffffffffffffffffffffffffff\n      and\n      0xffffffffffffffffffffffffffffffffffffffff\n      and\n      dup2\n      mstore\n      0x20\n      add\n      swap1\n      dup2\n      mstore\n      0x20\n      add\n      0x00\n      keccak256\n      0x00\n        /* \"contracts/CRI.sol\":3388:3426  allowed[_sender][msg.sender] -= _value */\n      dup3\n      dup3\n      sload\n      tag_68\n      swap2\n      swap1\n      tag_67\n      jump\t// in\n    tag_68:\n      swap3\n      pop\n      pop\n      dup2\n      swap1\n      sstore\n      pop\n        /* \"contracts/CRI.sol\":3460:3469  _receiver */\n      dup3\n        /* \"contracts/CRI.sol\":3442:3478  Transfer(_sender, _receiver, _value) */\n      0xffffffffffffffffffffffffffffffffffffffff\n      and\n        /* \"contracts/CRI.sol\":3451:3458  _sender */\n      dup5\n        /* \"contracts/CRI.sol\":3442:3478  Transfer(_sender, _receiver, _value) */\n      0xffffffffffffffffffffffffffffffffffffffff\n      and\n      0xddf252ad1be2c89b69c2b068fc378daa952ba7f163c4a11628f55a4df523b3ef\n        /* \"contracts/CRI.sol\":3471:3477  _value */\n      dup5\n        /* \"contracts/CRI.sol\":3442:3478  Transfer(_sender, _receiver, _value) */\n      mload(0x40)\n      tag_69\n      swap2\n      swap1\n      tag_35\n      jump\t// in\n    tag_69:\n      mload(0x40)\n      dup1\n      swap2\n      sub\n      swap1\n      log3\n        /* \"contracts/CRI.sol\":3059:3486  {... */\n      pop\n        /* \"contracts/CRI.sol\":2981:3486  function transferFrom(address _sender, address _receiver, uint _value) public {... */\n      pop\n      pop\n      pop\n      jump\t// out\n        /* \"contracts/CRI.sol\":1716:1854  function removeMinter(address _minter) public onlyOwner {... */\n    tag_28:\n        /* \"contracts/CRI.sol\":1037:1042  owner */\n      0x00\n      dup1\n      sload\n      swap1\n      0x0100\n      exp\n      swap1\n      div\n      0xffffffffffffffffffffffffffffffffffffffff\n      and\n        /* \"contracts/CRI.sol\":1023:1042  msg.sender == owner */\n      0xffffffffffffffffffffffffffffffffffffffff\n      and\n        /* \"contracts/CRI.sol\":1023:1033  msg.sender */\n      caller\n        /* \"contracts/CRI.sol\":1023:1042  msg.sender == owner */\n      0xffffffffffffffffffffffffffffffffffffffff\n      and\n      eq\n        /* \"contracts/CRI.sol\":1015:1081  require(msg.sender == owner, \"Only owner can perform this action\") */\n      tag_71\n      jumpi\n      mload(0x40)\n      0x08c379a000000000000000000000000000000000000000000000000000000000\n      dup2\n      mstore\n      0x04\n      add\n      tag_72\n      swap1\n      tag_73\n      jump\t// in\n    tag_72:\n      mload(0x40)\n      dup1\n      swap2\n      sub\n      swap1\n      revert\n    tag_71:\n        /* \"contracts/CRI.sol\":1803:1808  false */\n      0x00\n        /* \"contracts/CRI.sol\":1783:1791  isMinter */\n      0x05\n        /* \"contracts/CRI.sol\":1783:1800  isMinter[_minter] */\n      0x00\n        /* \"contracts/CRI.sol\":1792:1799  _minter */\n      dup4\n        /* \"contracts/CRI.sol\":1783:1800  isMinter[_minter] */\n      0xffffffffffffffffffffffffffffffffffffffff\n      and\n      0xffffffffffffffffffffffffffffffffffffffff\n      and\n      dup2\n      mstore\n      0x20\n      add\n      swap1\n      dup2\n      mstore\n      0x20\n      add\n      0x00\n      keccak256\n      0x00\n        /* \"contracts/CRI.sol\":1783:1808  isMinter[_minter] = false */\n      0x0100\n      exp\n      dup2\n      sload\n      dup2\n      0xff\n      mul\n      not\n      and\n      swap1\n      dup4\n      iszero\n      iszero\n      mul\n      or\n      swap1\n      sstore\n      pop\n        /* \"contracts/CRI.sol\":1838:1845  _minter */\n      dup1\n        /* \"contracts/CRI.sol\":1824:1846  MinterRemoved(_minter) */\n      0xffffffffffffffffffffffffffffffffffffffff\n      and\n      0xe94479a9f7e1952cc78f2d6baab678adc1b772d936c6583def489e524cb66692\n      mload(0x40)\n      mload(0x40)\n      dup1\n      swap2\n      sub\n      swap1\n      log2\n        /* \"contracts/CRI.sol\":1716:1854  function removeMinter(address _minter) public onlyOwner {... */\n      pop\n      jump\t// out\n        /* \"contracts/CRI.sol\":1862:2066  function mintTo(address _to, uint _amount) public {... */\n    tag_31:\n        /* \"contracts/CRI.sol\":1931:1939  isMinter */\n      0x05\n        /* \"contracts/CRI.sol\":1931:1951  isMinter[msg.sender] */\n      0x00\n        /* \"contracts/CRI.sol\":1940:1950  msg.sender */\n      caller\n        /* \"contracts/CRI.sol\":1931:1951  isMinter[msg.sender] */\n      0xffffffffffffffffffffffffffffffffffffffff\n      and\n      0xffffffffffffffffffffffffffffffffffffffff\n      and\n      dup2\n      mstore\n      0x20\n      add\n      swap1\n      dup2\n      mstore\n      0x20\n      add\n      0x00\n      keccak256\n      0x00\n      swap1\n      sload\n      swap1\n      0x0100\n      exp\n      swap1\n      div\n      0xff\n      and\n        /* \"contracts/CRI.sol\":1923:1988  require(isMinter[msg.sender], \"Caller is not authorized to mint\") */\n      tag_76\n      jumpi\n      mload(0x40)\n      0x08c379a000000000000000000000000000000000000000000000000000000000\n      dup2\n      mstore\n      0x04\n      add\n      tag_77\n      swap1\n      tag_78\n      jump\t// in\n    tag_77:\n      mload(0x40)\n      dup1\n      swap2\n      sub\n      swap1\n      revert\n    tag_76:\n        /* \"contracts/CRI.sol\":2016:2023  _amount */\n      dup1\n        /* \"contracts/CRI.sol\":1999:2007  balances */\n      0x03\n        /* \"contracts/CRI.sol\":1999:2012  balances[_to] */\n      0x00\n        /* \"contracts/CRI.sol\":2008:2011  _to */\n      dup5\n        /* \"contracts/CRI.sol\":1999:2012  balances[_to] */\n      0xffffffffffffffffffffffffffffffffffffffff\n      and\n      0xffffffffffffffffffffffffffffffffffffffff\n      and\n      dup2\n      mstore\n      0x20\n      add\n      swap1\n      dup2\n      mstore\n      0x20\n      add\n      0x00\n      keccak256\n      0x00\n        /* \"contracts/CRI.sol\":1999:2023  balances[_to] += _amount */\n      dup3\n      dup3\n      sload\n      tag_79\n      swap2\n      swap1\n      tag_65\n      jump\t// in\n    tag_79:\n      swap3\n      pop\n      pop\n      dup2\n      swap1\n      sstore\n      pop\n        /* \"contracts/CRI.sol\":2051:2058  _amount */\n      dup1\n        /* \"contracts/CRI.sol\":2034:2047  currentSupply */\n      0x01\n      0x00\n        /* \"contracts/CRI.sol\":2034:2058  currentSupply += _amount */\n      dup3\n      dup3\n      sload\n      tag_80\n      swap2\n      swap1\n      tag_65\n      jump\t// in\n    tag_80:\n      swap3\n      pop\n      pop\n      dup2\n      swap1\n      sstore\n      pop\n        /* \"contracts/CRI.sol\":1862:2066  function mintTo(address _to, uint _amount) public {... */\n      pop\n      pop\n      jump\t// out\n        /* \"contracts/CRI.sol\":3699:3796  function getCurrentSupply() public view returns (uint256) {... */\n    tag_33:\n        /* \"contracts/CRI.sol\":3748:3755  uint256 */\n      0x00\n        /* \"contracts/CRI.sol\":3775:3788  currentSupply */\n      sload(0x01)\n        /* \"contracts/CRI.sol\":3768:3788  return currentSupply */\n      swap1\n      pop\n        /* \"contracts/CRI.sol\":3699:3796  function getCurrentSupply() public view returns (uint256) {... */\n      swap1\n      jump\t// out\n        /* \"contracts/CRI.sol\":1398:1500  function balanceOf(address _user) public view returns (uint) {... */\n    tag_38:\n        /* \"contracts/CRI.sol\":1453:1457  uint */\n      0x00\n        /* \"contracts/CRI.sol\":1477:1485  balances */\n      0x03\n        /* \"contracts/CRI.sol\":1477:1492  balances[_user] */\n      0x00\n        /* \"contracts/CRI.sol\":1486:1491  _user */\n      dup4\n        /* \"contracts/CRI.sol\":1477:1492  balances[_user] */\n      0xffffffffffffffffffffffffffffffffffffffff\n      and\n      0xffffffffffffffffffffffffffffffffffffffff\n      and\n      dup2\n      mstore\n      0x20\n      add\n      swap1\n      dup2\n      mstore\n      0x20\n      add\n      0x00\n      keccak256\n      sload\n        /* \"contracts/CRI.sol\":1470:1492  return balances[_user] */\n      swap1\n      pop\n        /* \"contracts/CRI.sol\":1398:1500  function balanceOf(address _user) public view returns (uint) {... */\n      swap2\n      swap1\n      pop\n      jump\t// out\n        /* \"contracts/CRI.sol\":1543:1675  function addMinter(address _minter) public onlyOwner {... */\n    tag_42:\n        /* \"contracts/CRI.sol\":1037:1042  owner */\n      0x00\n      dup1\n      sload\n      swap1\n      0x0100\n      exp\n      swap1\n      div\n      0xffffffffffffffffffffffffffffffffffffffff\n      and\n        /* \"contracts/CRI.sol\":1023:1042  msg.sender == owner */\n      0xffffffffffffffffffffffffffffffffffffffff\n      and\n        /* \"contracts/CRI.sol\":1023:1033  msg.sender */\n      caller\n        /* \"contracts/CRI.sol\":1023:1042  msg.sender == owner */\n      0xffffffffffffffffffffffffffffffffffffffff\n      and\n      eq\n        /* \"contracts/CRI.sol\":1015:1081  require(msg.sender == owner, \"Only owner can perform this action\") */\n      tag_84\n      jumpi\n      mload(0x40)\n      0x08c379a000000000000000000000000000000000000000000000000000000000\n      dup2\n      mstore\n      0x04\n      add\n      tag_85\n      swap1\n      tag_73\n      jump\t// in\n    tag_85:\n      mload(0x40)\n      dup1\n      swap2\n      sub\n      swap1\n      revert\n    tag_84:\n        /* \"contracts/CRI.sol\":1627:1631  true */\n      0x01\n        /* \"contracts/CRI.sol\":1607:1615  isMinter */\n      0x05\n        /* \"contracts/CRI.sol\":1607:1624  isMinter[_minter] */\n      0x00\n        /* \"contracts/CRI.sol\":1616:1623  _minter */\n      dup4\n        /* \"contracts/CRI.sol\":1607:1624  isMinter[_minter] */\n      0xffffffffffffffffffffffffffffffffffffffff\n      and\n      0xffffffffffffffffffffffffffffffffffffffff\n      and\n      dup2\n      mstore\n      0x20\n      add\n      swap1\n      dup2\n      mstore\n      0x20\n      add\n      0x00\n      keccak256\n      0x00\n        /* \"contracts/CRI.sol\":1607:1631  isMinter[_minter] = true */\n      0x0100\n      exp\n      dup2\n      sload\n      dup2\n      0xff\n      mul\n      not\n      and\n      swap1\n      dup4\n      iszero\n      iszero\n      mul\n      or\n      swap1\n      sstore\n      pop\n        /* \"contracts/CRI.sol\":1659:1666  _minter */\n      dup1\n        /* \"contracts/CRI.sol\":1647:1667  MinterAdded(_minter) */\n      0xffffffffffffffffffffffffffffffffffffffff\n      and\n      0x6ae172837ea30b801fbfcdd4108aa1d5bf8ff775444fd70256b44e6bf3dfc3f6\n      mload(0x40)\n      mload(0x40)\n      dup1\n      swap2\n      sub\n      swap1\n      log2\n        /* \"contracts/CRI.sol\":1543:1675  function addMinter(address _minter) public onlyOwner {... */\n      pop\n      jump\t// out\n        /* \"contracts/CRI.sol\":1139:1325  function mint(uint _amount) public {... */\n    tag_46:\n        /* \"contracts/CRI.sol\":1193:1201  isMinter */\n      0x05\n        /* \"contracts/CRI.sol\":1193:1213  isMinter[msg.sender] */\n      0x00\n        /* \"contracts/CRI.sol\":1202:1212  msg.sender */\n      caller\n        /* \"contracts/CRI.sol\":1193:1213  isMinter[msg.sender] */\n      0xffffffffffffffffffffffffffffffffffffffff\n      and\n      0xffffffffffffffffffffffffffffffffffffffff\n      and\n      dup2\n      mstore\n      0x20\n      add\n      swap1\n      dup2\n      mstore\n      0x20\n      add\n      0x00\n      keccak256\n      0x00\n      swap1\n      sload\n      swap1\n      0x0100\n      exp\n      swap1\n      div\n      0xff\n      and\n        /* \"contracts/CRI.sol\":1185:1240  require(isMinter[msg.sender], \"Caller is not a minter\") */\n      tag_88\n      jumpi\n      mload(0x40)\n      0x08c379a000000000000000000000000000000000000000000000000000000000\n      dup2\n      mstore\n      0x04\n      add\n      tag_89\n      swap1\n      tag_90\n      jump\t// in\n    tag_89:\n      mload(0x40)\n      dup1\n      swap2\n      sub\n      swap1\n      revert\n    tag_88:\n        /* \"contracts/CRI.sol\":1275:1282  _amount */\n      dup1\n        /* \"contracts/CRI.sol\":1251:1259  balances */\n      0x03\n        /* \"contracts/CRI.sol\":1251:1271  balances[msg.sender] */\n      0x00\n        /* \"contracts/CRI.sol\":1260:1270  msg.sender */\n      caller\n        /* \"contracts/CRI.sol\":1251:1271  balances[msg.sender] */\n      0xffffffffffffffffffffffffffffffffffffffff\n      and\n      0xffffffffffffffffffffffffffffffffffffffff\n      and\n      dup2\n      mstore\n      0x20\n      add\n      swap1\n      dup2\n      mstore\n      0x20\n      add\n      0x00\n      keccak256\n      0x00\n        /* \"contracts/CRI.sol\":1251:1282  balances[msg.sender] += _amount */\n      dup3\n      dup3\n      sload\n      tag_91\n      swap2\n      swap1\n      tag_65\n      jump\t// in\n    tag_91:\n      swap3\n      pop\n      pop\n      dup2\n      swap1\n      sstore\n      pop\n        /* \"contracts/CRI.sol\":1310:1317  _amount */\n      dup1\n        /* \"contracts/CRI.sol\":1293:1306  currentSupply */\n      0x01\n      0x00\n        /* \"contracts/CRI.sol\":1293:1317  currentSupply += _amount */\n      dup3\n      dup3\n      sload\n      tag_92\n      swap2\n      swap1\n      tag_65\n      jump\t// in\n    tag_92:\n      swap3\n      pop\n      pop\n      dup2\n      swap1\n      sstore\n      pop\n        /* \"contracts/CRI.sol\":1139:1325  function mint(uint _amount) public {... */\n      pop\n      jump\t// out\n        /* \"contracts/CRI.sol\":2595:2926  function transfer(address _receiver, uint _value) public returns (bool) {... */\n    tag_49:\n        /* \"contracts/CRI.sol\":2661:2665  bool */\n      0x00\n        /* \"contracts/CRI.sol\":2696:2704  balances */\n      0x03\n        /* \"contracts/CRI.sol\":2696:2716  balances[msg.sender] */\n      0x00\n        /* \"contracts/CRI.sol\":2705:2715  msg.sender */\n      caller\n        /* \"contracts/CRI.sol\":2696:2716  balances[msg.sender] */\n      0xffffffffffffffffffffffffffffffffffffffff\n      and\n      0xffffffffffffffffffffffffffffffffffffffff\n      and\n      dup2\n      mstore\n      0x20\n      add\n      swap1\n      dup2\n      mstore\n      0x20\n      add\n      0x00\n      keccak256\n      sload\n        /* \"contracts/CRI.sol\":2686:2692  _value */\n      dup3\n        /* \"contracts/CRI.sol\":2686:2716  _value <= balances[msg.sender] */\n      gt\n      iszero\n        /* \"contracts/CRI.sol\":2678:2717  require(_value <= balances[msg.sender]) */\n      tag_94\n      jumpi\n      0x00\n      dup1\n      revert\n    tag_94:\n        /* \"contracts/CRI.sol\":2774:2780  _value */\n      dup2\n        /* \"contracts/CRI.sol\":2751:2759  balances */\n      0x03\n        /* \"contracts/CRI.sol\":2751:2771  balances[msg.sender] */\n      0x00\n        /* \"contracts/CRI.sol\":2760:2770  msg.sender */\n      caller\n        /* \"contracts/CRI.sol\":2751:2771  balances[msg.sender] */\n      0xffffffffffffffffffffffffffffffffffffffff\n      and\n      0xffffffffffffffffffffffffffffffffffffffff\n      and\n      dup2\n      mstore\n      0x20\n      add\n      swap1\n      dup2\n      mstore\n      0x20\n      add\n      0x00\n      keccak256\n      sload\n        /* \"contracts/CRI.sol\":2751:2780  balances[msg.sender] - _value */\n      tag_95\n      swap2\n      swap1\n      tag_67\n      jump\t// in\n    tag_95:\n        /* \"contracts/CRI.sol\":2728:2736  balances */\n      0x03\n        /* \"contracts/CRI.sol\":2728:2748  balances[msg.sender] */\n      0x00\n        /* \"contracts/CRI.sol\":2737:2747  msg.sender */\n      caller\n        /* \"contracts/CRI.sol\":2728:2748  balances[msg.sender] */\n      0xffffffffffffffffffffffffffffffffffffffff\n      and\n      0xffffffffffffffffffffffffffffffffffffffff\n      and\n      dup2\n      mstore\n      0x20\n      add\n      swap1\n      dup2\n      mstore\n      0x20\n      add\n      0x00\n      keccak256\n        /* \"contracts/CRI.sol\":2728:2780  balances[msg.sender] = balances[msg.sender] - _value */\n      dup2\n      swap1\n      sstore\n      pop\n        /* \"contracts/CRI.sol\":2835:2841  _value */\n      dup2\n        /* \"contracts/CRI.sol\":2813:2821  balances */\n      0x03\n        /* \"contracts/CRI.sol\":2813:2832  balances[_receiver] */\n      0x00\n        /* \"contracts/CRI.sol\":2822:2831  _receiver */\n      dup6\n        /* \"contracts/CRI.sol\":2813:2832  balances[_receiver] */\n      0xffffffffffffffffffffffffffffffffffffffff\n      and\n      0xffffffffffffffffffffffffffffffffffffffff\n      and\n      dup2\n      mstore\n      0x20\n      add\n      swap1\n      dup2\n      mstore\n      0x20\n      add\n      0x00\n      keccak256\n      sload\n        /* \"contracts/CRI.sol\":2813:2841  balances[_receiver] + _value */\n      tag_96\n      swap2\n      swap1\n      tag_65\n      jump\t// in\n    tag_96:\n        /* \"contracts/CRI.sol\":2791:2799  balances */\n      0x03\n        /* \"contracts/CRI.sol\":2791:2810  balances[_receiver] */\n      0x00\n        /* \"contracts/CRI.sol\":2800:2809  _receiver */\n      dup6\n        /* \"contracts/CRI.sol\":2791:2810  balances[_receiver] */\n      0xffffffffffffffffffffffffffffffffffffffff\n      and\n      0xffffffffffffffffffffffffffffffffffffffff\n      and\n      dup2\n      mstore\n      0x20\n      add\n      swap1\n      dup2\n      mstore\n      0x20\n      add\n      0x00\n      keccak256\n        /* \"contracts/CRI.sol\":2791:2841  balances[_receiver] = balances[_receiver] + _value */\n      dup2\n      swap1\n      sstore\n      pop\n        /* \"contracts/CRI.sol\":2878:2887  _receiver */\n      dup3\n        /* \"contracts/CRI.sol\":2857:2896  Transfer(msg.sender, _receiver, _value) */\n      0xffffffffffffffffffffffffffffffffffffffff\n      and\n        /* \"contracts/CRI.sol\":2866:2876  msg.sender */\n      caller\n        /* \"contracts/CRI.sol\":2857:2896  Transfer(msg.sender, _receiver, _value) */\n      0xffffffffffffffffffffffffffffffffffffffff\n      and\n      0xddf252ad1be2c89b69c2b068fc378daa952ba7f163c4a11628f55a4df523b3ef\n        /* \"contracts/CRI.sol\":2889:2895  _value */\n      dup5\n        /* \"contracts/CRI.sol\":2857:2896  Transfer(msg.sender, _receiver, _value) */\n      mload(0x40)\n      tag_97\n      swap2\n      swap1\n      tag_35\n      jump\t// in\n    tag_97:\n      mload(0x40)\n      dup1\n      swap2\n      sub\n      swap1\n      log3\n        /* \"contracts/CRI.sol\":2914:2918  true */\n      0x01\n        /* \"contracts/CRI.sol\":2907:2918  return true */\n      swap1\n      pop\n        /* \"contracts/CRI.sol\":2595:2926  function transfer(address _receiver, uint _value) public returns (bool) {... */\n      swap3\n      swap2\n      pop\n      pop\n      jump\t// out\n        /* \"contracts/CRI.sol\":3545:3638  function getTotalSupply() public view returns (uint256) {... */\n    tag_52:\n        /* \"contracts/CRI.sol\":3592:3599  uint256 */\n      0x00\n        /* \"contracts/CRI.sol\":3619:3630  totalSupply */\n      sload(0x02)\n        /* \"contracts/CRI.sol\":3612:3630  return totalSupply */\n      swap1\n      pop\n        /* \"contracts/CRI.sol\":3545:3638  function getTotalSupply() public view returns (uint256) {... */\n      swap1\n      jump\t// out\n        /* \"contracts/CRI.sol\":2453:2585  function allowance(address _owner, address _spender) public view returns (uint) {... */\n    tag_57:\n        /* \"contracts/CRI.sol\":2527:2531  uint */\n      0x00\n        /* \"contracts/CRI.sol\":2551:2558  allowed */\n      0x04\n        /* \"contracts/CRI.sol\":2551:2566  allowed[_owner] */\n      0x00\n        /* \"contracts/CRI.sol\":2559:2565  _owner */\n      dup5\n        /* \"contracts/CRI.sol\":2551:2566  allowed[_owner] */\n      0xffffffffffffffffffffffffffffffffffffffff\n      and\n      0xffffffffffffffffffffffffffffffffffffffff\n      and\n      dup2\n      mstore\n      0x20\n      add\n      swap1\n      dup2\n      mstore\n      0x20\n      add\n      0x00\n      keccak256\n        /* \"contracts/CRI.sol\":2551:2576  allowed[_owner][_spender] */\n      0x00\n        /* \"contracts/CRI.sol\":2567:2575  _spender */\n      dup4\n        /* \"contracts/CRI.sol\":2551:2576  allowed[_owner][_spender] */\n      0xffffffffffffffffffffffffffffffffffffffff\n      and\n      0xffffffffffffffffffffffffffffffffffffffff\n      and\n      dup2\n      mstore\n      0x20\n      add\n      swap1\n      dup2\n      mstore\n      0x20\n      add\n      0x00\n      keccak256\n      sload\n        /* \"contracts/CRI.sol\":2544:2576  return allowed[_owner][_spender] */\n      swap1\n      pop\n        /* \"contracts/CRI.sol\":2453:2585  function allowance(address _owner, address _spender) public view returns (uint) {... */\n      swap3\n      swap2\n      pop\n      pop\n      jump\t// out\n        /* \"#utility.yul\":88:205   */\n    tag_101:\n        /* \"#utility.yul\":197:198   */\n      0x00\n        /* \"#utility.yul\":194:195   */\n      dup1\n        /* \"#utility.yul\":187:199   */\n      revert\n        /* \"#utility.yul\":334:460   */\n    tag_103:\n        /* \"#utility.yul\":371:378   */\n      0x00\n        /* \"#utility.yul\":411:453   */\n      0xffffffffffffffffffffffffffffffffffffffff\n        /* \"#utility.yul\":404:409   */\n      dup3\n        /* \"#utility.yul\":400:454   */\n      and\n        /* \"#utility.yul\":389:454   */\n      swap1\n      pop\n        /* \"#utility.yul\":334:460   */\n      swap2\n      swap1\n      pop\n      jump\t// out\n        /* \"#utility.yul\":466:562   */\n    tag_104:\n        /* \"#utility.yul\":503:510   */\n      0x00\n        /* \"#utility.yul\":532:556   */\n      tag_127\n        /* \"#utility.yul\":550:555   */\n      dup3\n        /* \"#utility.yul\":532:556   */\n      tag_103\n      jump\t// in\n    tag_127:\n        /* \"#utility.yul\":521:556   */\n      swap1\n      pop\n        /* \"#utility.yul\":466:562   */\n      swap2\n      swap1\n      pop\n      jump\t// out\n        /* \"#utility.yul\":568:690   */\n    tag_105:\n        /* \"#utility.yul\":641:665   */\n      tag_129\n        /* \"#utility.yul\":659:664   */\n      dup2\n        /* \"#utility.yul\":641:665   */\n      tag_104\n      jump\t// in\n    tag_129:\n        /* \"#utility.yul\":634:639   */\n      dup2\n        /* \"#utility.yul\":631:666   */\n      eq\n        /* \"#utility.yul\":621:684   */\n      tag_130\n      jumpi\n        /* \"#utility.yul\":680:681   */\n      0x00\n        /* \"#utility.yul\":677:678   */\n      dup1\n        /* \"#utility.yul\":670:682   */\n      revert\n        /* \"#utility.yul\":621:684   */\n    tag_130:\n        /* \"#utility.yul\":568:690   */\n      pop\n      jump\t// out\n        /* \"#utility.yul\":696:835   */\n    tag_106:\n        /* \"#utility.yul\":742:747   */\n      0x00\n        /* \"#utility.yul\":780:786   */\n      dup2\n        /* \"#utility.yul\":767:787   */\n      calldataload\n        /* \"#utility.yul\":758:787   */\n      swap1\n      pop\n        /* \"#utility.yul\":796:829   */\n      tag_132\n        /* \"#utility.yul\":823:828   */\n      dup2\n        /* \"#utility.yul\":796:829   */\n      tag_105\n      jump\t// in\n    tag_132:\n        /* \"#utility.yul\":696:835   */\n      swap3\n      swap2\n      pop\n      pop\n      jump\t// out\n        /* \"#utility.yul\":841:918   */\n    tag_107:\n        /* \"#utility.yul\":878:885   */\n      0x00\n        /* \"#utility.yul\":907:912   */\n      dup2\n        /* \"#utility.yul\":896:912   */\n      swap1\n      pop\n        /* \"#utility.yul\":841:918   */\n      swap2\n      swap1\n      pop\n      jump\t// out\n        /* \"#utility.yul\":924:1046   */\n    tag_108:\n        /* \"#utility.yul\":997:1021   */\n      tag_135\n        /* \"#utility.yul\":1015:1020   */\n      dup2\n        /* \"#utility.yul\":997:1021   */\n      tag_107\n      jump\t// in\n    tag_135:\n        /* \"#utility.yul\":990:995   */\n      dup2\n        /* \"#utility.yul\":987:1022   */\n      eq\n        /* \"#utility.yul\":977:1040   */\n      tag_136\n      jumpi\n        /* \"#utility.yul\":1036:1037   */\n      0x00\n        /* \"#utility.yul\":1033:1034   */\n      dup1\n        /* \"#utility.yul\":1026:1038   */\n      revert\n        /* \"#utility.yul\":977:1040   */\n    tag_136:\n        /* \"#utility.yul\":924:1046   */\n      pop\n      jump\t// out\n        /* \"#utility.yul\":1052:1191   */\n    tag_109:\n        /* \"#utility.yul\":1098:1103   */\n      0x00\n        /* \"#utility.yul\":1136:1142   */\n      dup2\n        /* \"#utility.yul\":1123:1143   */\n      calldataload\n        /* \"#utility.yul\":1114:1143   */\n      swap1\n      pop\n        /* \"#utility.yul\":1152:1185   */\n      tag_138\n        /* \"#utility.yul\":1179:1184   */\n      dup2\n        /* \"#utility.yul\":1152:1185   */\n      tag_108\n      jump\t// in\n    tag_138:\n        /* \"#utility.yul\":1052:1191   */\n      swap3\n      swap2\n      pop\n      pop\n      jump\t// out\n        /* \"#utility.yul\":1197:1671   */\n    tag_17:\n        /* \"#utility.yul\":1265:1271   */\n      0x00\n        /* \"#utility.yul\":1273:1279   */\n      dup1\n        /* \"#utility.yul\":1322:1324   */\n      0x40\n        /* \"#utility.yul\":1310:1319   */\n      dup4\n        /* \"#utility.yul\":1301:1308   */\n      dup6\n        /* \"#utility.yul\":1297:1320   */\n      sub\n        /* \"#utility.yul\":1293:1325   */\n      slt\n        /* \"#utility.yul\":1290:1409   */\n      iszero\n      tag_140\n      jumpi\n        /* \"#utility.yul\":1328:1407   */\n      tag_141\n      tag_101\n      jump\t// in\n    tag_141:\n        /* \"#utility.yul\":1290:1409   */\n    tag_140:\n        /* \"#utility.yul\":1448:1449   */\n      0x00\n        /* \"#utility.yul\":1473:1526   */\n      tag_142\n        /* \"#utility.yul\":1518:1525   */\n      dup6\n        /* \"#utility.yul\":1509:1515   */\n      dup3\n        /* \"#utility.yul\":1498:1507   */\n      dup7\n        /* \"#utility.yul\":1494:1516   */\n      add\n        /* \"#utility.yul\":1473:1526   */\n      tag_106\n      jump\t// in\n    tag_142:\n        /* \"#utility.yul\":1463:1526   */\n      swap3\n      pop\n        /* \"#utility.yul\":1419:1536   */\n      pop\n        /* \"#utility.yul\":1575:1577   */\n      0x20\n        /* \"#utility.yul\":1601:1654   */\n      tag_143\n        /* \"#utility.yul\":1646:1653   */\n      dup6\n        /* \"#utility.yul\":1637:1643   */\n      dup3\n        /* \"#utility.yul\":1626:1635   */\n      dup7\n        /* \"#utility.yul\":1622:1644   */\n      add\n        /* \"#utility.yul\":1601:1654   */\n      tag_109\n      jump\t// in\n    tag_143:\n        /* \"#utility.yul\":1591:1654   */\n      swap2\n      pop\n        /* \"#utility.yul\":1546:1664   */\n      pop\n        /* \"#utility.yul\":1197:1671   */\n      swap3\n      pop\n      swap3\n      swap1\n      pop\n      jump\t// out\n        /* \"#utility.yul\":1677:1767   */\n    tag_110:\n        /* \"#utility.yul\":1711:1718   */\n      0x00\n        /* \"#utility.yul\":1754:1759   */\n      dup2\n        /* \"#utility.yul\":1747:1760   */\n      iszero\n        /* \"#utility.yul\":1740:1761   */\n      iszero\n        /* \"#utility.yul\":1729:1761   */\n      swap1\n      pop\n        /* \"#utility.yul\":1677:1767   */\n      swap2\n      swap1\n      pop\n      jump\t// out\n        /* \"#utility.yul\":1773:1882   */\n    tag_111:\n        /* \"#utility.yul\":1854:1875   */\n      tag_146\n        /* \"#utility.yul\":1869:1874   */\n      dup2\n        /* \"#utility.yul\":1854:1875   */\n      tag_110\n      jump\t// in\n    tag_146:\n        /* \"#utility.yul\":1849:1852   */\n      dup3\n        /* \"#utility.yul\":1842:1876   */\n      mstore\n        /* \"#utility.yul\":1773:1882   */\n      pop\n      pop\n      jump\t// out\n        /* \"#utility.yul\":1888:2098   */\n    tag_20:\n        /* \"#utility.yul\":1975:1979   */\n      0x00\n        /* \"#utility.yul\":2013:2015   */\n      0x20\n        /* \"#utility.yul\":2002:2011   */\n      dup3\n        /* \"#utility.yul\":1998:2016   */\n      add\n        /* \"#utility.yul\":1990:2016   */\n      swap1\n      pop\n        /* \"#utility.yul\":2026:2091   */\n      tag_148\n        /* \"#utility.yul\":2088:2089   */\n      0x00\n        /* \"#utility.yul\":2077:2086   */\n      dup4\n        /* \"#utility.yul\":2073:2090   */\n      add\n        /* \"#utility.yul\":2064:2070   */\n      dup5\n        /* \"#utility.yul\":2026:2091   */\n      tag_111\n      jump\t// in\n    tag_148:\n        /* \"#utility.yul\":1888:2098   */\n      swap3\n      swap2\n      pop\n      pop\n      jump\t// out\n        /* \"#utility.yul\":2104:2723   */\n    tag_23:\n        /* \"#utility.yul\":2181:2187   */\n      0x00\n        /* \"#utility.yul\":2189:2195   */\n      dup1\n        /* \"#utility.yul\":2197:2203   */\n      0x00\n        /* \"#utility.yul\":2246:2248   */\n      0x60\n        /* \"#utility.yul\":2234:2243   */\n      dup5\n        /* \"#utility.yul\":2225:2232   */\n      dup7\n        /* \"#utility.yul\":2221:2244   */\n      sub\n        /* \"#utility.yul\":2217:2249   */\n      slt\n        /* \"#utility.yul\":2214:2333   */\n      iszero\n      tag_150\n      jumpi\n        /* \"#utility.yul\":2252:2331   */\n      tag_151\n      tag_101\n      jump\t// in\n    tag_151:\n        /* \"#utility.yul\":2214:2333   */\n    tag_150:\n        /* \"#utility.yul\":2372:2373   */\n      0x00\n        /* \"#utility.yul\":2397:2450   */\n      tag_152\n        /* \"#utility.yul\":2442:2449   */\n      dup7\n        /* \"#utility.yul\":2433:2439   */\n      dup3\n        /* \"#utility.yul\":2422:2431   */\n      dup8\n        /* \"#utility.yul\":2418:2440   */\n      add\n        /* \"#utility.yul\":2397:2450   */\n      tag_106\n      jump\t// in\n    tag_152:\n        /* \"#utility.yul\":2387:2450   */\n      swap4\n      pop\n        /* \"#utility.yul\":2343:2460   */\n      pop\n        /* \"#utility.yul\":2499:2501   */\n      0x20\n        /* \"#utility.yul\":2525:2578   */\n      tag_153\n        /* \"#utility.yul\":2570:2577   */\n      dup7\n        /* \"#utility.yul\":2561:2567   */\n      dup3\n        /* \"#utility.yul\":2550:2559   */\n      dup8\n        /* \"#utility.yul\":2546:2568   */\n      add\n        /* \"#utility.yul\":2525:2578   */\n      tag_106\n      jump\t// in\n    tag_153:\n        /* \"#utility.yul\":2515:2578   */\n      swap3\n      pop\n        /* \"#utility.yul\":2470:2588   */\n      pop\n        /* \"#utility.yul\":2627:2629   */\n      0x40\n        /* \"#utility.yul\":2653:2706   */\n      tag_154\n        /* \"#utility.yul\":2698:2705   */\n      dup7\n        /* \"#utility.yul\":2689:2695   */\n      dup3\n        /* \"#utility.yul\":2678:2687   */\n      dup8\n        /* \"#utility.yul\":2674:2696   */\n      add\n        /* \"#utility.yul\":2653:2706   */\n      tag_109\n      jump\t// in\n    tag_154:\n        /* \"#utility.yul\":2643:2706   */\n      swap2\n      pop\n        /* \"#utility.yul\":2598:2716   */\n      pop\n        /* \"#utility.yul\":2104:2723   */\n      swap3\n      pop\n      swap3\n      pop\n      swap3\n      jump\t// out\n        /* \"#utility.yul\":2729:3058   */\n    tag_27:\n        /* \"#utility.yul\":2788:2794   */\n      0x00\n        /* \"#utility.yul\":2837:2839   */\n      0x20\n        /* \"#utility.yul\":2825:2834   */\n      dup3\n        /* \"#utility.yul\":2816:2823   */\n      dup5\n        /* \"#utility.yul\":2812:2835   */\n      sub\n        /* \"#utility.yul\":2808:2840   */\n      slt\n        /* \"#utility.yul\":2805:2924   */\n      iszero\n      tag_156\n      jumpi\n        /* \"#utility.yul\":2843:2922   */\n      tag_157\n      tag_101\n      jump\t// in\n    tag_157:\n        /* \"#utility.yul\":2805:2924   */\n    tag_156:\n        /* \"#utility.yul\":2963:2964   */\n      0x00\n        /* \"#utility.yul\":2988:3041   */\n      tag_158\n        /* \"#utility.yul\":3033:3040   */\n      dup5\n        /* \"#utility.yul\":3024:3030   */\n      dup3\n        /* \"#utility.yul\":3013:3022   */\n      dup6\n        /* \"#utility.yul\":3009:3031   */\n      add\n        /* \"#utility.yul\":2988:3041   */\n      tag_106\n      jump\t// in\n    tag_158:\n        /* \"#utility.yul\":2978:3041   */\n      swap2\n      pop\n        /* \"#utility.yul\":2934:3051   */\n      pop\n        /* \"#utility.yul\":2729:3058   */\n      swap3\n      swap2\n      pop\n      pop\n      jump\t// out\n        /* \"#utility.yul\":3064:3182   */\n    tag_112:\n        /* \"#utility.yul\":3151:3175   */\n      tag_160\n        /* \"#utility.yul\":3169:3174   */\n      dup2\n        /* \"#utility.yul\":3151:3175   */\n      tag_107\n      jump\t// in\n    tag_160:\n        /* \"#utility.yul\":3146:3149   */\n      dup3\n        /* \"#utility.yul\":3139:3176   */\n      mstore\n        /* \"#utility.yul\":3064:3182   */\n      pop\n      pop\n      jump\t// out\n        /* \"#utility.yul\":3188:3410   */\n    tag_35:\n        /* \"#utility.yul\":3281:3285   */\n      0x00\n        /* \"#utility.yul\":3319:3321   */\n      0x20\n        /* \"#utility.yul\":3308:3317   */\n      dup3\n        /* \"#utility.yul\":3304:3322   */\n      add\n        /* \"#utility.yul\":3296:3322   */\n      swap1\n      pop\n        /* \"#utility.yul\":3332:3403   */\n      tag_162\n        /* \"#utility.yul\":3400:3401   */\n      0x00\n        /* \"#utility.yul\":3389:3398   */\n      dup4\n        /* \"#utility.yul\":3385:3402   */\n      add\n        /* \"#utility.yul\":3376:3382   */\n      dup5\n        /* \"#utility.yul\":3332:3403   */\n      tag_112\n      jump\t// in\n    tag_162:\n        /* \"#utility.yul\":3188:3410   */\n      swap3\n      swap2\n      pop\n      pop\n      jump\t// out\n        /* \"#utility.yul\":3416:3745   */\n    tag_45:\n        /* \"#utility.yul\":3475:3481   */\n      0x00\n        /* \"#utility.yul\":3524:3526   */\n      0x20\n        /* \"#utility.yul\":3512:3521   */\n      dup3\n        /* \"#utility.yul\":3503:3510   */\n      dup5\n        /* \"#utility.yul\":3499:3522   */\n      sub\n        /* \"#utility.yul\":3495:3527   */\n      slt\n        /* \"#utility.yul\":3492:3611   */\n      iszero\n      tag_164\n      jumpi\n        /* \"#utility.yul\":3530:3609   */\n      tag_165\n      tag_101\n      jump\t// in\n    tag_165:\n        /* \"#utility.yul\":3492:3611   */\n    tag_164:\n        /* \"#utility.yul\":3650:3651   */\n      0x00\n        /* \"#utility.yul\":3675:3728   */\n      tag_166\n        /* \"#utility.yul\":3720:3727   */\n      dup5\n        /* \"#utility.yul\":3711:3717   */\n      dup3\n        /* \"#utility.yul\":3700:3709   */\n      dup6\n        /* \"#utility.yul\":3696:3718   */\n      add\n        /* \"#utility.yul\":3675:3728   */\n      tag_109\n      jump\t// in\n    tag_166:\n        /* \"#utility.yul\":3665:3728   */\n      swap2\n      pop\n        /* \"#utility.yul\":3621:3738   */\n      pop\n        /* \"#utility.yul\":3416:3745   */\n      swap3\n      swap2\n      pop\n      pop\n      jump\t// out\n        /* \"#utility.yul\":3751:4225   */\n    tag_56:\n        /* \"#utility.yul\":3819:3825   */\n      0x00\n        /* \"#utility.yul\":3827:3833   */\n      dup1\n        /* \"#utility.yul\":3876:3878   */\n      0x40\n        /* \"#utility.yul\":3864:3873   */\n      dup4\n        /* \"#utility.yul\":3855:3862   */\n      dup6\n        /* \"#utility.yul\":3851:3874   */\n      sub\n        /* \"#utility.yul\":3847:3879   */\n      slt\n        /* \"#utility.yul\":3844:3963   */\n      iszero\n      tag_168\n      jumpi\n        /* \"#utility.yul\":3882:3961   */\n      tag_169\n      tag_101\n      jump\t// in\n    tag_169:\n        /* \"#utility.yul\":3844:3963   */\n    tag_168:\n        /* \"#utility.yul\":4002:4003   */\n      0x00\n        /* \"#utility.yul\":4027:4080   */\n      tag_170\n        /* \"#utility.yul\":4072:4079   */\n      dup6\n        /* \"#utility.yul\":4063:4069   */\n      dup3\n        /* \"#utility.yul\":4052:4061   */\n      dup7\n        /* \"#utility.yul\":4048:4070   */\n      add\n        /* \"#utility.yul\":4027:4080   */\n      tag_106\n      jump\t// in\n    tag_170:\n        /* \"#utility.yul\":4017:4080   */\n      swap3\n      pop\n        /* \"#utility.yul\":3973:4090   */\n      pop\n        /* \"#utility.yul\":4129:4131   */\n      0x20\n        /* \"#utility.yul\":4155:4208   */\n      tag_171\n        /* \"#utility.yul\":4200:4207   */\n      dup6\n        /* \"#utility.yul\":4191:4197   */\n      dup3\n        /* \"#utility.yul\":4180:4189   */\n      dup7\n        /* \"#utility.yul\":4176:4198   */\n      add\n        /* \"#utility.yul\":4155:4208   */\n      tag_106\n      jump\t// in\n    tag_171:\n        /* \"#utility.yul\":4145:4208   */\n      swap2\n      pop\n        /* \"#utility.yul\":4100:4218   */\n      pop\n        /* \"#utility.yul\":3751:4225   */\n      swap3\n      pop\n      swap3\n      swap1\n      pop\n      jump\t// out\n        /* \"#utility.yul\":4231:4411   */\n    tag_113:\n        /* \"#utility.yul\":4279:4356   */\n      0x4e487b7100000000000000000000000000000000000000000000000000000000\n        /* \"#utility.yul\":4276:4277   */\n      0x00\n        /* \"#utility.yul\":4269:4357   */\n      mstore\n        /* \"#utility.yul\":4376:4380   */\n      0x11\n        /* \"#utility.yul\":4373:4374   */\n      0x04\n        /* \"#utility.yul\":4366:4381   */\n      mstore\n        /* \"#utility.yul\":4400:4404   */\n      0x24\n        /* \"#utility.yul\":4397:4398   */\n      0x00\n        /* \"#utility.yul\":4390:4405   */\n      revert\n        /* \"#utility.yul\":4417:4608   */\n    tag_65:\n        /* \"#utility.yul\":4457:4460   */\n      0x00\n        /* \"#utility.yul\":4476:4496   */\n      tag_174\n        /* \"#utility.yul\":4494:4495   */\n      dup3\n        /* \"#utility.yul\":4476:4496   */\n      tag_107\n      jump\t// in\n    tag_174:\n        /* \"#utility.yul\":4471:4496   */\n      swap2\n      pop\n        /* \"#utility.yul\":4510:4530   */\n      tag_175\n        /* \"#utility.yul\":4528:4529   */\n      dup4\n        /* \"#utility.yul\":4510:4530   */\n      tag_107\n      jump\t// in\n    tag_175:\n        /* \"#utility.yul\":4505:4530   */\n      swap3\n      pop\n        /* \"#utility.yul\":4553:4554   */\n      dup3\n        /* \"#utility.yul\":4550:4551   */\n      dup3\n        /* \"#utility.yul\":4546:4555   */\n      add\n        /* \"#utility.yul\":4539:4555   */\n      swap1\n      pop\n        /* \"#utility.yul\":4574:4577   */\n      dup1\n        /* \"#utility.yul\":4571:4572   */\n      dup3\n        /* \"#utility.yul\":4568:4578   */\n      gt\n        /* \"#utility.yul\":4565:4601   */\n      iszero\n      tag_176\n      jumpi\n        /* \"#utility.yul\":4581:4599   */\n      tag_177\n      tag_113\n      jump\t// in\n    tag_177:\n        /* \"#utility.yul\":4565:4601   */\n    tag_176:\n        /* \"#utility.yul\":4417:4608   */\n      swap3\n      swap2\n      pop\n      pop\n      jump\t// out\n        /* \"#utility.yul\":4614:4808   */\n    tag_67:\n        /* \"#utility.yul\":4654:4658   */\n      0x00\n        /* \"#utility.yul\":4674:4694   */\n      tag_179\n        /* \"#utility.yul\":4692:4693   */\n      dup3\n        /* \"#utility.yul\":4674:4694   */\n      tag_107\n      jump\t// in\n    tag_179:\n        /* \"#utility.yul\":4669:4694   */\n      swap2\n      pop\n        /* \"#utility.yul\":4708:4728   */\n      tag_180\n        /* \"#utility.yul\":4726:4727   */\n      dup4\n        /* \"#utility.yul\":4708:4728   */\n      tag_107\n      jump\t// in\n    tag_180:\n        /* \"#utility.yul\":4703:4728   */\n      swap3\n      pop\n        /* \"#utility.yul\":4752:4753   */\n      dup3\n        /* \"#utility.yul\":4749:4750   */\n      dup3\n        /* \"#utility.yul\":4745:4754   */\n      sub\n        /* \"#utility.yul\":4737:4754   */\n      swap1\n      pop\n        /* \"#utility.yul\":4776:4777   */\n      dup2\n        /* \"#utility.yul\":4770:4774   */\n      dup2\n        /* \"#utility.yul\":4767:4778   */\n      gt\n        /* \"#utility.yul\":4764:4801   */\n      iszero\n      tag_181\n      jumpi\n        /* \"#utility.yul\":4781:4799   */\n      tag_182\n      tag_113\n      jump\t// in\n    tag_182:\n        /* \"#utility.yul\":4764:4801   */\n    tag_181:\n        /* \"#utility.yul\":4614:4808   */\n      swap3\n      swap2\n      pop\n      pop\n      jump\t// out\n        /* \"#utility.yul\":4814:4983   */\n    tag_114:\n        /* \"#utility.yul\":4898:4909   */\n      0x00\n        /* \"#utility.yul\":4932:4938   */\n      dup3\n        /* \"#utility.yul\":4927:4930   */\n      dup3\n        /* \"#utility.yul\":4920:4939   */\n      mstore\n        /* \"#utility.yul\":4972:4976   */\n      0x20\n        /* \"#utility.yul\":4967:4970   */\n      dup3\n        /* \"#utility.yul\":4963:4977   */\n      add\n        /* \"#utility.yul\":4948:4977   */\n      swap1\n      pop\n        /* \"#utility.yul\":4814:4983   */\n      swap3\n      swap2\n      pop\n      pop\n      jump\t// out\n        /* \"#utility.yul\":4989:5210   */\n    tag_115:\n        /* \"#utility.yul\":5129:5163   */\n      0x4f6e6c79206f776e65722063616e20706572666f726d20746869732061637469\n        /* \"#utility.yul\":5125:5126   */\n      0x00\n        /* \"#utility.yul\":5117:5123   */\n      dup3\n        /* \"#utility.yul\":5113:5127   */\n      add\n        /* \"#utility.yul\":5106:5164   */\n      mstore\n        /* \"#utility.yul\":5198:5202   */\n      0x6f6e000000000000000000000000000000000000000000000000000000000000\n        /* \"#utility.yul\":5193:5195   */\n      0x20\n        /* \"#utility.yul\":5185:5191   */\n      dup3\n        /* \"#utility.yul\":5181:5196   */\n      add\n        /* \"#utility.yul\":5174:5203   */\n      mstore\n        /* \"#utility.yul\":4989:5210   */\n      pop\n      jump\t// out\n        /* \"#utility.yul\":5216:5582   */\n    tag_116:\n        /* \"#utility.yul\":5358:5361   */\n      0x00\n        /* \"#utility.yul\":5379:5446   */\n      tag_186\n        /* \"#utility.yul\":5443:5445   */\n      0x22\n        /* \"#utility.yul\":5438:5441   */\n      dup4\n        /* \"#utility.yul\":5379:5446   */\n      tag_114\n      jump\t// in\n    tag_186:\n        /* \"#utility.yul\":5372:5446   */\n      swap2\n      pop\n        /* \"#utility.yul\":5455:5548   */\n      tag_187\n        /* \"#utility.yul\":5544:5547   */\n      dup3\n        /* \"#utility.yul\":5455:5548   */\n      tag_115\n      jump\t// in\n    tag_187:\n        /* \"#utility.yul\":5573:5575   */\n      0x40\n        /* \"#utility.yul\":5568:5571   */\n      dup3\n        /* \"#utility.yul\":5564:5576   */\n      add\n        /* \"#utility.yul\":5557:5576   */\n      swap1\n      pop\n        /* \"#utility.yul\":5216:5582   */\n      swap2\n      swap1\n      pop\n      jump\t// out\n        /* \"#utility.yul\":5588:6007   */\n    tag_73:\n        /* \"#utility.yul\":5754:5758   */\n      0x00\n        /* \"#utility.yul\":5792:5794   */\n      0x20\n        /* \"#utility.yul\":5781:5790   */\n      dup3\n        /* \"#utility.yul\":5777:5795   */\n      add\n        /* \"#utility.yul\":5769:5795   */\n      swap1\n      pop\n        /* \"#utility.yul\":5841:5850   */\n      dup2\n        /* \"#utility.yul\":5835:5839   */\n      dup2\n        /* \"#utility.yul\":5831:5851   */\n      sub\n        /* \"#utility.yul\":5827:5828   */\n      0x00\n        /* \"#utility.yul\":5816:5825   */\n      dup4\n        /* \"#utility.yul\":5812:5829   */\n      add\n        /* \"#utility.yul\":5805:5852   */\n      mstore\n        /* \"#utility.yul\":5869:6000   */\n      tag_189\n        /* \"#utility.yul\":5995:5999   */\n      dup2\n        /* \"#utility.yul\":5869:6000   */\n      tag_116\n      jump\t// in\n    tag_189:\n        /* \"#utility.yul\":5861:6000   */\n      swap1\n      pop\n        /* \"#utility.yul\":5588:6007   */\n      swap2\n      swap1\n      pop\n      jump\t// out\n        /* \"#utility.yul\":6013:6195   */\n    tag_117:\n        /* \"#utility.yul\":6153:6187   */\n      0x43616c6c6572206973206e6f7420617574686f72697a656420746f206d696e74\n        /* \"#utility.yul\":6149:6150   */\n      0x00\n        /* \"#utility.yul\":6141:6147   */\n      dup3\n        /* \"#utility.yul\":6137:6151   */\n      add\n        /* \"#utility.yul\":6130:6188   */\n      mstore\n        /* \"#utility.yul\":6013:6195   */\n      pop\n      jump\t// out\n        /* \"#utility.yul\":6201:6567   */\n    tag_118:\n        /* \"#utility.yul\":6343:6346   */\n      0x00\n        /* \"#utility.yul\":6364:6431   */\n      tag_192\n        /* \"#utility.yul\":6428:6430   */\n      0x20\n        /* \"#utility.yul\":6423:6426   */\n      dup4\n        /* \"#utility.yul\":6364:6431   */\n      tag_114\n      jump\t// in\n    tag_192:\n        /* \"#utility.yul\":6357:6431   */\n      swap2\n      pop\n        /* \"#utility.yul\":6440:6533   */\n      tag_193\n        /* \"#utility.yul\":6529:6532   */\n      dup3\n        /* \"#utility.yul\":6440:6533   */\n      tag_117\n      jump\t// in\n    tag_193:\n        /* \"#utility.yul\":6558:6560   */\n      0x20\n        /* \"#utility.yul\":6553:6556   */\n      dup3\n        /* \"#utility.yul\":6549:6561   */\n      add\n        /* \"#utility.yul\":6542:6561   */\n      swap1\n      pop\n        /* \"#utility.yul\":6201:6567   */\n      swap2\n      swap1\n      pop\n      jump\t// out\n        /* \"#utility.yul\":6573:6992   */\n    tag_78:\n        /* \"#utility.yul\":6739:6743   */\n      0x00\n        /* \"#utility.yul\":6777:6779   */\n      0x20\n        /* \"#utility.yul\":6766:6775   */\n      dup3\n        /* \"#utility.yul\":6762:6780   */\n      add\n        /* \"#utility.yul\":6754:6780   */\n      swap1\n      pop\n        /* \"#utility.yul\":6826:6835   */\n      dup2\n        /* \"#utility.yul\":6820:6824   */\n      dup2\n        /* \"#utility.yul\":6816:6836   */\n      sub\n        /* \"#utility.yul\":6812:6813   */\n      0x00\n        /* \"#utility.yul\":6801:6810   */\n      dup4\n        /* \"#utility.yul\":6797:6814   */\n      add\n        /* \"#utility.yul\":6790:6837   */\n      mstore\n        /* \"#utility.yul\":6854:6985   */\n      tag_195\n        /* \"#utility.yul\":6980:6984   */\n      dup2\n        /* \"#utility.yul\":6854:6985   */\n      tag_118\n      jump\t// in\n    tag_195:\n        /* \"#utility.yul\":6846:6985   */\n      swap1\n      pop\n        /* \"#utility.yul\":6573:6992   */\n      swap2\n      swap1\n      pop\n      jump\t// out\n        /* \"#utility.yul\":6998:7170   */\n    tag_119:\n        /* \"#utility.yul\":7138:7162   */\n      0x43616c6c6572206973206e6f742061206d696e74657200000000000000000000\n        /* \"#utility.yul\":7134:7135   */\n      0x00\n        /* \"#utility.yul\":7126:7132   */\n      dup3\n        /* \"#utility.yul\":7122:7136   */\n      add\n        /* \"#utility.yul\":7115:7163   */\n      mstore\n        /* \"#utility.yul\":6998:7170   */\n      pop\n      jump\t// out\n        /* \"#utility.yul\":7176:7542   */\n    tag_120:\n        /* \"#utility.yul\":7318:7321   */\n      0x00\n        /* \"#utility.yul\":7339:7406   */\n      tag_198\n        /* \"#utility.yul\":7403:7405   */\n      0x16\n        /* \"#utility.yul\":7398:7401   */\n      dup4\n        /* \"#utility.yul\":7339:7406   */\n      tag_114\n      jump\t// in\n    tag_198:\n        /* \"#utility.yul\":7332:7406   */\n      swap2\n      pop\n        /* \"#utility.yul\":7415:7508   */\n      tag_199\n        /* \"#utility.yul\":7504:7507   */\n      dup3\n        /* \"#utility.yul\":7415:7508   */\n      tag_119\n      jump\t// in\n    tag_199:\n        /* \"#utility.yul\":7533:7535   */\n      0x20\n        /* \"#utility.yul\":7528:7531   */\n      dup3\n        /* \"#utility.yul\":7524:7536   */\n      add\n        /* \"#utility.yul\":7517:7536   */\n      swap1\n      pop\n        /* \"#utility.yul\":7176:7542   */\n      swap2\n      swap1\n      pop\n      jump\t// out\n        /* \"#utility.yul\":7548:7967   */\n    tag_90:\n        /* \"#utility.yul\":7714:7718   */\n      0x00\n        /* \"#utility.yul\":7752:7754   */\n      0x20\n        /* \"#utility.yul\":7741:7750   */\n      dup3\n        /* \"#utility.yul\":7737:7755   */\n      add\n        /* \"#utility.yul\":7729:7755   */\n      swap1\n      pop\n        /* \"#utility.yul\":7801:7810   */\n      dup2\n        /* \"#utility.yul\":7795:7799   */\n      dup2\n        /* \"#utility.yul\":7791:7811   */\n      sub\n        /* \"#utility.yul\":7787:7788   */\n      0x00\n        /* \"#utility.yul\":7776:7785   */\n      dup4\n        /* \"#utility.yul\":7772:7789   */\n      add\n        /* \"#utility.yul\":7765:7812   */\n      mstore\n        /* \"#utility.yul\":7829:7960   */\n      tag_201\n        /* \"#utility.yul\":7955:7959   */\n      dup2\n        /* \"#utility.yul\":7829:7960   */\n      tag_120\n      jump\t// in\n    tag_201:\n        /* \"#utility.yul\":7821:7960   */\n      swap1\n      pop\n        /* \"#utility.yul\":7548:7967   */\n      swap2\n      swap1\n      pop\n      jump\t// out\n\n    auxdata: 0xa2646970667358221220ba328c3c189c090664ab3ab1f84056dd837a491bf27ea655d08bf9684da58ad364736f6c63430008170033\n}\n",
				"bytecode": {
					"linkReferences": {},
					"object": "608060405234801561000f575f80fd5b50633b9aca006002819055505f600181905550335f806101000a81548173ffffffffffffffffffffffffffffffffffffffff021916908373ffffffffffffffffffffffffffffffffffffffff160217905550600160055f805f9054906101000a900473ffffffffffffffffffffffffffffffffffffffff1673ffffffffffffffffffffffffffffffffffffffff1673ffffffffffffffffffffffffffffffffffffffff1681526020019081526020015f205f6101000a81548160ff0219169083151502179055506110ba806100e35f395ff3fe608060405234801561000f575f80fd5b50600436106100a7575f3560e01c806370a082311161006f57806370a082311461014d578063983b2d561461017d578063a0712d6814610199578063a9059cbb146101b5578063c4e41b22146101e5578063dd62ed3e14610203576100a7565b8063095ea7b3146100ab57806323b872dd146100db5780633092afd5146100f7578063449a52f8146101135780634f3e1efc1461012f575b5f80fd5b6100c560048036038101906100c09190610d06565b610233565b6040516100d29190610d5e565b60405180910390f35b6100f560048036038101906100f09190610d77565b610320565b005b610111600480360381019061010c9190610dc7565b610590565b005b61012d60048036038101906101289190610d06565b6106b7565b005b6101376107af565b6040516101449190610e01565b60405180910390f35b61016760048036038101906101629190610dc7565b6107b8565b6040516101749190610e01565b60405180910390f35b61019760048036038101906101929190610dc7565b6107fe565b005b6101b360048036038101906101ae9190610e1a565b610926565b005b6101cf60048036038101906101ca9190610d06565b610a1d565b6040516101dc9190610d5e565b60405180910390f35b6101ed610bea565b6040516101fa9190610e01565b60405180910390f35b61021d60048036038101906102189190610e45565b610bf3565b60405161022a9190610e01565b60405180910390f35b5f8160045f3373ffffffffffffffffffffffffffffffffffffffff1673ffffffffffffffffffffffffffffffffffffffff1681526020019081526020015f205f8573ffffffffffffffffffffffffffffffffffffffff1673ffffffffffffffffffffffffffffffffffffffff1681526020019081526020015f20819055508273ffffffffffffffffffffffffffffffffffffffff163373ffffffffffffffffffffffffffffffffffffffff167f6e11fb1b7f119e3f2fa29896ef5fdf8b8a2d0d4df6fe90ba8668e7d8b2ffa25e8460405161030e9190610e01565b60405180910390a36001905092915050565b5f60045f8573ffffffffffffffffffffffffffffffffffffffff1673ffffffffffffffffffffffffffffffffffffffff1681526020019081526020015f205f3373ffffffffffffffffffffffffffffffffffffffff1673ffffffffffffffffffffffffffffffffffffffff1681526020019081526020015f205490508160035f8673ffffffffffffffffffffffffffffffffffffffff1673ffffffffffffffffffffffffffffffffffffffff1681526020019081526020015f2054101580156103e95750818110155b6103f1575f80fd5b8160035f8573ffffffffffffffffffffffffffffffffffffffff1673ffffffffffffffffffffffffffffffffffffffff1681526020019081526020015f205f82825461043d9190610eb0565b925050819055508160035f8673ffffffffffffffffffffffffffffffffffffffff1673ffffffffffffffffffffffffffffffffffffffff1681526020019081526020015f205f8282546104909190610ee3565b925050819055508160045f8673ffffffffffffffffffffffffffffffffffffffff1673ffffffffffffffffffffffffffffffffffffffff1681526020019081526020015f205f3373ffffffffffffffffffffffffffffffffffffffff1673ffffffffffffffffffffffffffffffffffffffff1681526020019081526020015f205f82825461051e9190610ee3565b925050819055508273ffffffffffffffffffffffffffffffffffffffff168473ffffffffffffffffffffffffffffffffffffffff167fddf252ad1be2c89b69c2b068fc378daa952ba7f163c4a11628f55a4df523b3ef846040516105829190610e01565b60405180910390a350505050565b5f8054906101000a900473ffffffffffffffffffffffffffffffffffffffff1673ffffffffffffffffffffffffffffffffffffffff163373ffffffffffffffffffffffffffffffffffffffff161461061d576040517f08c379a000000000000000000000000000000000000000000000000000000000815260040161061490610f96565b60405180910390fd5b5f60055f8373ffffffffffffffffffffffffffffffffffffffff1673ffffffffffffffffffffffffffffffffffffffff1681526020019081526020015f205f6101000a81548160ff0219169083151502179055508073ffffffffffffffffffffffffffffffffffffffff167fe94479a9f7e1952cc78f2d6baab678adc1b772d936c6583def489e524cb6669260405160405180910390a250565b60055f3373ffffffffffffffffffffffffffffffffffffffff1673ffffffffffffffffffffffffffffffffffffffff1681526020019081526020015f205f9054906101000a900460ff16610740576040517f08c379a000000000000000000000000000000000000000000000000000000000815260040161073790610ffe565b60405180910390fd5b8060035f8473ffffffffffffffffffffffffffffffffffffffff1673ffffffffffffffffffffffffffffffffffffffff1681526020019081526020015f205f82825461078c9190610eb0565b925050819055508060015f8282546107a49190610eb0565b925050819055505050565b5f600154905090565b5f60035f8373ffffffffffffffffffffffffffffffffffffffff1673ffffffffffffffffffffffffffffffffffffffff1681526020019081526020015f20549050919050565b5f8054906101000a900473ffffffffffffffffffffffffffffffffffffffff1673ffffffffffffffffffffffffffffffffffffffff163373ffffffffffffffffffffffffffffffffffffffff161461088b576040517f08c379a000000000000000000000000000000000000000000000000000000000815260040161088290610f96565b60405180910390fd5b600160055f8373ffffffffffffffffffffffffffffffffffffffff1673ffffffffffffffffffffffffffffffffffffffff1681526020019081526020015f205f6101000a81548160ff0219169083151502179055508073ffffffffffffffffffffffffffffffffffffffff167f6ae172837ea30b801fbfcdd4108aa1d5bf8ff775444fd70256b44e6bf3dfc3f660405160405180910390a250565b60055f3373ffffffffffffffffffffffffffffffffffffffff1673ffffffffffffffffffffffffffffffffffffffff1681526020019081526020015f205f9054906101000a900460ff166109af576040517f08c379a00000000000000000000000000000000000000000000000000000000081526004016109a690611066565b60405180910390fd5b8060035f3373ffffffffffffffffffffffffffffffffffffffff1673ffffffffffffffffffffffffffffffffffffffff1681526020019081526020015f205f8282546109fb9190610eb0565b925050819055508060015f828254610a139190610eb0565b9250508190555050565b5f60035f3373ffffffffffffffffffffffffffffffffffffffff1673ffffffffffffffffffffffffffffffffffffffff1681526020019081526020015f2054821115610a67575f80fd5b8160035f3373ffffffffffffffffffffffffffffffffffffffff1673ffffffffffffffffffffffffffffffffffffffff1681526020019081526020015f2054610ab09190610ee3565b60035f3373ffffffffffffffffffffffffffffffffffffffff1673ffffffffffffffffffffffffffffffffffffffff1681526020019081526020015f20819055508160035f8573ffffffffffffffffffffffffffffffffffffffff1673ffffffffffffffffffffffffffffffffffffffff1681526020019081526020015f2054610b3a9190610eb0565b60035f8573ffffffffffffffffffffffffffffffffffffffff1673ffffffffffffffffffffffffffffffffffffffff1681526020019081526020015f20819055508273ffffffffffffffffffffffffffffffffffffffff163373ffffffffffffffffffffffffffffffffffffffff167fddf252ad1be2c89b69c2b068fc378daa952ba7f163c4a11628f55a4df523b3ef84604051610bd89190610e01565b60405180910390a36001905092915050565b5f600254905090565b5f60045f8473ffffffffffffffffffffffffffffffffffffffff1673ffffffffffffffffffffffffffffffffffffffff1681526020019081526020015f205f8373ffffffffffffffffffffffffffffffffffffffff1673ffffffffffffffffffffffffffffffffffffffff1681526020019081526020015f2054905092915050565b5f80fd5b5f73ffffffffffffffffffffffffffffffffffffffff82169050919050565b5f610ca282610c79565b9050919050565b610cb281610c98565b8114610cbc575f80fd5b50565b5f81359050610ccd81610ca9565b92915050565b5f819050919050565b610ce581610cd3565b8114610cef575f80fd5b50565b5f81359050610d0081610cdc565b92915050565b5f8060408385031215610d1c57610d1b610c75565b5b5f610d2985828601610cbf565b9250506020610d3a85828601610cf2565b9150509250929050565b5f8115159050919050565b610d5881610d44565b82525050565b5f602082019050610d715f830184610d4f565b92915050565b5f805f60608486031215610d8e57610d8d610c75565b5b5f610d9b86828701610cbf565b9350506020610dac86828701610cbf565b9250506040610dbd86828701610cf2565b9150509250925092565b5f60208284031215610ddc57610ddb610c75565b5b5f610de984828501610cbf565b91505092915050565b610dfb81610cd3565b82525050565b5f602082019050610e145f830184610df2565b92915050565b5f60208284031215610e2f57610e2e610c75565b5b5f610e3c84828501610cf2565b91505092915050565b5f8060408385031215610e5b57610e5a610c75565b5b5f610e6885828601610cbf565b9250506020610e7985828601610cbf565b9150509250929050565b7f4e487b71000000000000000000000000000000000000000000000000000000005f52601160045260245ffd5b5f610eba82610cd3565b9150610ec583610cd3565b9250828201905080821115610edd57610edc610e83565b5b92915050565b5f610eed82610cd3565b9150610ef883610cd3565b9250828203905081811115610f1057610f0f610e83565b5b92915050565b5f82825260208201905092915050565b7f4f6e6c79206f776e65722063616e20706572666f726d207468697320616374695f8201527f6f6e000000000000000000000000000000000000000000000000000000000000602082015250565b5f610f80602283610f16565b9150610f8b82610f26565b604082019050919050565b5f6020820190508181035f830152610fad81610f74565b9050919050565b7f43616c6c6572206973206e6f7420617574686f72697a656420746f206d696e745f82015250565b5f610fe8602083610f16565b9150610ff382610fb4565b602082019050919050565b5f6020820190508181035f83015261101581610fdc565b9050919050565b7f43616c6c6572206973206e6f742061206d696e746572000000000000000000005f82015250565b5f611050601683610f16565b915061105b8261101c565b602082019050919050565b5f6020820190508181035f83015261107d81611044565b905091905056fea2646970667358221220ba328c3c189c090664ab3ab1f84056dd837a491bf27ea655d08bf9684da58ad364736f6c63430008170033",
					"opcodes": "PUSH1 0x80 PUSH1 0x40 MSTORE CALLVALUE DUP1 ISZERO PUSH2 0xF JUMPI PUSH0 DUP1 REVERT JUMPDEST POP PUSH4 0x3B9ACA00 PUSH1 0x2 DUP2 SWAP1 SSTORE POP PUSH0 PUSH1 0x1 DUP2 SWAP1 SSTORE POP CALLER PUSH0 DUP1 PUSH2 0x100 EXP DUP2 SLOAD DUP2 PUSH20 0xFFFFFFFFFFFFFFFFFFFFFFFFFFFFFFFFFFFFFFFF MUL NOT AND SWAP1 DUP4 PUSH20 0xFFFFFFFFFFFFFFFFFFFFFFFFFFFFFFFFFFFFFFFF AND MUL OR SWAP1 SSTORE POP PUSH1 0x1 PUSH1 0x5 PUSH0 DUP1 PUSH0 SWAP1 SLOAD SWAP1 PUSH2 0x100 EXP SWAP1 DIV PUSH20 0xFFFFFFFFFFFFFFFFFFFFFFFFFFFFFFFFFFFFFFFF AND PUSH20 0xFFFFFFFFFFFFFFFFFFFFFFFFFFFFFFFFFFFFFFFF AND PUSH20 0xFFFFFFFFFFFFFFFFFFFFFFFFFFFFFFFFFFFFFFFF AND DUP2 MSTORE PUSH1 0x20 ADD SWAP1 DUP2 MSTORE PUSH1 0x20 ADD PUSH0 KECCAK256 PUSH0 PUSH2 0x100 EXP DUP2 SLOAD DUP2 PUSH1 0xFF MUL NOT AND SWAP1 DUP4 ISZERO ISZERO MUL OR SWAP1 SSTORE POP PUSH2 0x10BA DUP1 PUSH2 0xE3 PUSH0 CODECOPY PUSH0 RETURN INVALID PUSH1 0x80 PUSH1 0x40 MSTORE CALLVALUE DUP1 ISZERO PUSH2 0xF JUMPI PUSH0 DUP1 REVERT JUMPDEST POP PUSH1 0x4 CALLDATASIZE LT PUSH2 0xA7 JUMPI PUSH0 CALLDATALOAD PUSH1 0xE0 SHR DUP1 PUSH4 0x70A08231 GT PUSH2 0x6F JUMPI DUP1 PUSH4 0x70A08231 EQ PUSH2 0x14D JUMPI DUP1 PUSH4 0x983B2D56 EQ PUSH2 0x17D JUMPI DUP1 PUSH4 0xA0712D68 EQ PUSH2 0x199 JUMPI DUP1 PUSH4 0xA9059CBB EQ PUSH2 0x1B5 JUMPI DUP1 PUSH4 0xC4E41B22 EQ PUSH2 0x1E5 JUMPI DUP1 PUSH4 0xDD62ED3E EQ PUSH2 0x203 JUMPI PUSH2 0xA7 JUMP JUMPDEST DUP1 PUSH4 0x95EA7B3 EQ PUSH2 0xAB JUMPI DUP1 PUSH4 0x23B872DD EQ PUSH2 0xDB JUMPI DUP1 PUSH4 0x3092AFD5 EQ PUSH2 0xF7 JUMPI DUP1 PUSH4 0x449A52F8 EQ PUSH2 0x113 JUMPI DUP1 PUSH4 0x4F3E1EFC EQ PUSH2 0x12F JUMPI JUMPDEST PUSH0 DUP1 REVERT JUMPDEST PUSH2 0xC5 PUSH1 0x4 DUP1 CALLDATASIZE SUB DUP2 ADD SWAP1 PUSH2 0xC0 SWAP2 SWAP1 PUSH2 0xD06 JUMP JUMPDEST PUSH2 0x233 JUMP JUMPDEST PUSH1 0x40 MLOAD PUSH2 0xD2 SWAP2 SWAP1 PUSH2 0xD5E JUMP JUMPDEST PUSH1 0x40 MLOAD DUP1 SWAP2 SUB SWAP1 RETURN JUMPDEST PUSH2 0xF5 PUSH1 0x4 DUP1 CALLDATASIZE SUB DUP2 ADD SWAP1 PUSH2 0xF0 SWAP2 SWAP1 PUSH2 0xD77 JUMP JUMPDEST PUSH2 0x320 JUMP JUMPDEST STOP JUMPDEST PUSH2 0x111 PUSH1 0x4 DUP1 CALLDATASIZE SUB DUP2 ADD SWAP1 PUSH2 0x10C SWAP2 SWAP1 PUSH2 0xDC7 JUMP JUMPDEST PUSH2 0x590 JUMP JUMPDEST STOP JUMPDEST PUSH2 0x12D PUSH1 0x4 DUP1 CALLDATASIZE SUB DUP2 ADD SWAP1 PUSH2 0x128 SWAP2 SWAP1 PUSH2 0xD06 JUMP JUMPDEST PUSH2 0x6B7 JUMP JUMPDEST STOP JUMPDEST PUSH2 0x137 PUSH2 0x7AF JUMP JUMPDEST PUSH1 0x40 MLOAD PUSH2 0x144 SWAP2 SWAP1 PUSH2 0xE01 JUMP JUMPDEST PUSH1 0x40 MLOAD DUP1 SWAP2 SUB SWAP1 RETURN JUMPDEST PUSH2 0x167 PUSH1 0x4 DUP1 CALLDATASIZE SUB DUP2 ADD SWAP1 PUSH2 0x162 SWAP2 SWAP1 PUSH2 0xDC7 JUMP JUMPDEST PUSH2 0x7B8 JUMP JUMPDEST PUSH1 0x40 MLOAD PUSH2 0x174 SWAP2 SWAP1 PUSH2 0xE01 JUMP JUMPDEST PUSH1 0x40 MLOAD DUP1 SWAP2 SUB SWAP1 RETURN JUMPDEST PUSH2 0x197 PUSH1 0x4 DUP1 CALLDATASIZE SUB DUP2 ADD SWAP1 PUSH2 0x192 SWAP2 SWAP1 PUSH2 0xDC7 JUMP JUMPDEST PUSH2 0x7FE JUMP JUMPDEST STOP JUMPDEST PUSH2 0x1B3 PUSH1 0x4 DUP1 CALLDATASIZE SUB DUP2 ADD SWAP1 PUSH2 0x1AE SWAP2 SWAP1 PUSH2 0xE1A JUMP JUMPDEST PUSH2 0x926 JUMP JUMPDEST STOP JUMPDEST PUSH2 0x1CF PUSH1 0x4 DUP1 CALLDATASIZE SUB DUP2 ADD SWAP1 PUSH2 0x1CA SWAP2 SWAP1 PUSH2 0xD06 JUMP JUMPDEST PUSH2 0xA1D JUMP JUMPDEST PUSH1 0x40 MLOAD PUSH2 0x1DC SWAP2 SWAP1 PUSH2 0xD5E JUMP JUMPDEST PUSH1 0x40 MLOAD DUP1 SWAP2 SUB SWAP1 RETURN JUMPDEST PUSH2 0x1ED PUSH2 0xBEA JUMP JUMPDEST PUSH1 0x40 MLOAD PUSH2 0x1FA SWAP2 SWAP1 PUSH2 0xE01 JUMP JUMPDEST PUSH1 0x40 MLOAD DUP1 SWAP2 SUB SWAP1 RETURN JUMPDEST PUSH2 0x21D PUSH1 0x4 DUP1 CALLDATASIZE SUB DUP2 ADD SWAP1 PUSH2 0x218 SWAP2 SWAP1 PUSH2 0xE45 JUMP JUMPDEST PUSH2 0xBF3 JUMP JUMPDEST PUSH1 0x40 MLOAD PUSH2 0x22A SWAP2 SWAP1 PUSH2 0xE01 JUMP JUMPDEST PUSH1 0x40 MLOAD DUP1 SWAP2 SUB SWAP1 RETURN JUMPDEST PUSH0 DUP2 PUSH1 0x4 PUSH0 CALLER PUSH20 0xFFFFFFFFFFFFFFFFFFFFFFFFFFFFFFFFFFFFFFFF AND PUSH20 0xFFFFFFFFFFFFFFFFFFFFFFFFFFFFFFFFFFFFFFFF AND DUP2 MSTORE PUSH1 0x20 ADD SWAP1 DUP2 MSTORE PUSH1 0x20 ADD PUSH0 KECCAK256 PUSH0 DUP6 PUSH20 0xFFFFFFFFFFFFFFFFFFFFFFFFFFFFFFFFFFFFFFFF AND PUSH20 0xFFFFFFFFFFFFFFFFFFFFFFFFFFFFFFFFFFFFFFFF AND DUP2 MSTORE PUSH1 0x20 ADD SWAP1 DUP2 MSTORE PUSH1 0x20 ADD PUSH0 KECCAK256 DUP2 SWAP1 SSTORE POP DUP3 PUSH20 0xFFFFFFFFFFFFFFFFFFFFFFFFFFFFFFFFFFFFFFFF AND CALLER PUSH20 0xFFFFFFFFFFFFFFFFFFFFFFFFFFFFFFFFFFFFFFFF AND PUSH32 0x6E11FB1B7F119E3F2FA29896EF5FDF8B8A2D0D4DF6FE90BA8668E7D8B2FFA25E DUP5 PUSH1 0x40 MLOAD PUSH2 0x30E SWAP2 SWAP1 PUSH2 0xE01 JUMP JUMPDEST PUSH1 0x40 MLOAD DUP1 SWAP2 SUB SWAP1 LOG3 PUSH1 0x1 SWAP1 POP SWAP3 SWAP2 POP POP JUMP JUMPDEST PUSH0 PUSH1 0x4 PUSH0 DUP6 PUSH20 0xFFFFFFFFFFFFFFFFFFFFFFFFFFFFFFFFFFFFFFFF AND PUSH20 0xFFFFFFFFFFFFFFFFFFFFFFFFFFFFFFFFFFFFFFFF AND DUP2 MSTORE PUSH1 0x20 ADD SWAP1 DUP2 MSTORE PUSH1 0x20 ADD PUSH0 KECCAK256 PUSH0 CALLER PUSH20 0xFFFFFFFFFFFFFFFFFFFFFFFFFFFFFFFFFFFFFFFF AND PUSH20 0xFFFFFFFFFFFFFFFFFFFFFFFFFFFFFFFFFFFFFFFF AND DUP2 MSTORE PUSH1 0x20 ADD SWAP1 DUP2 MSTORE PUSH1 0x20 ADD PUSH0 KECCAK256 SLOAD SWAP1 POP DUP2 PUSH1 0x3 PUSH0 DUP7 PUSH20 0xFFFFFFFFFFFFFFFFFFFFFFFFFFFFFFFFFFFFFFFF AND PUSH20 0xFFFFFFFFFFFFFFFFFFFFFFFFFFFFFFFFFFFFFFFF AND DUP2 MSTORE PUSH1 0x20 ADD SWAP1 DUP2 MSTORE PUSH1 0x20 ADD PUSH0 KECCAK256 SLOAD LT ISZERO DUP1 ISZERO PUSH2 0x3E9 JUMPI POP DUP2 DUP2 LT ISZERO JUMPDEST PUSH2 0x3F1 JUMPI PUSH0 DUP1 REVERT JUMPDEST DUP2 PUSH1 0x3 PUSH0 DUP6 PUSH20 0xFFFFFFFFFFFFFFFFFFFFFFFFFFFFFFFFFFFFFFFF AND PUSH20 0xFFFFFFFFFFFFFFFFFFFFFFFFFFFFFFFFFFFFFFFF AND DUP2 MSTORE PUSH1 0x20 ADD SWAP1 DUP2 MSTORE PUSH1 0x20 ADD PUSH0 KECCAK256 PUSH0 DUP3 DUP3 SLOAD PUSH2 0x43D SWAP2 SWAP1 PUSH2 0xEB0 JUMP JUMPDEST SWAP3 POP POP DUP2 SWAP1 SSTORE POP DUP2 PUSH1 0x3 PUSH0 DUP7 PUSH20 0xFFFFFFFFFFFFFFFFFFFFFFFFFFFFFFFFFFFFFFFF AND PUSH20 0xFFFFFFFFFFFFFFFFFFFFFFFFFFFFFFFFFFFFFFFF AND DUP2 MSTORE PUSH1 0x20 ADD SWAP1 DUP2 MSTORE PUSH1 0x20 ADD PUSH0 KECCAK256 PUSH0 DUP3 DUP3 SLOAD PUSH2 0x490 SWAP2 SWAP1 PUSH2 0xEE3 JUMP JUMPDEST SWAP3 POP POP DUP2 SWAP1 SSTORE POP DUP2 PUSH1 0x4 PUSH0 DUP7 PUSH20 0xFFFFFFFFFFFFFFFFFFFFFFFFFFFFFFFFFFFFFFFF AND PUSH20 0xFFFFFFFFFFFFFFFFFFFFFFFFFFFFFFFFFFFFFFFF AND DUP2 MSTORE PUSH1 0x20 ADD SWAP1 DUP2 MSTORE PUSH1 0x20 ADD PUSH0 KECCAK256 PUSH0 CALLER PUSH20 0xFFFFFFFFFFFFFFFFFFFFFFFFFFFFFFFFFFFFFFFF AND PUSH20 0xFFFFFFFFFFFFFFFFFFFFFFFFFFFFFFFFFFFFFFFF AND DUP2 MSTORE PUSH1 0x20 ADD SWAP1 DUP2 MSTORE PUSH1 0x20 ADD PUSH0 KECCAK256 PUSH0 DUP3 DUP3 SLOAD PUSH2 0x51E SWAP2 SWAP1 PUSH2 0xEE3 JUMP JUMPDEST SWAP3 POP POP DUP2 SWAP1 SSTORE POP DUP3 PUSH20 0xFFFFFFFFFFFFFFFFFFFFFFFFFFFFFFFFFFFFFFFF AND DUP5 PUSH20 0xFFFFFFFFFFFFFFFFFFFFFFFFFFFFFFFFFFFFFFFF AND PUSH32 0xDDF252AD1BE2C89B69C2B068FC378DAA952BA7F163C4A11628F55A4DF523B3EF DUP5 PUSH1 0x40 MLOAD PUSH2 0x582 SWAP2 SWAP1 PUSH2 0xE01 JUMP JUMPDEST PUSH1 0x40 MLOAD DUP1 SWAP2 SUB SWAP1 LOG3 POP POP POP POP JUMP JUMPDEST PUSH0 DUP1 SLOAD SWAP1 PUSH2 0x100 EXP SWAP1 DIV PUSH20 0xFFFFFFFFFFFFFFFFFFFFFFFFFFFFFFFFFFFFFFFF AND PUSH20 0xFFFFFFFFFFFFFFFFFFFFFFFFFFFFFFFFFFFFFFFF AND CALLER PUSH20 0xFFFFFFFFFFFFFFFFFFFFFFFFFFFFFFFFFFFFFFFF AND EQ PUSH2 0x61D JUMPI PUSH1 0x40 MLOAD PUSH32 0x8C379A000000000000000000000000000000000000000000000000000000000 DUP2 MSTORE PUSH1 0x4 ADD PUSH2 0x614 SWAP1 PUSH2 0xF96 JUMP JUMPDEST PUSH1 0x40 MLOAD DUP1 SWAP2 SUB SWAP1 REVERT JUMPDEST PUSH0 PUSH1 0x5 PUSH0 DUP4 PUSH20 0xFFFFFFFFFFFFFFFFFFFFFFFFFFFFFFFFFFFFFFFF AND PUSH20 0xFFFFFFFFFFFFFFFFFFFFFFFFFFFFFFFFFFFFFFFF AND DUP2 MSTORE PUSH1 0x20 ADD SWAP1 DUP2 MSTORE PUSH1 0x20 ADD PUSH0 KECCAK256 PUSH0 PUSH2 0x100 EXP DUP2 SLOAD DUP2 PUSH1 0xFF MUL NOT AND SWAP1 DUP4 ISZERO ISZERO MUL OR SWAP1 SSTORE POP DUP1 PUSH20 0xFFFFFFFFFFFFFFFFFFFFFFFFFFFFFFFFFFFFFFFF AND PUSH32 0xE94479A9F7E1952CC78F2D6BAAB678ADC1B772D936C6583DEF489E524CB66692 PUSH1 0x40 MLOAD PUSH1 0x40 MLOAD DUP1 SWAP2 SUB SWAP1 LOG2 POP JUMP JUMPDEST PUSH1 0x5 PUSH0 CALLER PUSH20 0xFFFFFFFFFFFFFFFFFFFFFFFFFFFFFFFFFFFFFFFF AND PUSH20 0xFFFFFFFFFFFFFFFFFFFFFFFFFFFFFFFFFFFFFFFF AND DUP2 MSTORE PUSH1 0x20 ADD SWAP1 DUP2 MSTORE PUSH1 0x20 ADD PUSH0 KECCAK256 PUSH0 SWAP1 SLOAD SWAP1 PUSH2 0x100 EXP SWAP1 DIV PUSH1 0xFF AND PUSH2 0x740 JUMPI PUSH1 0x40 MLOAD PUSH32 0x8C379A000000000000000000000000000000000000000000000000000000000 DUP2 MSTORE PUSH1 0x4 ADD PUSH2 0x737 SWAP1 PUSH2 0xFFE JUMP JUMPDEST PUSH1 0x40 MLOAD DUP1 SWAP2 SUB SWAP1 REVERT JUMPDEST DUP1 PUSH1 0x3 PUSH0 DUP5 PUSH20 0xFFFFFFFFFFFFFFFFFFFFFFFFFFFFFFFFFFFFFFFF AND PUSH20 0xFFFFFFFFFFFFFFFFFFFFFFFFFFFFFFFFFFFFFFFF AND DUP2 MSTORE PUSH1 0x20 ADD SWAP1 DUP2 MSTORE PUSH1 0x20 ADD PUSH0 KECCAK256 PUSH0 DUP3 DUP3 SLOAD PUSH2 0x78C SWAP2 SWAP1 PUSH2 0xEB0 JUMP JUMPDEST SWAP3 POP POP DUP2 SWAP1 SSTORE POP DUP1 PUSH1 0x1 PUSH0 DUP3 DUP3 SLOAD PUSH2 0x7A4 SWAP2 SWAP1 PUSH2 0xEB0 JUMP JUMPDEST SWAP3 POP POP DUP2 SWAP1 SSTORE POP POP POP JUMP JUMPDEST PUSH0 PUSH1 0x1 SLOAD SWAP1 POP SWAP1 JUMP JUMPDEST PUSH0 PUSH1 0x3 PUSH0 DUP4 PUSH20 0xFFFFFFFFFFFFFFFFFFFFFFFFFFFFFFFFFFFFFFFF AND PUSH20 0xFFFFFFFFFFFFFFFFFFFFFFFFFFFFFFFFFFFFFFFF AND DUP2 MSTORE PUSH1 0x20 ADD SWAP1 DUP2 MSTORE PUSH1 0x20 ADD PUSH0 KECCAK256 SLOAD SWAP1 POP SWAP2 SWAP1 POP JUMP JUMPDEST PUSH0 DUP1 SLOAD SWAP1 PUSH2 0x100 EXP SWAP1 DIV PUSH20 0xFFFFFFFFFFFFFFFFFFFFFFFFFFFFFFFFFFFFFFFF AND PUSH20 0xFFFFFFFFFFFFFFFFFFFFFFFFFFFFFFFFFFFFFFFF AND CALLER PUSH20 0xFFFFFFFFFFFFFFFFFFFFFFFFFFFFFFFFFFFFFFFF AND EQ PUSH2 0x88B JUMPI PUSH1 0x40 MLOAD PUSH32 0x8C379A000000000000000000000000000000000000000000000000000000000 DUP2 MSTORE PUSH1 0x4 ADD PUSH2 0x882 SWAP1 PUSH2 0xF96 JUMP JUMPDEST PUSH1 0x40 MLOAD DUP1 SWAP2 SUB SWAP1 REVERT JUMPDEST PUSH1 0x1 PUSH1 0x5 PUSH0 DUP4 PUSH20 0xFFFFFFFFFFFFFFFFFFFFFFFFFFFFFFFFFFFFFFFF AND PUSH20 0xFFFFFFFFFFFFFFFFFFFFFFFFFFFFFFFFFFFFFFFF AND DUP2 MSTORE PUSH1 0x20 ADD SWAP1 DUP2 MSTORE PUSH1 0x20 ADD PUSH0 KECCAK256 PUSH0 PUSH2 0x100 EXP DUP2 SLOAD DUP2 PUSH1 0xFF MUL NOT AND SWAP1 DUP4 ISZERO ISZERO MUL OR SWAP1 SSTORE POP DUP1 PUSH20 0xFFFFFFFFFFFFFFFFFFFFFFFFFFFFFFFFFFFFFFFF AND PUSH32 0x6AE172837EA30B801FBFCDD4108AA1D5BF8FF775444FD70256B44E6BF3DFC3F6 PUSH1 0x40 MLOAD PUSH1 0x40 MLOAD DUP1 SWAP2 SUB SWAP1 LOG2 POP JUMP JUMPDEST PUSH1 0x5 PUSH0 CALLER PUSH20 0xFFFFFFFFFFFFFFFFFFFFFFFFFFFFFFFFFFFFFFFF AND PUSH20 0xFFFFFFFFFFFFFFFFFFFFFFFFFFFFFFFFFFFFFFFF AND DUP2 MSTORE PUSH1 0x20 ADD SWAP1 DUP2 MSTORE PUSH1 0x20 ADD PUSH0 KECCAK256 PUSH0 SWAP1 SLOAD SWAP1 PUSH2 0x100 EXP SWAP1 DIV PUSH1 0xFF AND PUSH2 0x9AF JUMPI PUSH1 0x40 MLOAD PUSH32 0x8C379A000000000000000000000000000000000000000000000000000000000 DUP2 MSTORE PUSH1 0x4 ADD PUSH2 0x9A6 SWAP1 PUSH2 0x1066 JUMP JUMPDEST PUSH1 0x40 MLOAD DUP1 SWAP2 SUB SWAP1 REVERT JUMPDEST DUP1 PUSH1 0x3 PUSH0 CALLER PUSH20 0xFFFFFFFFFFFFFFFFFFFFFFFFFFFFFFFFFFFFFFFF AND PUSH20 0xFFFFFFFFFFFFFFFFFFFFFFFFFFFFFFFFFFFFFFFF AND DUP2 MSTORE PUSH1 0x20 ADD SWAP1 DUP2 MSTORE PUSH1 0x20 ADD PUSH0 KECCAK256 PUSH0 DUP3 DUP3 SLOAD PUSH2 0x9FB SWAP2 SWAP1 PUSH2 0xEB0 JUMP JUMPDEST SWAP3 POP POP DUP2 SWAP1 SSTORE POP DUP1 PUSH1 0x1 PUSH0 DUP3 DUP3 SLOAD PUSH2 0xA13 SWAP2 SWAP1 PUSH2 0xEB0 JUMP JUMPDEST SWAP3 POP POP DUP2 SWAP1 SSTORE POP POP JUMP JUMPDEST PUSH0 PUSH1 0x3 PUSH0 CALLER PUSH20 0xFFFFFFFFFFFFFFFFFFFFFFFFFFFFFFFFFFFFFFFF AND PUSH20 0xFFFFFFFFFFFFFFFFFFFFFFFFFFFFFFFFFFFFFFFF AND DUP2 MSTORE PUSH1 0x20 ADD SWAP1 DUP2 MSTORE PUSH1 0x20 ADD PUSH0 KECCAK256 SLOAD DUP3 GT ISZERO PUSH2 0xA67 JUMPI PUSH0 DUP1 REVERT JUMPDEST DUP2 PUSH1 0x3 PUSH0 CALLER PUSH20 0xFFFFFFFFFFFFFFFFFFFFFFFFFFFFFFFFFFFFFFFF AND PUSH20 0xFFFFFFFFFFFFFFFFFFFFFFFFFFFFFFFFFFFFFFFF AND DUP2 MSTORE PUSH1 0x20 ADD SWAP1 DUP2 MSTORE PUSH1 0x20 ADD PUSH0 KECCAK256 SLOAD PUSH2 0xAB0 SWAP2 SWAP1 PUSH2 0xEE3 JUMP JUMPDEST PUSH1 0x3 PUSH0 CALLER PUSH20 0xFFFFFFFFFFFFFFFFFFFFFFFFFFFFFFFFFFFFFFFF AND PUSH20 0xFFFFFFFFFFFFFFFFFFFFFFFFFFFFFFFFFFFFFFFF AND DUP2 MSTORE PUSH1 0x20 ADD SWAP1 DUP2 MSTORE PUSH1 0x20 ADD PUSH0 KECCAK256 DUP2 SWAP1 SSTORE POP DUP2 PUSH1 0x3 PUSH0 DUP6 PUSH20 0xFFFFFFFFFFFFFFFFFFFFFFFFFFFFFFFFFFFFFFFF AND PUSH20 0xFFFFFFFFFFFFFFFFFFFFFFFFFFFFFFFFFFFFFFFF AND DUP2 MSTORE PUSH1 0x20 ADD SWAP1 DUP2 MSTORE PUSH1 0x20 ADD PUSH0 KECCAK256 SLOAD PUSH2 0xB3A SWAP2 SWAP1 PUSH2 0xEB0 JUMP JUMPDEST PUSH1 0x3 PUSH0 DUP6 PUSH20 0xFFFFFFFFFFFFFFFFFFFFFFFFFFFFFFFFFFFFFFFF AND PUSH20 0xFFFFFFFFFFFFFFFFFFFFFFFFFFFFFFFFFFFFFFFF AND DUP2 MSTORE PUSH1 0x20 ADD SWAP1 DUP2 MSTORE PUSH1 0x20 ADD PUSH0 KECCAK256 DUP2 SWAP1 SSTORE POP DUP3 PUSH20 0xFFFFFFFFFFFFFFFFFFFFFFFFFFFFFFFFFFFFFFFF AND CALLER PUSH20 0xFFFFFFFFFFFFFFFFFFFFFFFFFFFFFFFFFFFFFFFF AND PUSH32 0xDDF252AD1BE2C89B69C2B068FC378DAA952BA7F163C4A11628F55A4DF523B3EF DUP5 PUSH1 0x40 MLOAD PUSH2 0xBD8 SWAP2 SWAP1 PUSH2 0xE01 JUMP JUMPDEST PUSH1 0x40 MLOAD DUP1 SWAP2 SUB SWAP1 LOG3 PUSH1 0x1 SWAP1 POP SWAP3 SWAP2 POP POP JUMP JUMPDEST PUSH0 PUSH1 0x2 SLOAD SWAP1 POP SWAP1 JUMP JUMPDEST PUSH0 PUSH1 0x4 PUSH0 DUP5 PUSH20 0xFFFFFFFFFFFFFFFFFFFFFFFFFFFFFFFFFFFFFFFF AND PUSH20 0xFFFFFFFFFFFFFFFFFFFFFFFFFFFFFFFFFFFFFFFF AND DUP2 MSTORE PUSH1 0x20 ADD SWAP1 DUP2 MSTORE PUSH1 0x20 ADD PUSH0 KECCAK256 PUSH0 DUP4 PUSH20 0xFFFFFFFFFFFFFFFFFFFFFFFFFFFFFFFFFFFFFFFF AND PUSH20 0xFFFFFFFFFFFFFFFFFFFFFFFFFFFFFFFFFFFFFFFF AND DUP2 MSTORE PUSH1 0x20 ADD SWAP1 DUP2 MSTORE PUSH1 0x20 ADD PUSH0 KECCAK256 SLOAD SWAP1 POP SWAP3 SWAP2 POP POP JUMP JUMPDEST PUSH0 DUP1 REVERT JUMPDEST PUSH0 PUSH20 0xFFFFFFFFFFFFFFFFFFFFFFFFFFFFFFFFFFFFFFFF DUP3 AND SWAP1 POP SWAP2 SWAP1 POP JUMP JUMPDEST PUSH0 PUSH2 0xCA2 DUP3 PUSH2 0xC79 JUMP JUMPDEST SWAP1 POP SWAP2 SWAP1 POP JUMP JUMPDEST PUSH2 0xCB2 DUP2 PUSH2 0xC98 JUMP JUMPDEST DUP2 EQ PUSH2 0xCBC JUMPI PUSH0 DUP1 REVERT JUMPDEST POP JUMP JUMPDEST PUSH0 DUP2 CALLDATALOAD SWAP1 POP PUSH2 0xCCD DUP2 PUSH2 0xCA9 JUMP JUMPDEST SWAP3 SWAP2 POP POP JUMP JUMPDEST PUSH0 DUP2 SWAP1 POP SWAP2 SWAP1 POP JUMP JUMPDEST PUSH2 0xCE5 DUP2 PUSH2 0xCD3 JUMP JUMPDEST DUP2 EQ PUSH2 0xCEF JUMPI PUSH0 DUP1 REVERT JUMPDEST POP JUMP JUMPDEST PUSH0 DUP2 CALLDATALOAD SWAP1 POP PUSH2 0xD00 DUP2 PUSH2 0xCDC JUMP JUMPDEST SWAP3 SWAP2 POP POP JUMP JUMPDEST PUSH0 DUP1 PUSH1 0x40 DUP4 DUP6 SUB SLT ISZERO PUSH2 0xD1C JUMPI PUSH2 0xD1B PUSH2 0xC75 JUMP JUMPDEST JUMPDEST PUSH0 PUSH2 0xD29 DUP6 DUP3 DUP7 ADD PUSH2 0xCBF JUMP JUMPDEST SWAP3 POP POP PUSH1 0x20 PUSH2 0xD3A DUP6 DUP3 DUP7 ADD PUSH2 0xCF2 JUMP JUMPDEST SWAP2 POP POP SWAP3 POP SWAP3 SWAP1 POP JUMP JUMPDEST PUSH0 DUP2 ISZERO ISZERO SWAP1 POP SWAP2 SWAP1 POP JUMP JUMPDEST PUSH2 0xD58 DUP2 PUSH2 0xD44 JUMP JUMPDEST DUP3 MSTORE POP POP JUMP JUMPDEST PUSH0 PUSH1 0x20 DUP3 ADD SWAP1 POP PUSH2 0xD71 PUSH0 DUP4 ADD DUP5 PUSH2 0xD4F JUMP JUMPDEST SWAP3 SWAP2 POP POP JUMP JUMPDEST PUSH0 DUP1 PUSH0 PUSH1 0x60 DUP5 DUP7 SUB SLT ISZERO PUSH2 0xD8E JUMPI PUSH2 0xD8D PUSH2 0xC75 JUMP JUMPDEST JUMPDEST PUSH0 PUSH2 0xD9B DUP7 DUP3 DUP8 ADD PUSH2 0xCBF JUMP JUMPDEST SWAP4 POP POP PUSH1 0x20 PUSH2 0xDAC DUP7 DUP3 DUP8 ADD PUSH2 0xCBF JUMP JUMPDEST SWAP3 POP POP PUSH1 0x40 PUSH2 0xDBD DUP7 DUP3 DUP8 ADD PUSH2 0xCF2 JUMP JUMPDEST SWAP2 POP POP SWAP3 POP SWAP3 POP SWAP3 JUMP JUMPDEST PUSH0 PUSH1 0x20 DUP3 DUP5 SUB SLT ISZERO PUSH2 0xDDC JUMPI PUSH2 0xDDB PUSH2 0xC75 JUMP JUMPDEST JUMPDEST PUSH0 PUSH2 0xDE9 DUP5 DUP3 DUP6 ADD PUSH2 0xCBF JUMP JUMPDEST SWAP2 POP POP SWAP3 SWAP2 POP POP JUMP JUMPDEST PUSH2 0xDFB DUP2 PUSH2 0xCD3 JUMP JUMPDEST DUP3 MSTORE POP POP JUMP JUMPDEST PUSH0 PUSH1 0x20 DUP3 ADD SWAP1 POP PUSH2 0xE14 PUSH0 DUP4 ADD DUP5 PUSH2 0xDF2 JUMP JUMPDEST SWAP3 SWAP2 POP POP JUMP JUMPDEST PUSH0 PUSH1 0x20 DUP3 DUP5 SUB SLT ISZERO PUSH2 0xE2F JUMPI PUSH2 0xE2E PUSH2 0xC75 JUMP JUMPDEST JUMPDEST PUSH0 PUSH2 0xE3C DUP5 DUP3 DUP6 ADD PUSH2 0xCF2 JUMP JUMPDEST SWAP2 POP POP SWAP3 SWAP2 POP POP JUMP JUMPDEST PUSH0 DUP1 PUSH1 0x40 DUP4 DUP6 SUB SLT ISZERO PUSH2 0xE5B JUMPI PUSH2 0xE5A PUSH2 0xC75 JUMP JUMPDEST JUMPDEST PUSH0 PUSH2 0xE68 DUP6 DUP3 DUP7 ADD PUSH2 0xCBF JUMP JUMPDEST SWAP3 POP POP PUSH1 0x20 PUSH2 0xE79 DUP6 DUP3 DUP7 ADD PUSH2 0xCBF JUMP JUMPDEST SWAP2 POP POP SWAP3 POP SWAP3 SWAP1 POP JUMP JUMPDEST PUSH32 0x4E487B7100000000000000000000000000000000000000000000000000000000 PUSH0 MSTORE PUSH1 0x11 PUSH1 0x4 MSTORE PUSH1 0x24 PUSH0 REVERT JUMPDEST PUSH0 PUSH2 0xEBA DUP3 PUSH2 0xCD3 JUMP JUMPDEST SWAP2 POP PUSH2 0xEC5 DUP4 PUSH2 0xCD3 JUMP JUMPDEST SWAP3 POP DUP3 DUP3 ADD SWAP1 POP DUP1 DUP3 GT ISZERO PUSH2 0xEDD JUMPI PUSH2 0xEDC PUSH2 0xE83 JUMP JUMPDEST JUMPDEST SWAP3 SWAP2 POP POP JUMP JUMPDEST PUSH0 PUSH2 0xEED DUP3 PUSH2 0xCD3 JUMP JUMPDEST SWAP2 POP PUSH2 0xEF8 DUP4 PUSH2 0xCD3 JUMP JUMPDEST SWAP3 POP DUP3 DUP3 SUB SWAP1 POP DUP2 DUP2 GT ISZERO PUSH2 0xF10 JUMPI PUSH2 0xF0F PUSH2 0xE83 JUMP JUMPDEST JUMPDEST SWAP3 SWAP2 POP POP JUMP JUMPDEST PUSH0 DUP3 DUP3 MSTORE PUSH1 0x20 DUP3 ADD SWAP1 POP SWAP3 SWAP2 POP POP JUMP JUMPDEST PUSH32 0x4F6E6C79206F776E65722063616E20706572666F726D20746869732061637469 PUSH0 DUP3 ADD MSTORE PUSH32 0x6F6E000000000000000000000000000000000000000000000000000000000000 PUSH1 0x20 DUP3 ADD MSTORE POP JUMP JUMPDEST PUSH0 PUSH2 0xF80 PUSH1 0x22 DUP4 PUSH2 0xF16 JUMP JUMPDEST SWAP2 POP PUSH2 0xF8B DUP3 PUSH2 0xF26 JUMP JUMPDEST PUSH1 0x40 DUP3 ADD SWAP1 POP SWAP2 SWAP1 POP JUMP JUMPDEST PUSH0 PUSH1 0x20 DUP3 ADD SWAP1 POP DUP2 DUP2 SUB PUSH0 DUP4 ADD MSTORE PUSH2 0xFAD DUP2 PUSH2 0xF74 JUMP JUMPDEST SWAP1 POP SWAP2 SWAP1 POP JUMP JUMPDEST PUSH32 0x43616C6C6572206973206E6F7420617574686F72697A656420746F206D696E74 PUSH0 DUP3 ADD MSTORE POP JUMP JUMPDEST PUSH0 PUSH2 0xFE8 PUSH1 0x20 DUP4 PUSH2 0xF16 JUMP JUMPDEST SWAP2 POP PUSH2 0xFF3 DUP3 PUSH2 0xFB4 JUMP JUMPDEST PUSH1 0x20 DUP3 ADD SWAP1 POP SWAP2 SWAP1 POP JUMP JUMPDEST PUSH0 PUSH1 0x20 DUP3 ADD SWAP1 POP DUP2 DUP2 SUB PUSH0 DUP4 ADD MSTORE PUSH2 0x1015 DUP2 PUSH2 0xFDC JUMP JUMPDEST SWAP1 POP SWAP2 SWAP1 POP JUMP JUMPDEST PUSH32 0x43616C6C6572206973206E6F742061206D696E74657200000000000000000000 PUSH0 DUP3 ADD MSTORE POP JUMP JUMPDEST PUSH0 PUSH2 0x1050 PUSH1 0x16 DUP4 PUSH2 0xF16 JUMP JUMPDEST SWAP2 POP PUSH2 0x105B DUP3 PUSH2 0x101C JUMP JUMPDEST PUSH1 0x20 DUP3 ADD SWAP1 POP SWAP2 SWAP1 POP JUMP JUMPDEST PUSH0 PUSH1 0x20 DUP3 ADD SWAP1 POP DUP2 DUP2 SUB PUSH0 DUP4 ADD MSTORE PUSH2 0x107D DUP2 PUSH2 0x1044 JUMP JUMPDEST SWAP1 POP SWAP2 SWAP1 POP JUMP INVALID LOG2 PUSH5 0x6970667358 0x22 SLT KECCAK256 0xBA ORIGIN DUP13 EXTCODECOPY XOR SWAP13 MULMOD MOD PUSH5 0xAB3AB1F840 JUMP 0xDD DUP4 PUSH27 0x491BF27EA655D08BF9684DA58AD364736F6C634300081700330000 "
				},
				"gasEstimates": {
					"creation": {
						"codeDepositCost": "856400",
						"executionCost": "78769",
						"totalCost": "935169"
					},
					"external": {
						"addMinter(address)": "28152",
						"allowance(address,address)": "infinite",
						"approve(address,uint256)": "infinite",
						"balanceOf(address)": "2829",
						"getCurrentSupply()": "2521",
						"getTotalSupply()": "2520",
						"mint(uint256)": "infinite",
						"mintTo(address,uint256)": "infinite",
						"removeMinter(address)": "28174",
						"transfer(address,uint256)": "infinite",
						"transferFrom(address,address,uint256)": "infinite"
					}
				},
				"methodIdentifiers": {
					"addMinter(address)": "983b2d56",
					"allowance(address,address)": "dd62ed3e",
					"approve(address,uint256)": "095ea7b3",
					"balanceOf(address)": "70a08231",
					"getCurrentSupply()": "4f3e1efc",
					"getTotalSupply()": "c4e41b22",
					"mint(uint256)": "a0712d68",
					"mintTo(address,uint256)": "449a52f8",
					"removeMinter(address)": "3092afd5",
					"transfer(address,uint256)": "a9059cbb",
					"transferFrom(address,address,uint256)": "23b872dd"
				}
			},
			"storageLayout": {
				"storage": [
					{
						"astId": 3,
						"contract": "contracts/CRI.sol:Token",
						"label": "owner",
						"offset": 0,
						"slot": "0",
						"type": "t_address"
					},
					{
						"astId": 5,
						"contract": "contracts/CRI.sol:Token",
						"label": "currentSupply",
						"offset": 0,
						"slot": "1",
						"type": "t_uint256"
					},
					{
						"astId": 7,
						"contract": "contracts/CRI.sol:Token",
						"label": "totalSupply",
						"offset": 0,
						"slot": "2",
						"type": "t_uint256"
					},
					{
						"astId": 11,
						"contract": "contracts/CRI.sol:Token",
						"label": "balances",
						"offset": 0,
						"slot": "3",
						"type": "t_mapping(t_address,t_uint256)"
					},
					{
						"astId": 17,
						"contract": "contracts/CRI.sol:Token",
						"label": "allowed",
						"offset": 0,
						"slot": "4",
						"type": "t_mapping(t_address,t_mapping(t_address,t_uint256))"
					},
					{
						"astId": 21,
						"contract": "contracts/CRI.sol:Token",
						"label": "isMinter",
						"offset": 0,
						"slot": "5",
						"type": "t_mapping(t_address,t_bool)"
					}
				],
				"types": {
					"t_address": {
						"encoding": "inplace",
						"label": "address",
						"numberOfBytes": "20"
					},
					"t_bool": {
						"encoding": "inplace",
						"label": "bool",
						"numberOfBytes": "1"
					},
					"t_mapping(t_address,t_bool)": {
						"encoding": "mapping",
						"key": "t_address",
						"label": "mapping(address => bool)",
						"numberOfBytes": "32",
						"value": "t_bool"
					},
					"t_mapping(t_address,t_mapping(t_address,t_uint256))": {
						"encoding": "mapping",
						"key": "t_address",
						"label": "mapping(address => mapping(address => uint256))",
						"numberOfBytes": "32",
						"value": "t_mapping(t_address,t_uint256)"
					},
					"t_mapping(t_address,t_uint256)": {
						"encoding": "mapping",
						"key": "t_address",
						"label": "mapping(address => uint256)",
						"numberOfBytes": "32",
						"value": "t_uint256"
					},
					"t_uint256": {
						"encoding": "inplace",
						"label": "uint256",
						"numberOfBytes": "32"
					}
				}
			},
			"userdoc": {
				"kind": "user",
				"methods": {},
				"version": 1
			}
		}
	}
}