{
	"data": {
		"bytecode": {
			"linkReferences": {},
			"object": "608060405260015f55348015610013575f80fd5b50611118806100215f395ff3fe608060405234801561000f575f80fd5b506004361061007b575f3560e01c80636f20d021116100595780636f20d02114610117578063a48e438e14610147578063b6654d8c14610163578063bc0167cd146101935761007b565b8063117a5b901461007f5780631b91e3a3146100b457806326476204146100e7575b5f80fd5b61009960048036038101906100949190610882565b6101c3565b6040516100ab96959493929190610985565b60405180910390f35b6100ce60048036038101906100c99190610a23565b6103ac565b6040516100de9493929190610a7b565b60405180910390f35b61010160048036038101906100fc9190610abe565b6103fc565b60405161010e9190610ae9565b60405180910390f35b610131600480360381019061012c9190610a23565b610411565b60405161013e9190610b02565b60405180910390f35b610161600480360381019061015c9190610c47565b6104c2565b005b61017d60048036038101906101789190610cff565b61067b565b60405161018a9190610ae9565b60405180910390f35b6101ad60048036038101906101a89190610cff565b6106a6565b6040516101ba9190610ae9565b60405180910390f35b6001602052805f5260405f205f91509050805f0180546101e290610d6a565b80601f016020809104026020016040519081016040528092919081815260200182805461020e90610d6a565b80156102595780601f1061023057610100808354040283529160200191610259565b820191905f5260205f20905b81548152906001019060200180831161023c57829003601f168201915b50505050509080600101805461026e90610d6a565b80601f016020809104026020016040519081016040528092919081815260200182805461029a90610d6a565b80156102e55780601f106102bc576101008083540402835291602001916102e5565b820191905f5260205f20905b8154815290600101906020018083116102c857829003601f168201915b5050505050908060020180546102fa90610d6a565b80601f016020809104026020016040519081016040528092919081815260200182805461032690610d6a565b80156103715780601f1061034857610100808354040283529160200191610371565b820191905f5260205f20905b81548152906001019060200180831161035457829003601f168201915b505050505090806003015f9054906101000a900473ffffffffffffffffffffffffffffffffffffffff16908060040154908060050154905086565b6002602052815f5260405f20602052805f5260405f205f9150915050805f015490806001015f9054906101000a900460ff16908060010160019054906101000a900460ff16908060020154905084565b6005602052805f5260405f205f915090505481565b5f8060025f8581526020019081526020015f205f8473ffffffffffffffffffffffffffffffffffffffff1673ffffffffffffffffffffffffffffffffffffffff1681526020019081526020015f206040518060800160405290815f8201548152602001600182015f9054906101000a900460ff161515151581526020016001820160019054906101000a900460ff161515151581526020016002820154815250509050806020015191505092915050565b6104cb336106d1565b61050a576040517f08c379a000000000000000000000000000000000000000000000000000000000815260040161050190610de4565b60405180910390fd5b6040518060c001604052808581526020018481526020018381526020013373ffffffffffffffffffffffffffffffffffffffff168152602001828152602001600181525060015f805481526020019081526020015f205f820151815f0190816105739190610f9f565b5060208201518160010190816105899190610f9f565b50604082015181600201908161059f9190610f9f565b506060820151816003015f6101000a81548173ffffffffffffffffffffffffffffffffffffffff021916908373ffffffffffffffffffffffffffffffffffffffff1602179055506080820151816004015560a0820151816005015590505060045f3373ffffffffffffffffffffffffffffffffffffffff1673ffffffffffffffffffffffffffffffffffffffff1681526020019081526020015f205f54908060018154018082558091505060019003905f5260205f20015f90919091909150555f808154809291906106709061109b565b919050555050505050565b6004602052815f5260405f208181548110610694575f80fd5b905f5260205f20015f91509150505481565b6003602052815f5260405f2081815481106106bf575f80fd5b905f5260205f20015f91509150505481565b5f600360045f8473ffffffffffffffffffffffffffffffffffffffff1673ffffffffffffffffffffffffffffffffffffffff1681526020019081526020015f2080549050101561076357606460055f8473ffffffffffffffffffffffffffffffffffffffff1673ffffffffffffffffffffffffffffffffffffffff1681526020019081526020015f2054119050610839565b600860045f8473ffffffffffffffffffffffffffffffffffffffff1673ffffffffffffffffffffffffffffffffffffffff1681526020019081526020015f208054905010156107f45760c860055f8473ffffffffffffffffffffffffffffffffffffffff1673ffffffffffffffffffffffffffffffffffffffff1681526020019081526020015f2054119050610839565b6101f460055f8473ffffffffffffffffffffffffffffffffffffffff1673ffffffffffffffffffffffffffffffffffffffff1681526020019081526020015f20541190505b919050565b5f604051905090565b5f80fd5b5f80fd5b5f819050919050565b6108618161084f565b811461086b575f80fd5b50565b5f8135905061087c81610858565b92915050565b5f6020828403121561089757610896610847565b5b5f6108a48482850161086e565b91505092915050565b5f81519050919050565b5f82825260208201905092915050565b5f5b838110156108e45780820151818401526020810190506108c9565b5f8484015250505050565b5f601f19601f8301169050919050565b5f610909826108ad565b61091381856108b7565b93506109238185602086016108c7565b61092c816108ef565b840191505092915050565b5f73ffffffffffffffffffffffffffffffffffffffff82169050919050565b5f61096082610937565b9050919050565b61097081610956565b82525050565b61097f8161084f565b82525050565b5f60c0820190508181035f83015261099d81896108ff565b905081810360208301526109b181886108ff565b905081810360408301526109c581876108ff565b90506109d46060830186610967565b6109e16080830185610976565b6109ee60a0830184610976565b979650505050505050565b610a0281610956565b8114610a0c575f80fd5b50565b5f81359050610a1d816109f9565b92915050565b5f8060408385031215610a3957610a38610847565b5b5f610a468582860161086e565b9250506020610a5785828601610a0f565b9150509250929050565b5f8115159050919050565b610a7581610a61565b82525050565b5f608082019050610a8e5f830187610976565b610a9b6020830186610a6c565b610aa86040830185610a6c565b610ab56060830184610976565b95945050505050565b5f60208284031215610ad357610ad2610847565b5b5f610ae084828501610a0f565b91505092915050565b5f602082019050610afc5f830184610976565b92915050565b5f602082019050610b155f830184610a6c565b92915050565b5f80fd5b5f80fd5b7f4e487b71000000000000000000000000000000000000000000000000000000005f52604160045260245ffd5b610b59826108ef565b810181811067ffffffffffffffff82111715610b7857610b77610b23565b5b80604052505050565b5f610b8a61083e565b9050610b968282610b50565b919050565b5f67ffffffffffffffff821115610bb557610bb4610b23565b5b610bbe826108ef565b9050602081019050919050565b828183375f83830152505050565b5f610beb610be684610b9b565b610b81565b905082815260208101848484011115610c0757610c06610b1f565b5b610c12848285610bcb565b509392505050565b5f82601f830112610c2e57610c2d610b1b565b5b8135610c3e848260208601610bd9565b91505092915050565b5f805f8060808587031215610c5f57610c5e610847565b5b5f85013567ffffffffffffffff811115610c7c57610c7b61084b565b5b610c8887828801610c1a565b945050602085013567ffffffffffffffff811115610ca957610ca861084b565b5b610cb587828801610c1a565b935050604085013567ffffffffffffffff811115610cd657610cd561084b565b5b610ce287828801610c1a565b9250506060610cf38782880161086e565b91505092959194509250565b5f8060408385031215610d1557610d14610847565b5b5f610d2285828601610a0f565b9250506020610d338582860161086e565b9150509250929050565b7f4e487b71000000000000000000000000000000000000000000000000000000005f52602260045260245ffd5b5f6002820490506001821680610d8157607f821691505b602082108103610d9457610d93610d3d565b5b50919050565b7f496e73756666696369656e74207374616b652e000000000000000000000000005f82015250565b5f610dce6013836108b7565b9150610dd982610d9a565b602082019050919050565b5f6020820190508181035f830152610dfb81610dc2565b9050919050565b5f819050815f5260205f209050919050565b5f6020601f8301049050919050565b5f82821b905092915050565b5f60088302610e5e7fffffffffffffffffffffffffffffffffffffffffffffffffffffffffffffffff82610e23565b610e688683610e23565b95508019841693508086168417925050509392505050565b5f819050919050565b5f610ea3610e9e610e998461084f565b610e80565b61084f565b9050919050565b5f819050919050565b610ebc83610e89565b610ed0610ec882610eaa565b848454610e2f565b825550505050565b5f90565b610ee4610ed8565b610eef818484610eb3565b505050565b5b81811015610f1257610f075f82610edc565b600181019050610ef5565b5050565b601f821115610f5757610f2881610e02565b610f3184610e14565b81016020851015610f40578190505b610f54610f4c85610e14565b830182610ef4565b50505b505050565b5f82821c905092915050565b5f610f775f1984600802610f5c565b1980831691505092915050565b5f610f8f8383610f68565b9150826002028217905092915050565b610fa8826108ad565b67ffffffffffffffff811115610fc157610fc0610b23565b5b610fcb8254610d6a565b610fd6828285610f16565b5f60209050601f831160018114611007575f8415610ff5578287015190505b610fff8582610f84565b865550611066565b601f19841661101586610e02565b5f5b8281101561103c57848901518255600182019150602085019450602081019050611017565b868310156110595784890151611055601f891682610f68565b8355505b6001600288020188555050505b505050505050565b7f4e487b71000000000000000000000000000000000000000000000000000000005f52601160045260245ffd5b5f6110a58261084f565b91507fffffffffffffffffffffffffffffffffffffffffffffffffffffffffffffffff82036110d7576110d661106e565b5b60018201905091905056fea2646970667358221220f3826f259adc05539ccf2e3c70d6bd72e6ed15d2eee5c36e65e8884538020fef64736f6c63430008160033",
			"opcodes": "PUSH1 0x80 PUSH1 0x40 MSTORE PUSH1 0x1 PUSH0 SSTORE CALLVALUE DUP1 ISZERO PUSH2 0x13 JUMPI PUSH0 DUP1 REVERT JUMPDEST POP PUSH2 0x1118 DUP1 PUSH2 0x21 PUSH0 CODECOPY PUSH0 RETURN INVALID PUSH1 0x80 PUSH1 0x40 MSTORE CALLVALUE DUP1 ISZERO PUSH2 0xF JUMPI PUSH0 DUP1 REVERT JUMPDEST POP PUSH1 0x4 CALLDATASIZE LT PUSH2 0x7B JUMPI PUSH0 CALLDATALOAD PUSH1 0xE0 SHR DUP1 PUSH4 0x6F20D021 GT PUSH2 0x59 JUMPI DUP1 PUSH4 0x6F20D021 EQ PUSH2 0x117 JUMPI DUP1 PUSH4 0xA48E438E EQ PUSH2 0x147 JUMPI DUP1 PUSH4 0xB6654D8C EQ PUSH2 0x163 JUMPI DUP1 PUSH4 0xBC0167CD EQ PUSH2 0x193 JUMPI PUSH2 0x7B JUMP JUMPDEST DUP1 PUSH4 0x117A5B90 EQ PUSH2 0x7F JUMPI DUP1 PUSH4 0x1B91E3A3 EQ PUSH2 0xB4 JUMPI DUP1 PUSH4 0x26476204 EQ PUSH2 0xE7 JUMPI JUMPDEST PUSH0 DUP1 REVERT JUMPDEST PUSH2 0x99 PUSH1 0x4 DUP1 CALLDATASIZE SUB DUP2 ADD SWAP1 PUSH2 0x94 SWAP2 SWAP1 PUSH2 0x882 JUMP JUMPDEST PUSH2 0x1C3 JUMP JUMPDEST PUSH1 0x40 MLOAD PUSH2 0xAB SWAP7 SWAP6 SWAP5 SWAP4 SWAP3 SWAP2 SWAP1 PUSH2 0x985 JUMP JUMPDEST PUSH1 0x40 MLOAD DUP1 SWAP2 SUB SWAP1 RETURN JUMPDEST PUSH2 0xCE PUSH1 0x4 DUP1 CALLDATASIZE SUB DUP2 ADD SWAP1 PUSH2 0xC9 SWAP2 SWAP1 PUSH2 0xA23 JUMP JUMPDEST PUSH2 0x3AC JUMP JUMPDEST PUSH1 0x40 MLOAD PUSH2 0xDE SWAP5 SWAP4 SWAP3 SWAP2 SWAP1 PUSH2 0xA7B JUMP JUMPDEST PUSH1 0x40 MLOAD DUP1 SWAP2 SUB SWAP1 RETURN JUMPDEST PUSH2 0x101 PUSH1 0x4 DUP1 CALLDATASIZE SUB DUP2 ADD SWAP1 PUSH2 0xFC SWAP2 SWAP1 PUSH2 0xABE JUMP JUMPDEST PUSH2 0x3FC JUMP JUMPDEST PUSH1 0x40 MLOAD PUSH2 0x10E SWAP2 SWAP1 PUSH2 0xAE9 JUMP JUMPDEST PUSH1 0x40 MLOAD DUP1 SWAP2 SUB SWAP1 RETURN JUMPDEST PUSH2 0x131 PUSH1 0x4 DUP1 CALLDATASIZE SUB DUP2 ADD SWAP1 PUSH2 0x12C SWAP2 SWAP1 PUSH2 0xA23 JUMP JUMPDEST PUSH2 0x411 JUMP JUMPDEST PUSH1 0x40 MLOAD PUSH2 0x13E SWAP2 SWAP1 PUSH2 0xB02 JUMP JUMPDEST PUSH1 0x40 MLOAD DUP1 SWAP2 SUB SWAP1 RETURN JUMPDEST PUSH2 0x161 PUSH1 0x4 DUP1 CALLDATASIZE SUB DUP2 ADD SWAP1 PUSH2 0x15C SWAP2 SWAP1 PUSH2 0xC47 JUMP JUMPDEST PUSH2 0x4C2 JUMP JUMPDEST STOP JUMPDEST PUSH2 0x17D PUSH1 0x4 DUP1 CALLDATASIZE SUB DUP2 ADD SWAP1 PUSH2 0x178 SWAP2 SWAP1 PUSH2 0xCFF JUMP JUMPDEST PUSH2 0x67B JUMP JUMPDEST PUSH1 0x40 MLOAD PUSH2 0x18A SWAP2 SWAP1 PUSH2 0xAE9 JUMP JUMPDEST PUSH1 0x40 MLOAD DUP1 SWAP2 SUB SWAP1 RETURN JUMPDEST PUSH2 0x1AD PUSH1 0x4 DUP1 CALLDATASIZE SUB DUP2 ADD SWAP1 PUSH2 0x1A8 SWAP2 SWAP1 PUSH2 0xCFF JUMP JUMPDEST PUSH2 0x6A6 JUMP JUMPDEST PUSH1 0x40 MLOAD PUSH2 0x1BA SWAP2 SWAP1 PUSH2 0xAE9 JUMP JUMPDEST PUSH1 0x40 MLOAD DUP1 SWAP2 SUB SWAP1 RETURN JUMPDEST PUSH1 0x1 PUSH1 0x20 MSTORE DUP1 PUSH0 MSTORE PUSH1 0x40 PUSH0 KECCAK256 PUSH0 SWAP2 POP SWAP1 POP DUP1 PUSH0 ADD DUP1 SLOAD PUSH2 0x1E2 SWAP1 PUSH2 0xD6A JUMP JUMPDEST DUP1 PUSH1 0x1F ADD PUSH1 0x20 DUP1 SWAP2 DIV MUL PUSH1 0x20 ADD PUSH1 0x40 MLOAD SWAP1 DUP2 ADD PUSH1 0x40 MSTORE DUP1 SWAP3 SWAP2 SWAP1 DUP2 DUP2 MSTORE PUSH1 0x20 ADD DUP3 DUP1 SLOAD PUSH2 0x20E SWAP1 PUSH2 0xD6A JUMP JUMPDEST DUP1 ISZERO PUSH2 0x259 JUMPI DUP1 PUSH1 0x1F LT PUSH2 0x230 JUMPI PUSH2 0x100 DUP1 DUP4 SLOAD DIV MUL DUP4 MSTORE SWAP2 PUSH1 0x20 ADD SWAP2 PUSH2 0x259 JUMP JUMPDEST DUP3 ADD SWAP2 SWAP1 PUSH0 MSTORE PUSH1 0x20 PUSH0 KECCAK256 SWAP1 JUMPDEST DUP2 SLOAD DUP2 MSTORE SWAP1 PUSH1 0x1 ADD SWAP1 PUSH1 0x20 ADD DUP1 DUP4 GT PUSH2 0x23C JUMPI DUP3 SWAP1 SUB PUSH1 0x1F AND DUP3 ADD SWAP2 JUMPDEST POP POP POP POP POP SWAP1 DUP1 PUSH1 0x1 ADD DUP1 SLOAD PUSH2 0x26E SWAP1 PUSH2 0xD6A JUMP JUMPDEST DUP1 PUSH1 0x1F ADD PUSH1 0x20 DUP1 SWAP2 DIV MUL PUSH1 0x20 ADD PUSH1 0x40 MLOAD SWAP1 DUP2 ADD PUSH1 0x40 MSTORE DUP1 SWAP3 SWAP2 SWAP1 DUP2 DUP2 MSTORE PUSH1 0x20 ADD DUP3 DUP1 SLOAD PUSH2 0x29A SWAP1 PUSH2 0xD6A JUMP JUMPDEST DUP1 ISZERO PUSH2 0x2E5 JUMPI DUP1 PUSH1 0x1F LT PUSH2 0x2BC JUMPI PUSH2 0x100 DUP1 DUP4 SLOAD DIV MUL DUP4 MSTORE SWAP2 PUSH1 0x20 ADD SWAP2 PUSH2 0x2E5 JUMP JUMPDEST DUP3 ADD SWAP2 SWAP1 PUSH0 MSTORE PUSH1 0x20 PUSH0 KECCAK256 SWAP1 JUMPDEST DUP2 SLOAD DUP2 MSTORE SWAP1 PUSH1 0x1 ADD SWAP1 PUSH1 0x20 ADD DUP1 DUP4 GT PUSH2 0x2C8 JUMPI DUP3 SWAP1 SUB PUSH1 0x1F AND DUP3 ADD SWAP2 JUMPDEST POP POP POP POP POP SWAP1 DUP1 PUSH1 0x2 ADD DUP1 SLOAD PUSH2 0x2FA SWAP1 PUSH2 0xD6A JUMP JUMPDEST DUP1 PUSH1 0x1F ADD PUSH1 0x20 DUP1 SWAP2 DIV MUL PUSH1 0x20 ADD PUSH1 0x40 MLOAD SWAP1 DUP2 ADD PUSH1 0x40 MSTORE DUP1 SWAP3 SWAP2 SWAP1 DUP2 DUP2 MSTORE PUSH1 0x20 ADD DUP3 DUP1 SLOAD PUSH2 0x326 SWAP1 PUSH2 0xD6A JUMP JUMPDEST DUP1 ISZERO PUSH2 0x371 JUMPI DUP1 PUSH1 0x1F LT PUSH2 0x348 JUMPI PUSH2 0x100 DUP1 DUP4 SLOAD DIV MUL DUP4 MSTORE SWAP2 PUSH1 0x20 ADD SWAP2 PUSH2 0x371 JUMP JUMPDEST DUP3 ADD SWAP2 SWAP1 PUSH0 MSTORE PUSH1 0x20 PUSH0 KECCAK256 SWAP1 JUMPDEST DUP2 SLOAD DUP2 MSTORE SWAP1 PUSH1 0x1 ADD SWAP1 PUSH1 0x20 ADD DUP1 DUP4 GT PUSH2 0x354 JUMPI DUP3 SWAP1 SUB PUSH1 0x1F AND DUP3 ADD SWAP2 JUMPDEST POP POP POP POP POP SWAP1 DUP1 PUSH1 0x3 ADD PUSH0 SWAP1 SLOAD SWAP1 PUSH2 0x100 EXP SWAP1 DIV PUSH20 0xFFFFFFFFFFFFFFFFFFFFFFFFFFFFFFFFFFFFFFFF AND SWAP1 DUP1 PUSH1 0x4 ADD SLOAD SWAP1 DUP1 PUSH1 0x5 ADD SLOAD SWAP1 POP DUP7 JUMP JUMPDEST PUSH1 0x2 PUSH1 0x20 MSTORE DUP2 PUSH0 MSTORE PUSH1 0x40 PUSH0 KECCAK256 PUSH1 0x20 MSTORE DUP1 PUSH0 MSTORE PUSH1 0x40 PUSH0 KECCAK256 PUSH0 SWAP2 POP SWAP2 POP POP DUP1 PUSH0 ADD SLOAD SWAP1 DUP1 PUSH1 0x1 ADD PUSH0 SWAP1 SLOAD SWAP1 PUSH2 0x100 EXP SWAP1 DIV PUSH1 0xFF AND SWAP1 DUP1 PUSH1 0x1 ADD PUSH1 0x1 SWAP1 SLOAD SWAP1 PUSH2 0x100 EXP SWAP1 DIV PUSH1 0xFF AND SWAP1 DUP1 PUSH1 0x2 ADD SLOAD SWAP1 POP DUP5 JUMP JUMPDEST PUSH1 0x5 PUSH1 0x20 MSTORE DUP1 PUSH0 MSTORE PUSH1 0x40 PUSH0 KECCAK256 PUSH0 SWAP2 POP SWAP1 POP SLOAD DUP2 JUMP JUMPDEST PUSH0 DUP1 PUSH1 0x2 PUSH0 DUP6 DUP2 MSTORE PUSH1 0x20 ADD SWAP1 DUP2 MSTORE PUSH1 0x20 ADD PUSH0 KECCAK256 PUSH0 DUP5 PUSH20 0xFFFFFFFFFFFFFFFFFFFFFFFFFFFFFFFFFFFFFFFF AND PUSH20 0xFFFFFFFFFFFFFFFFFFFFFFFFFFFFFFFFFFFFFFFF AND DUP2 MSTORE PUSH1 0x20 ADD SWAP1 DUP2 MSTORE PUSH1 0x20 ADD PUSH0 KECCAK256 PUSH1 0x40 MLOAD DUP1 PUSH1 0x80 ADD PUSH1 0x40 MSTORE SWAP1 DUP2 PUSH0 DUP3 ADD SLOAD DUP2 MSTORE PUSH1 0x20 ADD PUSH1 0x1 DUP3 ADD PUSH0 SWAP1 SLOAD SWAP1 PUSH2 0x100 EXP SWAP1 DIV PUSH1 0xFF AND ISZERO ISZERO ISZERO ISZERO DUP2 MSTORE PUSH1 0x20 ADD PUSH1 0x1 DUP3 ADD PUSH1 0x1 SWAP1 SLOAD SWAP1 PUSH2 0x100 EXP SWAP1 DIV PUSH1 0xFF AND ISZERO ISZERO ISZERO ISZERO DUP2 MSTORE PUSH1 0x20 ADD PUSH1 0x2 DUP3 ADD SLOAD DUP2 MSTORE POP POP SWAP1 POP DUP1 PUSH1 0x20 ADD MLOAD SWAP2 POP POP SWAP3 SWAP2 POP POP JUMP JUMPDEST PUSH2 0x4CB CALLER PUSH2 0x6D1 JUMP JUMPDEST PUSH2 0x50A JUMPI PUSH1 0x40 MLOAD PUSH32 0x8C379A000000000000000000000000000000000000000000000000000000000 DUP2 MSTORE PUSH1 0x4 ADD PUSH2 0x501 SWAP1 PUSH2 0xDE4 JUMP JUMPDEST PUSH1 0x40 MLOAD DUP1 SWAP2 SUB SWAP1 REVERT JUMPDEST PUSH1 0x40 MLOAD DUP1 PUSH1 0xC0 ADD PUSH1 0x40 MSTORE DUP1 DUP6 DUP2 MSTORE PUSH1 0x20 ADD DUP5 DUP2 MSTORE PUSH1 0x20 ADD DUP4 DUP2 MSTORE PUSH1 0x20 ADD CALLER PUSH20 0xFFFFFFFFFFFFFFFFFFFFFFFFFFFFFFFFFFFFFFFF AND DUP2 MSTORE PUSH1 0x20 ADD DUP3 DUP2 MSTORE PUSH1 0x20 ADD PUSH1 0x1 DUP2 MSTORE POP PUSH1 0x1 PUSH0 DUP1 SLOAD DUP2 MSTORE PUSH1 0x20 ADD SWAP1 DUP2 MSTORE PUSH1 0x20 ADD PUSH0 KECCAK256 PUSH0 DUP3 ADD MLOAD DUP2 PUSH0 ADD SWAP1 DUP2 PUSH2 0x573 SWAP2 SWAP1 PUSH2 0xF9F JUMP JUMPDEST POP PUSH1 0x20 DUP3 ADD MLOAD DUP2 PUSH1 0x1 ADD SWAP1 DUP2 PUSH2 0x589 SWAP2 SWAP1 PUSH2 0xF9F JUMP JUMPDEST POP PUSH1 0x40 DUP3 ADD MLOAD DUP2 PUSH1 0x2 ADD SWAP1 DUP2 PUSH2 0x59F SWAP2 SWAP1 PUSH2 0xF9F JUMP JUMPDEST POP PUSH1 0x60 DUP3 ADD MLOAD DUP2 PUSH1 0x3 ADD PUSH0 PUSH2 0x100 EXP DUP2 SLOAD DUP2 PUSH20 0xFFFFFFFFFFFFFFFFFFFFFFFFFFFFFFFFFFFFFFFF MUL NOT AND SWAP1 DUP4 PUSH20 0xFFFFFFFFFFFFFFFFFFFFFFFFFFFFFFFFFFFFFFFF AND MUL OR SWAP1 SSTORE POP PUSH1 0x80 DUP3 ADD MLOAD DUP2 PUSH1 0x4 ADD SSTORE PUSH1 0xA0 DUP3 ADD MLOAD DUP2 PUSH1 0x5 ADD SSTORE SWAP1 POP POP PUSH1 0x4 PUSH0 CALLER PUSH20 0xFFFFFFFFFFFFFFFFFFFFFFFFFFFFFFFFFFFFFFFF AND PUSH20 0xFFFFFFFFFFFFFFFFFFFFFFFFFFFFFFFFFFFFFFFF AND DUP2 MSTORE PUSH1 0x20 ADD SWAP1 DUP2 MSTORE PUSH1 0x20 ADD PUSH0 KECCAK256 PUSH0 SLOAD SWAP1 DUP1 PUSH1 0x1 DUP2 SLOAD ADD DUP1 DUP3 SSTORE DUP1 SWAP2 POP POP PUSH1 0x1 SWAP1 SUB SWAP1 PUSH0 MSTORE PUSH1 0x20 PUSH0 KECCAK256 ADD PUSH0 SWAP1 SWAP2 SWAP1 SWAP2 SWAP1 SWAP2 POP SSTORE PUSH0 DUP1 DUP2 SLOAD DUP1 SWAP3 SWAP2 SWAP1 PUSH2 0x670 SWAP1 PUSH2 0x109B JUMP JUMPDEST SWAP2 SWAP1 POP SSTORE POP POP POP POP POP JUMP JUMPDEST PUSH1 0x4 PUSH1 0x20 MSTORE DUP2 PUSH0 MSTORE PUSH1 0x40 PUSH0 KECCAK256 DUP2 DUP2 SLOAD DUP2 LT PUSH2 0x694 JUMPI PUSH0 DUP1 REVERT JUMPDEST SWAP1 PUSH0 MSTORE PUSH1 0x20 PUSH0 KECCAK256 ADD PUSH0 SWAP2 POP SWAP2 POP POP SLOAD DUP2 JUMP JUMPDEST PUSH1 0x3 PUSH1 0x20 MSTORE DUP2 PUSH0 MSTORE PUSH1 0x40 PUSH0 KECCAK256 DUP2 DUP2 SLOAD DUP2 LT PUSH2 0x6BF JUMPI PUSH0 DUP1 REVERT JUMPDEST SWAP1 PUSH0 MSTORE PUSH1 0x20 PUSH0 KECCAK256 ADD PUSH0 SWAP2 POP SWAP2 POP POP SLOAD DUP2 JUMP JUMPDEST PUSH0 PUSH1 0x3 PUSH1 0x4 PUSH0 DUP5 PUSH20 0xFFFFFFFFFFFFFFFFFFFFFFFFFFFFFFFFFFFFFFFF AND PUSH20 0xFFFFFFFFFFFFFFFFFFFFFFFFFFFFFFFFFFFFFFFF AND DUP2 MSTORE PUSH1 0x20 ADD SWAP1 DUP2 MSTORE PUSH1 0x20 ADD PUSH0 KECCAK256 DUP1 SLOAD SWAP1 POP LT ISZERO PUSH2 0x763 JUMPI PUSH1 0x64 PUSH1 0x5 PUSH0 DUP5 PUSH20 0xFFFFFFFFFFFFFFFFFFFFFFFFFFFFFFFFFFFFFFFF AND PUSH20 0xFFFFFFFFFFFFFFFFFFFFFFFFFFFFFFFFFFFFFFFF AND DUP2 MSTORE PUSH1 0x20 ADD SWAP1 DUP2 MSTORE PUSH1 0x20 ADD PUSH0 KECCAK256 SLOAD GT SWAP1 POP PUSH2 0x839 JUMP JUMPDEST PUSH1 0x8 PUSH1 0x4 PUSH0 DUP5 PUSH20 0xFFFFFFFFFFFFFFFFFFFFFFFFFFFFFFFFFFFFFFFF AND PUSH20 0xFFFFFFFFFFFFFFFFFFFFFFFFFFFFFFFFFFFFFFFF AND DUP2 MSTORE PUSH1 0x20 ADD SWAP1 DUP2 MSTORE PUSH1 0x20 ADD PUSH0 KECCAK256 DUP1 SLOAD SWAP1 POP LT ISZERO PUSH2 0x7F4 JUMPI PUSH1 0xC8 PUSH1 0x5 PUSH0 DUP5 PUSH20 0xFFFFFFFFFFFFFFFFFFFFFFFFFFFFFFFFFFFFFFFF AND PUSH20 0xFFFFFFFFFFFFFFFFFFFFFFFFFFFFFFFFFFFFFFFF AND DUP2 MSTORE PUSH1 0x20 ADD SWAP1 DUP2 MSTORE PUSH1 0x20 ADD PUSH0 KECCAK256 SLOAD GT SWAP1 POP PUSH2 0x839 JUMP JUMPDEST PUSH2 0x1F4 PUSH1 0x5 PUSH0 DUP5 PUSH20 0xFFFFFFFFFFFFFFFFFFFFFFFFFFFFFFFFFFFFFFFF AND PUSH20 0xFFFFFFFFFFFFFFFFFFFFFFFFFFFFFFFFFFFFFFFF AND DUP2 MSTORE PUSH1 0x20 ADD SWAP1 DUP2 MSTORE PUSH1 0x20 ADD PUSH0 KECCAK256 SLOAD GT SWAP1 POP JUMPDEST SWAP2 SWAP1 POP JUMP JUMPDEST PUSH0 PUSH1 0x40 MLOAD SWAP1 POP SWAP1 JUMP JUMPDEST PUSH0 DUP1 REVERT JUMPDEST PUSH0 DUP1 REVERT JUMPDEST PUSH0 DUP2 SWAP1 POP SWAP2 SWAP1 POP JUMP JUMPDEST PUSH2 0x861 DUP2 PUSH2 0x84F JUMP JUMPDEST DUP2 EQ PUSH2 0x86B JUMPI PUSH0 DUP1 REVERT JUMPDEST POP JUMP JUMPDEST PUSH0 DUP2 CALLDATALOAD SWAP1 POP PUSH2 0x87C DUP2 PUSH2 0x858 JUMP JUMPDEST SWAP3 SWAP2 POP POP JUMP JUMPDEST PUSH0 PUSH1 0x20 DUP3 DUP5 SUB SLT ISZERO PUSH2 0x897 JUMPI PUSH2 0x896 PUSH2 0x847 JUMP JUMPDEST JUMPDEST PUSH0 PUSH2 0x8A4 DUP5 DUP3 DUP6 ADD PUSH2 0x86E JUMP JUMPDEST SWAP2 POP POP SWAP3 SWAP2 POP POP JUMP JUMPDEST PUSH0 DUP2 MLOAD SWAP1 POP SWAP2 SWAP1 POP JUMP JUMPDEST PUSH0 DUP3 DUP3 MSTORE PUSH1 0x20 DUP3 ADD SWAP1 POP SWAP3 SWAP2 POP POP JUMP JUMPDEST PUSH0 JUMPDEST DUP4 DUP2 LT ISZERO PUSH2 0x8E4 JUMPI DUP1 DUP3 ADD MLOAD DUP2 DUP5 ADD MSTORE PUSH1 0x20 DUP2 ADD SWAP1 POP PUSH2 0x8C9 JUMP JUMPDEST PUSH0 DUP5 DUP5 ADD MSTORE POP POP POP POP JUMP JUMPDEST PUSH0 PUSH1 0x1F NOT PUSH1 0x1F DUP4 ADD AND SWAP1 POP SWAP2 SWAP1 POP JUMP JUMPDEST PUSH0 PUSH2 0x909 DUP3 PUSH2 0x8AD JUMP JUMPDEST PUSH2 0x913 DUP2 DUP6 PUSH2 0x8B7 JUMP JUMPDEST SWAP4 POP PUSH2 0x923 DUP2 DUP6 PUSH1 0x20 DUP7 ADD PUSH2 0x8C7 JUMP JUMPDEST PUSH2 0x92C DUP2 PUSH2 0x8EF JUMP JUMPDEST DUP5 ADD SWAP2 POP POP SWAP3 SWAP2 POP POP JUMP JUMPDEST PUSH0 PUSH20 0xFFFFFFFFFFFFFFFFFFFFFFFFFFFFFFFFFFFFFFFF DUP3 AND SWAP1 POP SWAP2 SWAP1 POP JUMP JUMPDEST PUSH0 PUSH2 0x960 DUP3 PUSH2 0x937 JUMP JUMPDEST SWAP1 POP SWAP2 SWAP1 POP JUMP JUMPDEST PUSH2 0x970 DUP2 PUSH2 0x956 JUMP JUMPDEST DUP3 MSTORE POP POP JUMP JUMPDEST PUSH2 0x97F DUP2 PUSH2 0x84F JUMP JUMPDEST DUP3 MSTORE POP POP JUMP JUMPDEST PUSH0 PUSH1 0xC0 DUP3 ADD SWAP1 POP DUP2 DUP2 SUB PUSH0 DUP4 ADD MSTORE PUSH2 0x99D DUP2 DUP10 PUSH2 0x8FF JUMP JUMPDEST SWAP1 POP DUP2 DUP2 SUB PUSH1 0x20 DUP4 ADD MSTORE PUSH2 0x9B1 DUP2 DUP9 PUSH2 0x8FF JUMP JUMPDEST SWAP1 POP DUP2 DUP2 SUB PUSH1 0x40 DUP4 ADD MSTORE PUSH2 0x9C5 DUP2 DUP8 PUSH2 0x8FF JUMP JUMPDEST SWAP1 POP PUSH2 0x9D4 PUSH1 0x60 DUP4 ADD DUP7 PUSH2 0x967 JUMP JUMPDEST PUSH2 0x9E1 PUSH1 0x80 DUP4 ADD DUP6 PUSH2 0x976 JUMP JUMPDEST PUSH2 0x9EE PUSH1 0xA0 DUP4 ADD DUP5 PUSH2 0x976 JUMP JUMPDEST SWAP8 SWAP7 POP POP POP POP POP POP POP JUMP JUMPDEST PUSH2 0xA02 DUP2 PUSH2 0x956 JUMP JUMPDEST DUP2 EQ PUSH2 0xA0C JUMPI PUSH0 DUP1 REVERT JUMPDEST POP JUMP JUMPDEST PUSH0 DUP2 CALLDATALOAD SWAP1 POP PUSH2 0xA1D DUP2 PUSH2 0x9F9 JUMP JUMPDEST SWAP3 SWAP2 POP POP JUMP JUMPDEST PUSH0 DUP1 PUSH1 0x40 DUP4 DUP6 SUB SLT ISZERO PUSH2 0xA39 JUMPI PUSH2 0xA38 PUSH2 0x847 JUMP JUMPDEST JUMPDEST PUSH0 PUSH2 0xA46 DUP6 DUP3 DUP7 ADD PUSH2 0x86E JUMP JUMPDEST SWAP3 POP POP PUSH1 0x20 PUSH2 0xA57 DUP6 DUP3 DUP7 ADD PUSH2 0xA0F JUMP JUMPDEST SWAP2 POP POP SWAP3 POP SWAP3 SWAP1 POP JUMP JUMPDEST PUSH0 DUP2 ISZERO ISZERO SWAP1 POP SWAP2 SWAP1 POP JUMP JUMPDEST PUSH2 0xA75 DUP2 PUSH2 0xA61 JUMP JUMPDEST DUP3 MSTORE POP POP JUMP JUMPDEST PUSH0 PUSH1 0x80 DUP3 ADD SWAP1 POP PUSH2 0xA8E PUSH0 DUP4 ADD DUP8 PUSH2 0x976 JUMP JUMPDEST PUSH2 0xA9B PUSH1 0x20 DUP4 ADD DUP7 PUSH2 0xA6C JUMP JUMPDEST PUSH2 0xAA8 PUSH1 0x40 DUP4 ADD DUP6 PUSH2 0xA6C JUMP JUMPDEST PUSH2 0xAB5 PUSH1 0x60 DUP4 ADD DUP5 PUSH2 0x976 JUMP JUMPDEST SWAP6 SWAP5 POP POP POP POP POP JUMP JUMPDEST PUSH0 PUSH1 0x20 DUP3 DUP5 SUB SLT ISZERO PUSH2 0xAD3 JUMPI PUSH2 0xAD2 PUSH2 0x847 JUMP JUMPDEST JUMPDEST PUSH0 PUSH2 0xAE0 DUP5 DUP3 DUP6 ADD PUSH2 0xA0F JUMP JUMPDEST SWAP2 POP POP SWAP3 SWAP2 POP POP JUMP JUMPDEST PUSH0 PUSH1 0x20 DUP3 ADD SWAP1 POP PUSH2 0xAFC PUSH0 DUP4 ADD DUP5 PUSH2 0x976 JUMP JUMPDEST SWAP3 SWAP2 POP POP JUMP JUMPDEST PUSH0 PUSH1 0x20 DUP3 ADD SWAP1 POP PUSH2 0xB15 PUSH0 DUP4 ADD DUP5 PUSH2 0xA6C JUMP JUMPDEST SWAP3 SWAP2 POP POP JUMP JUMPDEST PUSH0 DUP1 REVERT JUMPDEST PUSH0 DUP1 REVERT JUMPDEST PUSH32 0x4E487B7100000000000000000000000000000000000000000000000000000000 PUSH0 MSTORE PUSH1 0x41 PUSH1 0x4 MSTORE PUSH1 0x24 PUSH0 REVERT JUMPDEST PUSH2 0xB59 DUP3 PUSH2 0x8EF JUMP JUMPDEST DUP2 ADD DUP2 DUP2 LT PUSH8 0xFFFFFFFFFFFFFFFF DUP3 GT OR ISZERO PUSH2 0xB78 JUMPI PUSH2 0xB77 PUSH2 0xB23 JUMP JUMPDEST JUMPDEST DUP1 PUSH1 0x40 MSTORE POP POP POP JUMP JUMPDEST PUSH0 PUSH2 0xB8A PUSH2 0x83E JUMP JUMPDEST SWAP1 POP PUSH2 0xB96 DUP3 DUP3 PUSH2 0xB50 JUMP JUMPDEST SWAP2 SWAP1 POP JUMP JUMPDEST PUSH0 PUSH8 0xFFFFFFFFFFFFFFFF DUP3 GT ISZERO PUSH2 0xBB5 JUMPI PUSH2 0xBB4 PUSH2 0xB23 JUMP JUMPDEST JUMPDEST PUSH2 0xBBE DUP3 PUSH2 0x8EF JUMP JUMPDEST SWAP1 POP PUSH1 0x20 DUP2 ADD SWAP1 POP SWAP2 SWAP1 POP JUMP JUMPDEST DUP3 DUP2 DUP4 CALLDATACOPY PUSH0 DUP4 DUP4 ADD MSTORE POP POP POP JUMP JUMPDEST PUSH0 PUSH2 0xBEB PUSH2 0xBE6 DUP5 PUSH2 0xB9B JUMP JUMPDEST PUSH2 0xB81 JUMP JUMPDEST SWAP1 POP DUP3 DUP2 MSTORE PUSH1 0x20 DUP2 ADD DUP5 DUP5 DUP5 ADD GT ISZERO PUSH2 0xC07 JUMPI PUSH2 0xC06 PUSH2 0xB1F JUMP JUMPDEST JUMPDEST PUSH2 0xC12 DUP5 DUP3 DUP6 PUSH2 0xBCB JUMP JUMPDEST POP SWAP4 SWAP3 POP POP POP JUMP JUMPDEST PUSH0 DUP3 PUSH1 0x1F DUP4 ADD SLT PUSH2 0xC2E JUMPI PUSH2 0xC2D PUSH2 0xB1B JUMP JUMPDEST JUMPDEST DUP2 CALLDATALOAD PUSH2 0xC3E DUP5 DUP3 PUSH1 0x20 DUP7 ADD PUSH2 0xBD9 JUMP JUMPDEST SWAP2 POP POP SWAP3 SWAP2 POP POP JUMP JUMPDEST PUSH0 DUP1 PUSH0 DUP1 PUSH1 0x80 DUP6 DUP8 SUB SLT ISZERO PUSH2 0xC5F JUMPI PUSH2 0xC5E PUSH2 0x847 JUMP JUMPDEST JUMPDEST PUSH0 DUP6 ADD CALLDATALOAD PUSH8 0xFFFFFFFFFFFFFFFF DUP2 GT ISZERO PUSH2 0xC7C JUMPI PUSH2 0xC7B PUSH2 0x84B JUMP JUMPDEST JUMPDEST PUSH2 0xC88 DUP8 DUP3 DUP9 ADD PUSH2 0xC1A JUMP JUMPDEST SWAP5 POP POP PUSH1 0x20 DUP6 ADD CALLDATALOAD PUSH8 0xFFFFFFFFFFFFFFFF DUP2 GT ISZERO PUSH2 0xCA9 JUMPI PUSH2 0xCA8 PUSH2 0x84B JUMP JUMPDEST JUMPDEST PUSH2 0xCB5 DUP8 DUP3 DUP9 ADD PUSH2 0xC1A JUMP JUMPDEST SWAP4 POP POP PUSH1 0x40 DUP6 ADD CALLDATALOAD PUSH8 0xFFFFFFFFFFFFFFFF DUP2 GT ISZERO PUSH2 0xCD6 JUMPI PUSH2 0xCD5 PUSH2 0x84B JUMP JUMPDEST JUMPDEST PUSH2 0xCE2 DUP8 DUP3 DUP9 ADD PUSH2 0xC1A JUMP JUMPDEST SWAP3 POP POP PUSH1 0x60 PUSH2 0xCF3 DUP8 DUP3 DUP9 ADD PUSH2 0x86E JUMP JUMPDEST SWAP2 POP POP SWAP3 SWAP6 SWAP2 SWAP5 POP SWAP3 POP JUMP JUMPDEST PUSH0 DUP1 PUSH1 0x40 DUP4 DUP6 SUB SLT ISZERO PUSH2 0xD15 JUMPI PUSH2 0xD14 PUSH2 0x847 JUMP JUMPDEST JUMPDEST PUSH0 PUSH2 0xD22 DUP6 DUP3 DUP7 ADD PUSH2 0xA0F JUMP JUMPDEST SWAP3 POP POP PUSH1 0x20 PUSH2 0xD33 DUP6 DUP3 DUP7 ADD PUSH2 0x86E JUMP JUMPDEST SWAP2 POP POP SWAP3 POP SWAP3 SWAP1 POP JUMP JUMPDEST PUSH32 0x4E487B7100000000000000000000000000000000000000000000000000000000 PUSH0 MSTORE PUSH1 0x22 PUSH1 0x4 MSTORE PUSH1 0x24 PUSH0 REVERT JUMPDEST PUSH0 PUSH1 0x2 DUP3 DIV SWAP1 POP PUSH1 0x1 DUP3 AND DUP1 PUSH2 0xD81 JUMPI PUSH1 0x7F DUP3 AND SWAP2 POP JUMPDEST PUSH1 0x20 DUP3 LT DUP2 SUB PUSH2 0xD94 JUMPI PUSH2 0xD93 PUSH2 0xD3D JUMP JUMPDEST JUMPDEST POP SWAP2 SWAP1 POP JUMP JUMPDEST PUSH32 0x496E73756666696369656E74207374616B652E00000000000000000000000000 PUSH0 DUP3 ADD MSTORE POP JUMP JUMPDEST PUSH0 PUSH2 0xDCE PUSH1 0x13 DUP4 PUSH2 0x8B7 JUMP JUMPDEST SWAP2 POP PUSH2 0xDD9 DUP3 PUSH2 0xD9A JUMP JUMPDEST PUSH1 0x20 DUP3 ADD SWAP1 POP SWAP2 SWAP1 POP JUMP JUMPDEST PUSH0 PUSH1 0x20 DUP3 ADD SWAP1 POP DUP2 DUP2 SUB PUSH0 DUP4 ADD MSTORE PUSH2 0xDFB DUP2 PUSH2 0xDC2 JUMP JUMPDEST SWAP1 POP SWAP2 SWAP1 POP JUMP JUMPDEST PUSH0 DUP2 SWAP1 POP DUP2 PUSH0 MSTORE PUSH1 0x20 PUSH0 KECCAK256 SWAP1 POP SWAP2 SWAP1 POP JUMP JUMPDEST PUSH0 PUSH1 0x20 PUSH1 0x1F DUP4 ADD DIV SWAP1 POP SWAP2 SWAP1 POP JUMP JUMPDEST PUSH0 DUP3 DUP3 SHL SWAP1 POP SWAP3 SWAP2 POP POP JUMP JUMPDEST PUSH0 PUSH1 0x8 DUP4 MUL PUSH2 0xE5E PUSH32 0xFFFFFFFFFFFFFFFFFFFFFFFFFFFFFFFFFFFFFFFFFFFFFFFFFFFFFFFFFFFFFFFF DUP3 PUSH2 0xE23 JUMP JUMPDEST PUSH2 0xE68 DUP7 DUP4 PUSH2 0xE23 JUMP JUMPDEST SWAP6 POP DUP1 NOT DUP5 AND SWAP4 POP DUP1 DUP7 AND DUP5 OR SWAP3 POP POP POP SWAP4 SWAP3 POP POP POP JUMP JUMPDEST PUSH0 DUP2 SWAP1 POP SWAP2 SWAP1 POP JUMP JUMPDEST PUSH0 PUSH2 0xEA3 PUSH2 0xE9E PUSH2 0xE99 DUP5 PUSH2 0x84F JUMP JUMPDEST PUSH2 0xE80 JUMP JUMPDEST PUSH2 0x84F JUMP JUMPDEST SWAP1 POP SWAP2 SWAP1 POP JUMP JUMPDEST PUSH0 DUP2 SWAP1 POP SWAP2 SWAP1 POP JUMP JUMPDEST PUSH2 0xEBC DUP4 PUSH2 0xE89 JUMP JUMPDEST PUSH2 0xED0 PUSH2 0xEC8 DUP3 PUSH2 0xEAA JUMP JUMPDEST DUP5 DUP5 SLOAD PUSH2 0xE2F JUMP JUMPDEST DUP3 SSTORE POP POP POP POP JUMP JUMPDEST PUSH0 SWAP1 JUMP JUMPDEST PUSH2 0xEE4 PUSH2 0xED8 JUMP JUMPDEST PUSH2 0xEEF DUP2 DUP5 DUP5 PUSH2 0xEB3 JUMP JUMPDEST POP POP POP JUMP JUMPDEST JUMPDEST DUP2 DUP2 LT ISZERO PUSH2 0xF12 JUMPI PUSH2 0xF07 PUSH0 DUP3 PUSH2 0xEDC JUMP JUMPDEST PUSH1 0x1 DUP2 ADD SWAP1 POP PUSH2 0xEF5 JUMP JUMPDEST POP POP JUMP JUMPDEST PUSH1 0x1F DUP3 GT ISZERO PUSH2 0xF57 JUMPI PUSH2 0xF28 DUP2 PUSH2 0xE02 JUMP JUMPDEST PUSH2 0xF31 DUP5 PUSH2 0xE14 JUMP JUMPDEST DUP2 ADD PUSH1 0x20 DUP6 LT ISZERO PUSH2 0xF40 JUMPI DUP2 SWAP1 POP JUMPDEST PUSH2 0xF54 PUSH2 0xF4C DUP6 PUSH2 0xE14 JUMP JUMPDEST DUP4 ADD DUP3 PUSH2 0xEF4 JUMP JUMPDEST POP POP JUMPDEST POP POP POP JUMP JUMPDEST PUSH0 DUP3 DUP3 SHR SWAP1 POP SWAP3 SWAP2 POP POP JUMP JUMPDEST PUSH0 PUSH2 0xF77 PUSH0 NOT DUP5 PUSH1 0x8 MUL PUSH2 0xF5C JUMP JUMPDEST NOT DUP1 DUP4 AND SWAP2 POP POP SWAP3 SWAP2 POP POP JUMP JUMPDEST PUSH0 PUSH2 0xF8F DUP4 DUP4 PUSH2 0xF68 JUMP JUMPDEST SWAP2 POP DUP3 PUSH1 0x2 MUL DUP3 OR SWAP1 POP SWAP3 SWAP2 POP POP JUMP JUMPDEST PUSH2 0xFA8 DUP3 PUSH2 0x8AD JUMP JUMPDEST PUSH8 0xFFFFFFFFFFFFFFFF DUP2 GT ISZERO PUSH2 0xFC1 JUMPI PUSH2 0xFC0 PUSH2 0xB23 JUMP JUMPDEST JUMPDEST PUSH2 0xFCB DUP3 SLOAD PUSH2 0xD6A JUMP JUMPDEST PUSH2 0xFD6 DUP3 DUP3 DUP6 PUSH2 0xF16 JUMP JUMPDEST PUSH0 PUSH1 0x20 SWAP1 POP PUSH1 0x1F DUP4 GT PUSH1 0x1 DUP2 EQ PUSH2 0x1007 JUMPI PUSH0 DUP5 ISZERO PUSH2 0xFF5 JUMPI DUP3 DUP8 ADD MLOAD SWAP1 POP JUMPDEST PUSH2 0xFFF DUP6 DUP3 PUSH2 0xF84 JUMP JUMPDEST DUP7 SSTORE POP PUSH2 0x1066 JUMP JUMPDEST PUSH1 0x1F NOT DUP5 AND PUSH2 0x1015 DUP7 PUSH2 0xE02 JUMP JUMPDEST PUSH0 JUMPDEST DUP3 DUP2 LT ISZERO PUSH2 0x103C JUMPI DUP5 DUP10 ADD MLOAD DUP3 SSTORE PUSH1 0x1 DUP3 ADD SWAP2 POP PUSH1 0x20 DUP6 ADD SWAP5 POP PUSH1 0x20 DUP2 ADD SWAP1 POP PUSH2 0x1017 JUMP JUMPDEST DUP7 DUP4 LT ISZERO PUSH2 0x1059 JUMPI DUP5 DUP10 ADD MLOAD PUSH2 0x1055 PUSH1 0x1F DUP10 AND DUP3 PUSH2 0xF68 JUMP JUMPDEST DUP4 SSTORE POP JUMPDEST PUSH1 0x1 PUSH1 0x2 DUP9 MUL ADD DUP9 SSTORE POP POP POP JUMPDEST POP POP POP POP POP POP JUMP JUMPDEST PUSH32 0x4E487B7100000000000000000000000000000000000000000000000000000000 PUSH0 MSTORE PUSH1 0x11 PUSH1 0x4 MSTORE PUSH1 0x24 PUSH0 REVERT JUMPDEST PUSH0 PUSH2 0x10A5 DUP3 PUSH2 0x84F JUMP JUMPDEST SWAP2 POP PUSH32 0xFFFFFFFFFFFFFFFFFFFFFFFFFFFFFFFFFFFFFFFFFFFFFFFFFFFFFFFFFFFFFFFF DUP3 SUB PUSH2 0x10D7 JUMPI PUSH2 0x10D6 PUSH2 0x106E JUMP JUMPDEST JUMPDEST PUSH1 0x1 DUP3 ADD SWAP1 POP SWAP2 SWAP1 POP JUMP INVALID LOG2 PUSH5 0x6970667358 0x22 SLT KECCAK256 RETURN DUP3 PUSH16 0x259ADC05539CCF2E3C70D6BD72E6ED15 0xD2 0xEE 0xE5 0xC3 PUSH15 0x65E8884538020FEF64736F6C634300 ADDMOD AND STOP CALLER "
		},
		"gasEstimates": {
			"creation": {
				"codeDepositCost": "875200",
				"executionCost": "23012",
				"totalCost": "898212"
			},
			"external": {
				"checkLicense(uint256,address)": "9669",
				"developerGameRegistered(address,uint256)": "infinite",
				"gameLicenses(uint256,address)": "infinite",
				"games(uint256)": "infinite",
				"registerGame(string,string,string,uint256)": "infinite",
				"stake(address)": "2847",
				"userGames(address,uint256)": "infinite"
			},
			"internal": {
				"createGameLicense(uint256)": "infinite",
				"putInSellingPool(uint256,address)": "infinite",
				"removeFromSellingPool(uint256,address)": "infinite",
				"sufficientStake(address)": "6682",
				"transferOwnership(uint256,address,address)": "infinite"
			}
		},
		"methodIdentifiers": {
			"checkLicense(uint256,address)": "6f20d021",
			"developerGameRegistered(address,uint256)": "b6654d8c",
			"gameLicenses(uint256,address)": "1b91e3a3",
			"games(uint256)": "117a5b90",
			"registerGame(string,string,string,uint256)": "a48e438e",
			"stake(address)": "26476204",
			"userGames(address,uint256)": "bc0167cd"
		}
	},
	"abi": [
		{
			"inputs": [
				{
					"internalType": "uint256",
					"name": "_gameId",
					"type": "uint256"
				},
				{
					"internalType": "address",
					"name": "_owner",
					"type": "address"
				}
			],
			"name": "checkLicense",
			"outputs": [
				{
					"internalType": "bool",
					"name": "",
					"type": "bool"
				}
			],
			"stateMutability": "view",
			"type": "function"
		},
		{
			"inputs": [
				{
					"internalType": "address",
					"name": "",
					"type": "address"
				},
				{
					"internalType": "uint256",
					"name": "",
					"type": "uint256"
				}
			],
			"name": "developerGameRegistered",
			"outputs": [
				{
					"internalType": "uint256",
					"name": "",
					"type": "uint256"
				}
			],
			"stateMutability": "view",
			"type": "function"
		},
		{
			"inputs": [
				{
					"internalType": "uint256",
					"name": "",
					"type": "uint256"
				},
				{
					"internalType": "address",
					"name": "",
					"type": "address"
				}
			],
			"name": "gameLicenses",
			"outputs": [
				{
					"internalType": "uint256",
					"name": "licenseNumber",
					"type": "uint256"
				},
				{
					"internalType": "bool",
					"name": "isActive",
					"type": "bool"
				},
				{
					"internalType": "bool",
					"name": "isInSellingPool",
					"type": "bool"
				},
				{
					"internalType": "uint256",
					"name": "purchaseDate",
					"type": "uint256"
				}
			],
			"stateMutability": "view",
			"type": "function"
		},
		{
			"inputs": [
				{
					"internalType": "uint256",
					"name": "",
					"type": "uint256"
				}
			],
			"name": "games",
			"outputs": [
				{
					"internalType": "string",
					"name": "name",
					"type": "string"
				},
				{
					"internalType": "string",
					"name": "description",
					"type": "string"
				},
				{
					"internalType": "string",
					"name": "developerName",
					"type": "string"
				},
				{
					"internalType": "address",
					"name": "developer",
					"type": "address"
				},
				{
					"internalType": "uint256",
					"name": "price",
					"type": "uint256"
				},
				{
					"internalType": "uint256",
					"name": "nextGameLicense",
					"type": "uint256"
				}
			],
			"stateMutability": "view",
			"type": "function"
		},
		{
			"inputs": [
				{
					"internalType": "string",
					"name": "_name",
					"type": "string"
				},
				{
					"internalType": "string",
					"name": "_description",
					"type": "string"
				},
				{
					"internalType": "string",
					"name": "_developerName",
					"type": "string"
				},
				{
					"internalType": "uint256",
					"name": "_price",
					"type": "uint256"
				}
			],
			"name": "registerGame",
			"outputs": [],
			"stateMutability": "nonpayable",
			"type": "function"
		},
		{
			"inputs": [
				{
					"internalType": "address",
					"name": "",
					"type": "address"
				}
			],
			"name": "stake",
			"outputs": [
				{
					"internalType": "uint256",
					"name": "",
					"type": "uint256"
				}
			],
			"stateMutability": "view",
			"type": "function"
		},
		{
			"inputs": [
				{
					"internalType": "address",
					"name": "",
					"type": "address"
				},
				{
					"internalType": "uint256",
					"name": "",
					"type": "uint256"
				}
			],
			"name": "userGames",
			"outputs": [
				{
					"internalType": "uint256",
					"name": "",
					"type": "uint256"
				}
			],
			"stateMutability": "view",
			"type": "function"
		}
	]
}