{
	"data": {
		"bytecode": {
			"linkReferences": {},
			"object": "608060405260015f55348015610013575f80fd5b50611260806100215f395ff3fe60806040526004361061007a575f3560e01c80636f20d0211161004d5780636f20d02114610155578063a48e438e14610191578063b6654d8c146101b9578063bc0167cd146101f55761007a565b8063117a5b901461007e5780631b91e3a3146100bf57806326476204146100fd578063525103ac14610139575b5f80fd5b348015610089575f80fd5b506100a4600480360381019061009f91906109d8565b610231565b6040516100b696959493929190610adb565b60405180910390f35b3480156100ca575f80fd5b506100e560048036038101906100e09190610b79565b61041a565b6040516100f493929190610bd1565b60405180910390f35b348015610108575f80fd5b50610123600480360381019061011e9190610c06565b610457565b6040516101309190610c31565b60405180910390f35b610153600480360381019061014e91906109d8565b61046c565b005b348015610160575f80fd5b5061017b60048036038101906101769190610b79565b610582565b6040516101889190610c4a565b60405180910390f35b34801561019c575f80fd5b506101b760048036038101906101b29190610d8f565b610618565b005b3480156101c4575f80fd5b506101df60048036038101906101da9190610e47565b6107d1565b6040516101ec9190610c31565b60405180910390f35b348015610200575f80fd5b5061021b60048036038101906102169190610e47565b6107fc565b6040516102289190610c31565b60405180910390f35b6001602052805f5260405f205f91509050805f01805461025090610eb2565b80601f016020809104026020016040519081016040528092919081815260200182805461027c90610eb2565b80156102c75780601f1061029e576101008083540402835291602001916102c7565b820191905f5260205f20905b8154815290600101906020018083116102aa57829003601f168201915b5050505050908060010180546102dc90610eb2565b80601f016020809104026020016040519081016040528092919081815260200182805461030890610eb2565b80156103535780601f1061032a57610100808354040283529160200191610353565b820191905f5260205f20905b81548152906001019060200180831161033657829003601f168201915b50505050509080600201805461036890610eb2565b80601f016020809104026020016040519081016040528092919081815260200182805461039490610eb2565b80156103df5780601f106103b6576101008083540402835291602001916103df565b820191905f5260205f20905b8154815290600101906020018083116103c257829003601f168201915b505050505090806003015f9054906101000a900473ffffffffffffffffffffffffffffffffffffffff16908060040154908060050154905086565b6002602052815f5260405f20602052805f5260405f205f9150915050805f015490806001015f9054906101000a900460ff16908060020154905083565b6005602052805f5260405f205f915090505481565b604051806060016040528060015f8481526020019081526020015f206005015481526020016001151581526020014281525060025f8381526020019081526020015f205f3373ffffffffffffffffffffffffffffffffffffffff1673ffffffffffffffffffffffffffffffffffffffff1681526020019081526020015f205f820151815f01556020820151816001015f6101000a81548160ff0219169083151502179055506040820151816002015590505060035f3373ffffffffffffffffffffffffffffffffffffffff1673ffffffffffffffffffffffffffffffffffffffff1681526020019081526020015f2081908060018154018082558091505060019003905f5260205f20015f909190919091505550565b5f8060025f8581526020019081526020015f205f8473ffffffffffffffffffffffffffffffffffffffff1673ffffffffffffffffffffffffffffffffffffffff1681526020019081526020015f206040518060600160405290815f8201548152602001600182015f9054906101000a900460ff161515151581526020016002820154815250509050806020015191505092915050565b61062133610827565b610660576040517f08c379a000000000000000000000000000000000000000000000000000000000815260040161065790610f2c565b60405180910390fd5b6040518060c001604052808581526020018481526020018381526020013373ffffffffffffffffffffffffffffffffffffffff168152602001828152602001600181525060015f805481526020019081526020015f205f820151815f0190816106c991906110e7565b5060208201518160010190816106df91906110e7565b5060408201518160020190816106f591906110e7565b506060820151816003015f6101000a81548173ffffffffffffffffffffffffffffffffffffffff021916908373ffffffffffffffffffffffffffffffffffffffff1602179055506080820151816004015560a0820151816005015590505060045f3373ffffffffffffffffffffffffffffffffffffffff1673ffffffffffffffffffffffffffffffffffffffff1681526020019081526020015f205f54908060018154018082558091505060019003905f5260205f20015f90919091909150555f808154809291906107c6906111e3565b919050555050505050565b6004602052815f5260405f2081815481106107ea575f80fd5b905f5260205f20015f91509150505481565b6003602052815f5260405f208181548110610815575f80fd5b905f5260205f20015f91509150505481565b5f600360045f8473ffffffffffffffffffffffffffffffffffffffff1673ffffffffffffffffffffffffffffffffffffffff1681526020019081526020015f208054905010156108b957606460055f8473ffffffffffffffffffffffffffffffffffffffff1673ffffffffffffffffffffffffffffffffffffffff1681526020019081526020015f205411905061098f565b600860045f8473ffffffffffffffffffffffffffffffffffffffff1673ffffffffffffffffffffffffffffffffffffffff1681526020019081526020015f2080549050101561094a5760c860055f8473ffffffffffffffffffffffffffffffffffffffff1673ffffffffffffffffffffffffffffffffffffffff1681526020019081526020015f205411905061098f565b6101f460055f8473ffffffffffffffffffffffffffffffffffffffff1673ffffffffffffffffffffffffffffffffffffffff1681526020019081526020015f20541190505b919050565b5f604051905090565b5f80fd5b5f80fd5b5f819050919050565b6109b7816109a5565b81146109c1575f80fd5b50565b5f813590506109d2816109ae565b92915050565b5f602082840312156109ed576109ec61099d565b5b5f6109fa848285016109c4565b91505092915050565b5f81519050919050565b5f82825260208201905092915050565b5f5b83811015610a3a578082015181840152602081019050610a1f565b5f8484015250505050565b5f601f19601f8301169050919050565b5f610a5f82610a03565b610a698185610a0d565b9350610a79818560208601610a1d565b610a8281610a45565b840191505092915050565b5f73ffffffffffffffffffffffffffffffffffffffff82169050919050565b5f610ab682610a8d565b9050919050565b610ac681610aac565b82525050565b610ad5816109a5565b82525050565b5f60c0820190508181035f830152610af38189610a55565b90508181036020830152610b078188610a55565b90508181036040830152610b1b8187610a55565b9050610b2a6060830186610abd565b610b376080830185610acc565b610b4460a0830184610acc565b979650505050505050565b610b5881610aac565b8114610b62575f80fd5b50565b5f81359050610b7381610b4f565b92915050565b5f8060408385031215610b8f57610b8e61099d565b5b5f610b9c858286016109c4565b9250506020610bad85828601610b65565b9150509250929050565b5f8115159050919050565b610bcb81610bb7565b82525050565b5f606082019050610be45f830186610acc565b610bf16020830185610bc2565b610bfe6040830184610acc565b949350505050565b5f60208284031215610c1b57610c1a61099d565b5b5f610c2884828501610b65565b91505092915050565b5f602082019050610c445f830184610acc565b92915050565b5f602082019050610c5d5f830184610bc2565b92915050565b5f80fd5b5f80fd5b7f4e487b71000000000000000000000000000000000000000000000000000000005f52604160045260245ffd5b610ca182610a45565b810181811067ffffffffffffffff82111715610cc057610cbf610c6b565b5b80604052505050565b5f610cd2610994565b9050610cde8282610c98565b919050565b5f67ffffffffffffffff821115610cfd57610cfc610c6b565b5b610d0682610a45565b9050602081019050919050565b828183375f83830152505050565b5f610d33610d2e84610ce3565b610cc9565b905082815260208101848484011115610d4f57610d4e610c67565b5b610d5a848285610d13565b509392505050565b5f82601f830112610d7657610d75610c63565b5b8135610d86848260208601610d21565b91505092915050565b5f805f8060808587031215610da757610da661099d565b5b5f85013567ffffffffffffffff811115610dc457610dc36109a1565b5b610dd087828801610d62565b945050602085013567ffffffffffffffff811115610df157610df06109a1565b5b610dfd87828801610d62565b935050604085013567ffffffffffffffff811115610e1e57610e1d6109a1565b5b610e2a87828801610d62565b9250506060610e3b878288016109c4565b91505092959194509250565b5f8060408385031215610e5d57610e5c61099d565b5b5f610e6a85828601610b65565b9250506020610e7b858286016109c4565b9150509250929050565b7f4e487b71000000000000000000000000000000000000000000000000000000005f52602260045260245ffd5b5f6002820490506001821680610ec957607f821691505b602082108103610edc57610edb610e85565b5b50919050565b7f496e73756666696369656e74207374616b652e000000000000000000000000005f82015250565b5f610f16601383610a0d565b9150610f2182610ee2565b602082019050919050565b5f6020820190508181035f830152610f4381610f0a565b9050919050565b5f819050815f5260205f209050919050565b5f6020601f8301049050919050565b5f82821b905092915050565b5f60088302610fa67fffffffffffffffffffffffffffffffffffffffffffffffffffffffffffffffff82610f6b565b610fb08683610f6b565b95508019841693508086168417925050509392505050565b5f819050919050565b5f610feb610fe6610fe1846109a5565b610fc8565b6109a5565b9050919050565b5f819050919050565b61100483610fd1565b61101861101082610ff2565b848454610f77565b825550505050565b5f90565b61102c611020565b611037818484610ffb565b505050565b5b8181101561105a5761104f5f82611024565b60018101905061103d565b5050565b601f82111561109f5761107081610f4a565b61107984610f5c565b81016020851015611088578190505b61109c61109485610f5c565b83018261103c565b50505b505050565b5f82821c905092915050565b5f6110bf5f19846008026110a4565b1980831691505092915050565b5f6110d783836110b0565b9150826002028217905092915050565b6110f082610a03565b67ffffffffffffffff81111561110957611108610c6b565b5b6111138254610eb2565b61111e82828561105e565b5f60209050601f83116001811461114f575f841561113d578287015190505b61114785826110cc565b8655506111ae565b601f19841661115d86610f4a565b5f5b828110156111845784890151825560018201915060208501945060208101905061115f565b868310156111a1578489015161119d601f8916826110b0565b8355505b6001600288020188555050505b505050505050565b7f4e487b71000000000000000000000000000000000000000000000000000000005f52601160045260245ffd5b5f6111ed826109a5565b91507fffffffffffffffffffffffffffffffffffffffffffffffffffffffffffffffff820361121f5761121e6111b6565b5b60018201905091905056fea26469706673582212202ae8296286e62ccce11978c37b510a827a696648286d27f5303a1b7b8b06719864736f6c63430008160033",
			"opcodes": "PUSH1 0x80 PUSH1 0x40 MSTORE PUSH1 0x1 PUSH0 SSTORE CALLVALUE DUP1 ISZERO PUSH2 0x13 JUMPI PUSH0 DUP1 REVERT JUMPDEST POP PUSH2 0x1260 DUP1 PUSH2 0x21 PUSH0 CODECOPY PUSH0 RETURN INVALID PUSH1 0x80 PUSH1 0x40 MSTORE PUSH1 0x4 CALLDATASIZE LT PUSH2 0x7A JUMPI PUSH0 CALLDATALOAD PUSH1 0xE0 SHR DUP1 PUSH4 0x6F20D021 GT PUSH2 0x4D JUMPI DUP1 PUSH4 0x6F20D021 EQ PUSH2 0x155 JUMPI DUP1 PUSH4 0xA48E438E EQ PUSH2 0x191 JUMPI DUP1 PUSH4 0xB6654D8C EQ PUSH2 0x1B9 JUMPI DUP1 PUSH4 0xBC0167CD EQ PUSH2 0x1F5 JUMPI PUSH2 0x7A JUMP JUMPDEST DUP1 PUSH4 0x117A5B90 EQ PUSH2 0x7E JUMPI DUP1 PUSH4 0x1B91E3A3 EQ PUSH2 0xBF JUMPI DUP1 PUSH4 0x26476204 EQ PUSH2 0xFD JUMPI DUP1 PUSH4 0x525103AC EQ PUSH2 0x139 JUMPI JUMPDEST PUSH0 DUP1 REVERT JUMPDEST CALLVALUE DUP1 ISZERO PUSH2 0x89 JUMPI PUSH0 DUP1 REVERT JUMPDEST POP PUSH2 0xA4 PUSH1 0x4 DUP1 CALLDATASIZE SUB DUP2 ADD SWAP1 PUSH2 0x9F SWAP2 SWAP1 PUSH2 0x9D8 JUMP JUMPDEST PUSH2 0x231 JUMP JUMPDEST PUSH1 0x40 MLOAD PUSH2 0xB6 SWAP7 SWAP6 SWAP5 SWAP4 SWAP3 SWAP2 SWAP1 PUSH2 0xADB JUMP JUMPDEST PUSH1 0x40 MLOAD DUP1 SWAP2 SUB SWAP1 RETURN JUMPDEST CALLVALUE DUP1 ISZERO PUSH2 0xCA JUMPI PUSH0 DUP1 REVERT JUMPDEST POP PUSH2 0xE5 PUSH1 0x4 DUP1 CALLDATASIZE SUB DUP2 ADD SWAP1 PUSH2 0xE0 SWAP2 SWAP1 PUSH2 0xB79 JUMP JUMPDEST PUSH2 0x41A JUMP JUMPDEST PUSH1 0x40 MLOAD PUSH2 0xF4 SWAP4 SWAP3 SWAP2 SWAP1 PUSH2 0xBD1 JUMP JUMPDEST PUSH1 0x40 MLOAD DUP1 SWAP2 SUB SWAP1 RETURN JUMPDEST CALLVALUE DUP1 ISZERO PUSH2 0x108 JUMPI PUSH0 DUP1 REVERT JUMPDEST POP PUSH2 0x123 PUSH1 0x4 DUP1 CALLDATASIZE SUB DUP2 ADD SWAP1 PUSH2 0x11E SWAP2 SWAP1 PUSH2 0xC06 JUMP JUMPDEST PUSH2 0x457 JUMP JUMPDEST PUSH1 0x40 MLOAD PUSH2 0x130 SWAP2 SWAP1 PUSH2 0xC31 JUMP JUMPDEST PUSH1 0x40 MLOAD DUP1 SWAP2 SUB SWAP1 RETURN JUMPDEST PUSH2 0x153 PUSH1 0x4 DUP1 CALLDATASIZE SUB DUP2 ADD SWAP1 PUSH2 0x14E SWAP2 SWAP1 PUSH2 0x9D8 JUMP JUMPDEST PUSH2 0x46C JUMP JUMPDEST STOP JUMPDEST CALLVALUE DUP1 ISZERO PUSH2 0x160 JUMPI PUSH0 DUP1 REVERT JUMPDEST POP PUSH2 0x17B PUSH1 0x4 DUP1 CALLDATASIZE SUB DUP2 ADD SWAP1 PUSH2 0x176 SWAP2 SWAP1 PUSH2 0xB79 JUMP JUMPDEST PUSH2 0x582 JUMP JUMPDEST PUSH1 0x40 MLOAD PUSH2 0x188 SWAP2 SWAP1 PUSH2 0xC4A JUMP JUMPDEST PUSH1 0x40 MLOAD DUP1 SWAP2 SUB SWAP1 RETURN JUMPDEST CALLVALUE DUP1 ISZERO PUSH2 0x19C JUMPI PUSH0 DUP1 REVERT JUMPDEST POP PUSH2 0x1B7 PUSH1 0x4 DUP1 CALLDATASIZE SUB DUP2 ADD SWAP1 PUSH2 0x1B2 SWAP2 SWAP1 PUSH2 0xD8F JUMP JUMPDEST PUSH2 0x618 JUMP JUMPDEST STOP JUMPDEST CALLVALUE DUP1 ISZERO PUSH2 0x1C4 JUMPI PUSH0 DUP1 REVERT JUMPDEST POP PUSH2 0x1DF PUSH1 0x4 DUP1 CALLDATASIZE SUB DUP2 ADD SWAP1 PUSH2 0x1DA SWAP2 SWAP1 PUSH2 0xE47 JUMP JUMPDEST PUSH2 0x7D1 JUMP JUMPDEST PUSH1 0x40 MLOAD PUSH2 0x1EC SWAP2 SWAP1 PUSH2 0xC31 JUMP JUMPDEST PUSH1 0x40 MLOAD DUP1 SWAP2 SUB SWAP1 RETURN JUMPDEST CALLVALUE DUP1 ISZERO PUSH2 0x200 JUMPI PUSH0 DUP1 REVERT JUMPDEST POP PUSH2 0x21B PUSH1 0x4 DUP1 CALLDATASIZE SUB DUP2 ADD SWAP1 PUSH2 0x216 SWAP2 SWAP1 PUSH2 0xE47 JUMP JUMPDEST PUSH2 0x7FC JUMP JUMPDEST PUSH1 0x40 MLOAD PUSH2 0x228 SWAP2 SWAP1 PUSH2 0xC31 JUMP JUMPDEST PUSH1 0x40 MLOAD DUP1 SWAP2 SUB SWAP1 RETURN JUMPDEST PUSH1 0x1 PUSH1 0x20 MSTORE DUP1 PUSH0 MSTORE PUSH1 0x40 PUSH0 KECCAK256 PUSH0 SWAP2 POP SWAP1 POP DUP1 PUSH0 ADD DUP1 SLOAD PUSH2 0x250 SWAP1 PUSH2 0xEB2 JUMP JUMPDEST DUP1 PUSH1 0x1F ADD PUSH1 0x20 DUP1 SWAP2 DIV MUL PUSH1 0x20 ADD PUSH1 0x40 MLOAD SWAP1 DUP2 ADD PUSH1 0x40 MSTORE DUP1 SWAP3 SWAP2 SWAP1 DUP2 DUP2 MSTORE PUSH1 0x20 ADD DUP3 DUP1 SLOAD PUSH2 0x27C SWAP1 PUSH2 0xEB2 JUMP JUMPDEST DUP1 ISZERO PUSH2 0x2C7 JUMPI DUP1 PUSH1 0x1F LT PUSH2 0x29E JUMPI PUSH2 0x100 DUP1 DUP4 SLOAD DIV MUL DUP4 MSTORE SWAP2 PUSH1 0x20 ADD SWAP2 PUSH2 0x2C7 JUMP JUMPDEST DUP3 ADD SWAP2 SWAP1 PUSH0 MSTORE PUSH1 0x20 PUSH0 KECCAK256 SWAP1 JUMPDEST DUP2 SLOAD DUP2 MSTORE SWAP1 PUSH1 0x1 ADD SWAP1 PUSH1 0x20 ADD DUP1 DUP4 GT PUSH2 0x2AA JUMPI DUP3 SWAP1 SUB PUSH1 0x1F AND DUP3 ADD SWAP2 JUMPDEST POP POP POP POP POP SWAP1 DUP1 PUSH1 0x1 ADD DUP1 SLOAD PUSH2 0x2DC SWAP1 PUSH2 0xEB2 JUMP JUMPDEST DUP1 PUSH1 0x1F ADD PUSH1 0x20 DUP1 SWAP2 DIV MUL PUSH1 0x20 ADD PUSH1 0x40 MLOAD SWAP1 DUP2 ADD PUSH1 0x40 MSTORE DUP1 SWAP3 SWAP2 SWAP1 DUP2 DUP2 MSTORE PUSH1 0x20 ADD DUP3 DUP1 SLOAD PUSH2 0x308 SWAP1 PUSH2 0xEB2 JUMP JUMPDEST DUP1 ISZERO PUSH2 0x353 JUMPI DUP1 PUSH1 0x1F LT PUSH2 0x32A JUMPI PUSH2 0x100 DUP1 DUP4 SLOAD DIV MUL DUP4 MSTORE SWAP2 PUSH1 0x20 ADD SWAP2 PUSH2 0x353 JUMP JUMPDEST DUP3 ADD SWAP2 SWAP1 PUSH0 MSTORE PUSH1 0x20 PUSH0 KECCAK256 SWAP1 JUMPDEST DUP2 SLOAD DUP2 MSTORE SWAP1 PUSH1 0x1 ADD SWAP1 PUSH1 0x20 ADD DUP1 DUP4 GT PUSH2 0x336 JUMPI DUP3 SWAP1 SUB PUSH1 0x1F AND DUP3 ADD SWAP2 JUMPDEST POP POP POP POP POP SWAP1 DUP1 PUSH1 0x2 ADD DUP1 SLOAD PUSH2 0x368 SWAP1 PUSH2 0xEB2 JUMP JUMPDEST DUP1 PUSH1 0x1F ADD PUSH1 0x20 DUP1 SWAP2 DIV MUL PUSH1 0x20 ADD PUSH1 0x40 MLOAD SWAP1 DUP2 ADD PUSH1 0x40 MSTORE DUP1 SWAP3 SWAP2 SWAP1 DUP2 DUP2 MSTORE PUSH1 0x20 ADD DUP3 DUP1 SLOAD PUSH2 0x394 SWAP1 PUSH2 0xEB2 JUMP JUMPDEST DUP1 ISZERO PUSH2 0x3DF JUMPI DUP1 PUSH1 0x1F LT PUSH2 0x3B6 JUMPI PUSH2 0x100 DUP1 DUP4 SLOAD DIV MUL DUP4 MSTORE SWAP2 PUSH1 0x20 ADD SWAP2 PUSH2 0x3DF JUMP JUMPDEST DUP3 ADD SWAP2 SWAP1 PUSH0 MSTORE PUSH1 0x20 PUSH0 KECCAK256 SWAP1 JUMPDEST DUP2 SLOAD DUP2 MSTORE SWAP1 PUSH1 0x1 ADD SWAP1 PUSH1 0x20 ADD DUP1 DUP4 GT PUSH2 0x3C2 JUMPI DUP3 SWAP1 SUB PUSH1 0x1F AND DUP3 ADD SWAP2 JUMPDEST POP POP POP POP POP SWAP1 DUP1 PUSH1 0x3 ADD PUSH0 SWAP1 SLOAD SWAP1 PUSH2 0x100 EXP SWAP1 DIV PUSH20 0xFFFFFFFFFFFFFFFFFFFFFFFFFFFFFFFFFFFFFFFF AND SWAP1 DUP1 PUSH1 0x4 ADD SLOAD SWAP1 DUP1 PUSH1 0x5 ADD SLOAD SWAP1 POP DUP7 JUMP JUMPDEST PUSH1 0x2 PUSH1 0x20 MSTORE DUP2 PUSH0 MSTORE PUSH1 0x40 PUSH0 KECCAK256 PUSH1 0x20 MSTORE DUP1 PUSH0 MSTORE PUSH1 0x40 PUSH0 KECCAK256 PUSH0 SWAP2 POP SWAP2 POP POP DUP1 PUSH0 ADD SLOAD SWAP1 DUP1 PUSH1 0x1 ADD PUSH0 SWAP1 SLOAD SWAP1 PUSH2 0x100 EXP SWAP1 DIV PUSH1 0xFF AND SWAP1 DUP1 PUSH1 0x2 ADD SLOAD SWAP1 POP DUP4 JUMP JUMPDEST PUSH1 0x5 PUSH1 0x20 MSTORE DUP1 PUSH0 MSTORE PUSH1 0x40 PUSH0 KECCAK256 PUSH0 SWAP2 POP SWAP1 POP SLOAD DUP2 JUMP JUMPDEST PUSH1 0x40 MLOAD DUP1 PUSH1 0x60 ADD PUSH1 0x40 MSTORE DUP1 PUSH1 0x1 PUSH0 DUP5 DUP2 MSTORE PUSH1 0x20 ADD SWAP1 DUP2 MSTORE PUSH1 0x20 ADD PUSH0 KECCAK256 PUSH1 0x5 ADD SLOAD DUP2 MSTORE PUSH1 0x20 ADD PUSH1 0x1 ISZERO ISZERO DUP2 MSTORE PUSH1 0x20 ADD TIMESTAMP DUP2 MSTORE POP PUSH1 0x2 PUSH0 DUP4 DUP2 MSTORE PUSH1 0x20 ADD SWAP1 DUP2 MSTORE PUSH1 0x20 ADD PUSH0 KECCAK256 PUSH0 CALLER PUSH20 0xFFFFFFFFFFFFFFFFFFFFFFFFFFFFFFFFFFFFFFFF AND PUSH20 0xFFFFFFFFFFFFFFFFFFFFFFFFFFFFFFFFFFFFFFFF AND DUP2 MSTORE PUSH1 0x20 ADD SWAP1 DUP2 MSTORE PUSH1 0x20 ADD PUSH0 KECCAK256 PUSH0 DUP3 ADD MLOAD DUP2 PUSH0 ADD SSTORE PUSH1 0x20 DUP3 ADD MLOAD DUP2 PUSH1 0x1 ADD PUSH0 PUSH2 0x100 EXP DUP2 SLOAD DUP2 PUSH1 0xFF MUL NOT AND SWAP1 DUP4 ISZERO ISZERO MUL OR SWAP1 SSTORE POP PUSH1 0x40 DUP3 ADD MLOAD DUP2 PUSH1 0x2 ADD SSTORE SWAP1 POP POP PUSH1 0x3 PUSH0 CALLER PUSH20 0xFFFFFFFFFFFFFFFFFFFFFFFFFFFFFFFFFFFFFFFF AND PUSH20 0xFFFFFFFFFFFFFFFFFFFFFFFFFFFFFFFFFFFFFFFF AND DUP2 MSTORE PUSH1 0x20 ADD SWAP1 DUP2 MSTORE PUSH1 0x20 ADD PUSH0 KECCAK256 DUP2 SWAP1 DUP1 PUSH1 0x1 DUP2 SLOAD ADD DUP1 DUP3 SSTORE DUP1 SWAP2 POP POP PUSH1 0x1 SWAP1 SUB SWAP1 PUSH0 MSTORE PUSH1 0x20 PUSH0 KECCAK256 ADD PUSH0 SWAP1 SWAP2 SWAP1 SWAP2 SWAP1 SWAP2 POP SSTORE POP JUMP JUMPDEST PUSH0 DUP1 PUSH1 0x2 PUSH0 DUP6 DUP2 MSTORE PUSH1 0x20 ADD SWAP1 DUP2 MSTORE PUSH1 0x20 ADD PUSH0 KECCAK256 PUSH0 DUP5 PUSH20 0xFFFFFFFFFFFFFFFFFFFFFFFFFFFFFFFFFFFFFFFF AND PUSH20 0xFFFFFFFFFFFFFFFFFFFFFFFFFFFFFFFFFFFFFFFF AND DUP2 MSTORE PUSH1 0x20 ADD SWAP1 DUP2 MSTORE PUSH1 0x20 ADD PUSH0 KECCAK256 PUSH1 0x40 MLOAD DUP1 PUSH1 0x60 ADD PUSH1 0x40 MSTORE SWAP1 DUP2 PUSH0 DUP3 ADD SLOAD DUP2 MSTORE PUSH1 0x20 ADD PUSH1 0x1 DUP3 ADD PUSH0 SWAP1 SLOAD SWAP1 PUSH2 0x100 EXP SWAP1 DIV PUSH1 0xFF AND ISZERO ISZERO ISZERO ISZERO DUP2 MSTORE PUSH1 0x20 ADD PUSH1 0x2 DUP3 ADD SLOAD DUP2 MSTORE POP POP SWAP1 POP DUP1 PUSH1 0x20 ADD MLOAD SWAP2 POP POP SWAP3 SWAP2 POP POP JUMP JUMPDEST PUSH2 0x621 CALLER PUSH2 0x827 JUMP JUMPDEST PUSH2 0x660 JUMPI PUSH1 0x40 MLOAD PUSH32 0x8C379A000000000000000000000000000000000000000000000000000000000 DUP2 MSTORE PUSH1 0x4 ADD PUSH2 0x657 SWAP1 PUSH2 0xF2C JUMP JUMPDEST PUSH1 0x40 MLOAD DUP1 SWAP2 SUB SWAP1 REVERT JUMPDEST PUSH1 0x40 MLOAD DUP1 PUSH1 0xC0 ADD PUSH1 0x40 MSTORE DUP1 DUP6 DUP2 MSTORE PUSH1 0x20 ADD DUP5 DUP2 MSTORE PUSH1 0x20 ADD DUP4 DUP2 MSTORE PUSH1 0x20 ADD CALLER PUSH20 0xFFFFFFFFFFFFFFFFFFFFFFFFFFFFFFFFFFFFFFFF AND DUP2 MSTORE PUSH1 0x20 ADD DUP3 DUP2 MSTORE PUSH1 0x20 ADD PUSH1 0x1 DUP2 MSTORE POP PUSH1 0x1 PUSH0 DUP1 SLOAD DUP2 MSTORE PUSH1 0x20 ADD SWAP1 DUP2 MSTORE PUSH1 0x20 ADD PUSH0 KECCAK256 PUSH0 DUP3 ADD MLOAD DUP2 PUSH0 ADD SWAP1 DUP2 PUSH2 0x6C9 SWAP2 SWAP1 PUSH2 0x10E7 JUMP JUMPDEST POP PUSH1 0x20 DUP3 ADD MLOAD DUP2 PUSH1 0x1 ADD SWAP1 DUP2 PUSH2 0x6DF SWAP2 SWAP1 PUSH2 0x10E7 JUMP JUMPDEST POP PUSH1 0x40 DUP3 ADD MLOAD DUP2 PUSH1 0x2 ADD SWAP1 DUP2 PUSH2 0x6F5 SWAP2 SWAP1 PUSH2 0x10E7 JUMP JUMPDEST POP PUSH1 0x60 DUP3 ADD MLOAD DUP2 PUSH1 0x3 ADD PUSH0 PUSH2 0x100 EXP DUP2 SLOAD DUP2 PUSH20 0xFFFFFFFFFFFFFFFFFFFFFFFFFFFFFFFFFFFFFFFF MUL NOT AND SWAP1 DUP4 PUSH20 0xFFFFFFFFFFFFFFFFFFFFFFFFFFFFFFFFFFFFFFFF AND MUL OR SWAP1 SSTORE POP PUSH1 0x80 DUP3 ADD MLOAD DUP2 PUSH1 0x4 ADD SSTORE PUSH1 0xA0 DUP3 ADD MLOAD DUP2 PUSH1 0x5 ADD SSTORE SWAP1 POP POP PUSH1 0x4 PUSH0 CALLER PUSH20 0xFFFFFFFFFFFFFFFFFFFFFFFFFFFFFFFFFFFFFFFF AND PUSH20 0xFFFFFFFFFFFFFFFFFFFFFFFFFFFFFFFFFFFFFFFF AND DUP2 MSTORE PUSH1 0x20 ADD SWAP1 DUP2 MSTORE PUSH1 0x20 ADD PUSH0 KECCAK256 PUSH0 SLOAD SWAP1 DUP1 PUSH1 0x1 DUP2 SLOAD ADD DUP1 DUP3 SSTORE DUP1 SWAP2 POP POP PUSH1 0x1 SWAP1 SUB SWAP1 PUSH0 MSTORE PUSH1 0x20 PUSH0 KECCAK256 ADD PUSH0 SWAP1 SWAP2 SWAP1 SWAP2 SWAP1 SWAP2 POP SSTORE PUSH0 DUP1 DUP2 SLOAD DUP1 SWAP3 SWAP2 SWAP1 PUSH2 0x7C6 SWAP1 PUSH2 0x11E3 JUMP JUMPDEST SWAP2 SWAP1 POP SSTORE POP POP POP POP POP JUMP JUMPDEST PUSH1 0x4 PUSH1 0x20 MSTORE DUP2 PUSH0 MSTORE PUSH1 0x40 PUSH0 KECCAK256 DUP2 DUP2 SLOAD DUP2 LT PUSH2 0x7EA JUMPI PUSH0 DUP1 REVERT JUMPDEST SWAP1 PUSH0 MSTORE PUSH1 0x20 PUSH0 KECCAK256 ADD PUSH0 SWAP2 POP SWAP2 POP POP SLOAD DUP2 JUMP JUMPDEST PUSH1 0x3 PUSH1 0x20 MSTORE DUP2 PUSH0 MSTORE PUSH1 0x40 PUSH0 KECCAK256 DUP2 DUP2 SLOAD DUP2 LT PUSH2 0x815 JUMPI PUSH0 DUP1 REVERT JUMPDEST SWAP1 PUSH0 MSTORE PUSH1 0x20 PUSH0 KECCAK256 ADD PUSH0 SWAP2 POP SWAP2 POP POP SLOAD DUP2 JUMP JUMPDEST PUSH0 PUSH1 0x3 PUSH1 0x4 PUSH0 DUP5 PUSH20 0xFFFFFFFFFFFFFFFFFFFFFFFFFFFFFFFFFFFFFFFF AND PUSH20 0xFFFFFFFFFFFFFFFFFFFFFFFFFFFFFFFFFFFFFFFF AND DUP2 MSTORE PUSH1 0x20 ADD SWAP1 DUP2 MSTORE PUSH1 0x20 ADD PUSH0 KECCAK256 DUP1 SLOAD SWAP1 POP LT ISZERO PUSH2 0x8B9 JUMPI PUSH1 0x64 PUSH1 0x5 PUSH0 DUP5 PUSH20 0xFFFFFFFFFFFFFFFFFFFFFFFFFFFFFFFFFFFFFFFF AND PUSH20 0xFFFFFFFFFFFFFFFFFFFFFFFFFFFFFFFFFFFFFFFF AND DUP2 MSTORE PUSH1 0x20 ADD SWAP1 DUP2 MSTORE PUSH1 0x20 ADD PUSH0 KECCAK256 SLOAD GT SWAP1 POP PUSH2 0x98F JUMP JUMPDEST PUSH1 0x8 PUSH1 0x4 PUSH0 DUP5 PUSH20 0xFFFFFFFFFFFFFFFFFFFFFFFFFFFFFFFFFFFFFFFF AND PUSH20 0xFFFFFFFFFFFFFFFFFFFFFFFFFFFFFFFFFFFFFFFF AND DUP2 MSTORE PUSH1 0x20 ADD SWAP1 DUP2 MSTORE PUSH1 0x20 ADD PUSH0 KECCAK256 DUP1 SLOAD SWAP1 POP LT ISZERO PUSH2 0x94A JUMPI PUSH1 0xC8 PUSH1 0x5 PUSH0 DUP5 PUSH20 0xFFFFFFFFFFFFFFFFFFFFFFFFFFFFFFFFFFFFFFFF AND PUSH20 0xFFFFFFFFFFFFFFFFFFFFFFFFFFFFFFFFFFFFFFFF AND DUP2 MSTORE PUSH1 0x20 ADD SWAP1 DUP2 MSTORE PUSH1 0x20 ADD PUSH0 KECCAK256 SLOAD GT SWAP1 POP PUSH2 0x98F JUMP JUMPDEST PUSH2 0x1F4 PUSH1 0x5 PUSH0 DUP5 PUSH20 0xFFFFFFFFFFFFFFFFFFFFFFFFFFFFFFFFFFFFFFFF AND PUSH20 0xFFFFFFFFFFFFFFFFFFFFFFFFFFFFFFFFFFFFFFFF AND DUP2 MSTORE PUSH1 0x20 ADD SWAP1 DUP2 MSTORE PUSH1 0x20 ADD PUSH0 KECCAK256 SLOAD GT SWAP1 POP JUMPDEST SWAP2 SWAP1 POP JUMP JUMPDEST PUSH0 PUSH1 0x40 MLOAD SWAP1 POP SWAP1 JUMP JUMPDEST PUSH0 DUP1 REVERT JUMPDEST PUSH0 DUP1 REVERT JUMPDEST PUSH0 DUP2 SWAP1 POP SWAP2 SWAP1 POP JUMP JUMPDEST PUSH2 0x9B7 DUP2 PUSH2 0x9A5 JUMP JUMPDEST DUP2 EQ PUSH2 0x9C1 JUMPI PUSH0 DUP1 REVERT JUMPDEST POP JUMP JUMPDEST PUSH0 DUP2 CALLDATALOAD SWAP1 POP PUSH2 0x9D2 DUP2 PUSH2 0x9AE JUMP JUMPDEST SWAP3 SWAP2 POP POP JUMP JUMPDEST PUSH0 PUSH1 0x20 DUP3 DUP5 SUB SLT ISZERO PUSH2 0x9ED JUMPI PUSH2 0x9EC PUSH2 0x99D JUMP JUMPDEST JUMPDEST PUSH0 PUSH2 0x9FA DUP5 DUP3 DUP6 ADD PUSH2 0x9C4 JUMP JUMPDEST SWAP2 POP POP SWAP3 SWAP2 POP POP JUMP JUMPDEST PUSH0 DUP2 MLOAD SWAP1 POP SWAP2 SWAP1 POP JUMP JUMPDEST PUSH0 DUP3 DUP3 MSTORE PUSH1 0x20 DUP3 ADD SWAP1 POP SWAP3 SWAP2 POP POP JUMP JUMPDEST PUSH0 JUMPDEST DUP4 DUP2 LT ISZERO PUSH2 0xA3A JUMPI DUP1 DUP3 ADD MLOAD DUP2 DUP5 ADD MSTORE PUSH1 0x20 DUP2 ADD SWAP1 POP PUSH2 0xA1F JUMP JUMPDEST PUSH0 DUP5 DUP5 ADD MSTORE POP POP POP POP JUMP JUMPDEST PUSH0 PUSH1 0x1F NOT PUSH1 0x1F DUP4 ADD AND SWAP1 POP SWAP2 SWAP1 POP JUMP JUMPDEST PUSH0 PUSH2 0xA5F DUP3 PUSH2 0xA03 JUMP JUMPDEST PUSH2 0xA69 DUP2 DUP6 PUSH2 0xA0D JUMP JUMPDEST SWAP4 POP PUSH2 0xA79 DUP2 DUP6 PUSH1 0x20 DUP7 ADD PUSH2 0xA1D JUMP JUMPDEST PUSH2 0xA82 DUP2 PUSH2 0xA45 JUMP JUMPDEST DUP5 ADD SWAP2 POP POP SWAP3 SWAP2 POP POP JUMP JUMPDEST PUSH0 PUSH20 0xFFFFFFFFFFFFFFFFFFFFFFFFFFFFFFFFFFFFFFFF DUP3 AND SWAP1 POP SWAP2 SWAP1 POP JUMP JUMPDEST PUSH0 PUSH2 0xAB6 DUP3 PUSH2 0xA8D JUMP JUMPDEST SWAP1 POP SWAP2 SWAP1 POP JUMP JUMPDEST PUSH2 0xAC6 DUP2 PUSH2 0xAAC JUMP JUMPDEST DUP3 MSTORE POP POP JUMP JUMPDEST PUSH2 0xAD5 DUP2 PUSH2 0x9A5 JUMP JUMPDEST DUP3 MSTORE POP POP JUMP JUMPDEST PUSH0 PUSH1 0xC0 DUP3 ADD SWAP1 POP DUP2 DUP2 SUB PUSH0 DUP4 ADD MSTORE PUSH2 0xAF3 DUP2 DUP10 PUSH2 0xA55 JUMP JUMPDEST SWAP1 POP DUP2 DUP2 SUB PUSH1 0x20 DUP4 ADD MSTORE PUSH2 0xB07 DUP2 DUP9 PUSH2 0xA55 JUMP JUMPDEST SWAP1 POP DUP2 DUP2 SUB PUSH1 0x40 DUP4 ADD MSTORE PUSH2 0xB1B DUP2 DUP8 PUSH2 0xA55 JUMP JUMPDEST SWAP1 POP PUSH2 0xB2A PUSH1 0x60 DUP4 ADD DUP7 PUSH2 0xABD JUMP JUMPDEST PUSH2 0xB37 PUSH1 0x80 DUP4 ADD DUP6 PUSH2 0xACC JUMP JUMPDEST PUSH2 0xB44 PUSH1 0xA0 DUP4 ADD DUP5 PUSH2 0xACC JUMP JUMPDEST SWAP8 SWAP7 POP POP POP POP POP POP POP JUMP JUMPDEST PUSH2 0xB58 DUP2 PUSH2 0xAAC JUMP JUMPDEST DUP2 EQ PUSH2 0xB62 JUMPI PUSH0 DUP1 REVERT JUMPDEST POP JUMP JUMPDEST PUSH0 DUP2 CALLDATALOAD SWAP1 POP PUSH2 0xB73 DUP2 PUSH2 0xB4F JUMP JUMPDEST SWAP3 SWAP2 POP POP JUMP JUMPDEST PUSH0 DUP1 PUSH1 0x40 DUP4 DUP6 SUB SLT ISZERO PUSH2 0xB8F JUMPI PUSH2 0xB8E PUSH2 0x99D JUMP JUMPDEST JUMPDEST PUSH0 PUSH2 0xB9C DUP6 DUP3 DUP7 ADD PUSH2 0x9C4 JUMP JUMPDEST SWAP3 POP POP PUSH1 0x20 PUSH2 0xBAD DUP6 DUP3 DUP7 ADD PUSH2 0xB65 JUMP JUMPDEST SWAP2 POP POP SWAP3 POP SWAP3 SWAP1 POP JUMP JUMPDEST PUSH0 DUP2 ISZERO ISZERO SWAP1 POP SWAP2 SWAP1 POP JUMP JUMPDEST PUSH2 0xBCB DUP2 PUSH2 0xBB7 JUMP JUMPDEST DUP3 MSTORE POP POP JUMP JUMPDEST PUSH0 PUSH1 0x60 DUP3 ADD SWAP1 POP PUSH2 0xBE4 PUSH0 DUP4 ADD DUP7 PUSH2 0xACC JUMP JUMPDEST PUSH2 0xBF1 PUSH1 0x20 DUP4 ADD DUP6 PUSH2 0xBC2 JUMP JUMPDEST PUSH2 0xBFE PUSH1 0x40 DUP4 ADD DUP5 PUSH2 0xACC JUMP JUMPDEST SWAP5 SWAP4 POP POP POP POP JUMP JUMPDEST PUSH0 PUSH1 0x20 DUP3 DUP5 SUB SLT ISZERO PUSH2 0xC1B JUMPI PUSH2 0xC1A PUSH2 0x99D JUMP JUMPDEST JUMPDEST PUSH0 PUSH2 0xC28 DUP5 DUP3 DUP6 ADD PUSH2 0xB65 JUMP JUMPDEST SWAP2 POP POP SWAP3 SWAP2 POP POP JUMP JUMPDEST PUSH0 PUSH1 0x20 DUP3 ADD SWAP1 POP PUSH2 0xC44 PUSH0 DUP4 ADD DUP5 PUSH2 0xACC JUMP JUMPDEST SWAP3 SWAP2 POP POP JUMP JUMPDEST PUSH0 PUSH1 0x20 DUP3 ADD SWAP1 POP PUSH2 0xC5D PUSH0 DUP4 ADD DUP5 PUSH2 0xBC2 JUMP JUMPDEST SWAP3 SWAP2 POP POP JUMP JUMPDEST PUSH0 DUP1 REVERT JUMPDEST PUSH0 DUP1 REVERT JUMPDEST PUSH32 0x4E487B7100000000000000000000000000000000000000000000000000000000 PUSH0 MSTORE PUSH1 0x41 PUSH1 0x4 MSTORE PUSH1 0x24 PUSH0 REVERT JUMPDEST PUSH2 0xCA1 DUP3 PUSH2 0xA45 JUMP JUMPDEST DUP2 ADD DUP2 DUP2 LT PUSH8 0xFFFFFFFFFFFFFFFF DUP3 GT OR ISZERO PUSH2 0xCC0 JUMPI PUSH2 0xCBF PUSH2 0xC6B JUMP JUMPDEST JUMPDEST DUP1 PUSH1 0x40 MSTORE POP POP POP JUMP JUMPDEST PUSH0 PUSH2 0xCD2 PUSH2 0x994 JUMP JUMPDEST SWAP1 POP PUSH2 0xCDE DUP3 DUP3 PUSH2 0xC98 JUMP JUMPDEST SWAP2 SWAP1 POP JUMP JUMPDEST PUSH0 PUSH8 0xFFFFFFFFFFFFFFFF DUP3 GT ISZERO PUSH2 0xCFD JUMPI PUSH2 0xCFC PUSH2 0xC6B JUMP JUMPDEST JUMPDEST PUSH2 0xD06 DUP3 PUSH2 0xA45 JUMP JUMPDEST SWAP1 POP PUSH1 0x20 DUP2 ADD SWAP1 POP SWAP2 SWAP1 POP JUMP JUMPDEST DUP3 DUP2 DUP4 CALLDATACOPY PUSH0 DUP4 DUP4 ADD MSTORE POP POP POP JUMP JUMPDEST PUSH0 PUSH2 0xD33 PUSH2 0xD2E DUP5 PUSH2 0xCE3 JUMP JUMPDEST PUSH2 0xCC9 JUMP JUMPDEST SWAP1 POP DUP3 DUP2 MSTORE PUSH1 0x20 DUP2 ADD DUP5 DUP5 DUP5 ADD GT ISZERO PUSH2 0xD4F JUMPI PUSH2 0xD4E PUSH2 0xC67 JUMP JUMPDEST JUMPDEST PUSH2 0xD5A DUP5 DUP3 DUP6 PUSH2 0xD13 JUMP JUMPDEST POP SWAP4 SWAP3 POP POP POP JUMP JUMPDEST PUSH0 DUP3 PUSH1 0x1F DUP4 ADD SLT PUSH2 0xD76 JUMPI PUSH2 0xD75 PUSH2 0xC63 JUMP JUMPDEST JUMPDEST DUP2 CALLDATALOAD PUSH2 0xD86 DUP5 DUP3 PUSH1 0x20 DUP7 ADD PUSH2 0xD21 JUMP JUMPDEST SWAP2 POP POP SWAP3 SWAP2 POP POP JUMP JUMPDEST PUSH0 DUP1 PUSH0 DUP1 PUSH1 0x80 DUP6 DUP8 SUB SLT ISZERO PUSH2 0xDA7 JUMPI PUSH2 0xDA6 PUSH2 0x99D JUMP JUMPDEST JUMPDEST PUSH0 DUP6 ADD CALLDATALOAD PUSH8 0xFFFFFFFFFFFFFFFF DUP2 GT ISZERO PUSH2 0xDC4 JUMPI PUSH2 0xDC3 PUSH2 0x9A1 JUMP JUMPDEST JUMPDEST PUSH2 0xDD0 DUP8 DUP3 DUP9 ADD PUSH2 0xD62 JUMP JUMPDEST SWAP5 POP POP PUSH1 0x20 DUP6 ADD CALLDATALOAD PUSH8 0xFFFFFFFFFFFFFFFF DUP2 GT ISZERO PUSH2 0xDF1 JUMPI PUSH2 0xDF0 PUSH2 0x9A1 JUMP JUMPDEST JUMPDEST PUSH2 0xDFD DUP8 DUP3 DUP9 ADD PUSH2 0xD62 JUMP JUMPDEST SWAP4 POP POP PUSH1 0x40 DUP6 ADD CALLDATALOAD PUSH8 0xFFFFFFFFFFFFFFFF DUP2 GT ISZERO PUSH2 0xE1E JUMPI PUSH2 0xE1D PUSH2 0x9A1 JUMP JUMPDEST JUMPDEST PUSH2 0xE2A DUP8 DUP3 DUP9 ADD PUSH2 0xD62 JUMP JUMPDEST SWAP3 POP POP PUSH1 0x60 PUSH2 0xE3B DUP8 DUP3 DUP9 ADD PUSH2 0x9C4 JUMP JUMPDEST SWAP2 POP POP SWAP3 SWAP6 SWAP2 SWAP5 POP SWAP3 POP JUMP JUMPDEST PUSH0 DUP1 PUSH1 0x40 DUP4 DUP6 SUB SLT ISZERO PUSH2 0xE5D JUMPI PUSH2 0xE5C PUSH2 0x99D JUMP JUMPDEST JUMPDEST PUSH0 PUSH2 0xE6A DUP6 DUP3 DUP7 ADD PUSH2 0xB65 JUMP JUMPDEST SWAP3 POP POP PUSH1 0x20 PUSH2 0xE7B DUP6 DUP3 DUP7 ADD PUSH2 0x9C4 JUMP JUMPDEST SWAP2 POP POP SWAP3 POP SWAP3 SWAP1 POP JUMP JUMPDEST PUSH32 0x4E487B7100000000000000000000000000000000000000000000000000000000 PUSH0 MSTORE PUSH1 0x22 PUSH1 0x4 MSTORE PUSH1 0x24 PUSH0 REVERT JUMPDEST PUSH0 PUSH1 0x2 DUP3 DIV SWAP1 POP PUSH1 0x1 DUP3 AND DUP1 PUSH2 0xEC9 JUMPI PUSH1 0x7F DUP3 AND SWAP2 POP JUMPDEST PUSH1 0x20 DUP3 LT DUP2 SUB PUSH2 0xEDC JUMPI PUSH2 0xEDB PUSH2 0xE85 JUMP JUMPDEST JUMPDEST POP SWAP2 SWAP1 POP JUMP JUMPDEST PUSH32 0x496E73756666696369656E74207374616B652E00000000000000000000000000 PUSH0 DUP3 ADD MSTORE POP JUMP JUMPDEST PUSH0 PUSH2 0xF16 PUSH1 0x13 DUP4 PUSH2 0xA0D JUMP JUMPDEST SWAP2 POP PUSH2 0xF21 DUP3 PUSH2 0xEE2 JUMP JUMPDEST PUSH1 0x20 DUP3 ADD SWAP1 POP SWAP2 SWAP1 POP JUMP JUMPDEST PUSH0 PUSH1 0x20 DUP3 ADD SWAP1 POP DUP2 DUP2 SUB PUSH0 DUP4 ADD MSTORE PUSH2 0xF43 DUP2 PUSH2 0xF0A JUMP JUMPDEST SWAP1 POP SWAP2 SWAP1 POP JUMP JUMPDEST PUSH0 DUP2 SWAP1 POP DUP2 PUSH0 MSTORE PUSH1 0x20 PUSH0 KECCAK256 SWAP1 POP SWAP2 SWAP1 POP JUMP JUMPDEST PUSH0 PUSH1 0x20 PUSH1 0x1F DUP4 ADD DIV SWAP1 POP SWAP2 SWAP1 POP JUMP JUMPDEST PUSH0 DUP3 DUP3 SHL SWAP1 POP SWAP3 SWAP2 POP POP JUMP JUMPDEST PUSH0 PUSH1 0x8 DUP4 MUL PUSH2 0xFA6 PUSH32 0xFFFFFFFFFFFFFFFFFFFFFFFFFFFFFFFFFFFFFFFFFFFFFFFFFFFFFFFFFFFFFFFF DUP3 PUSH2 0xF6B JUMP JUMPDEST PUSH2 0xFB0 DUP7 DUP4 PUSH2 0xF6B JUMP JUMPDEST SWAP6 POP DUP1 NOT DUP5 AND SWAP4 POP DUP1 DUP7 AND DUP5 OR SWAP3 POP POP POP SWAP4 SWAP3 POP POP POP JUMP JUMPDEST PUSH0 DUP2 SWAP1 POP SWAP2 SWAP1 POP JUMP JUMPDEST PUSH0 PUSH2 0xFEB PUSH2 0xFE6 PUSH2 0xFE1 DUP5 PUSH2 0x9A5 JUMP JUMPDEST PUSH2 0xFC8 JUMP JUMPDEST PUSH2 0x9A5 JUMP JUMPDEST SWAP1 POP SWAP2 SWAP1 POP JUMP JUMPDEST PUSH0 DUP2 SWAP1 POP SWAP2 SWAP1 POP JUMP JUMPDEST PUSH2 0x1004 DUP4 PUSH2 0xFD1 JUMP JUMPDEST PUSH2 0x1018 PUSH2 0x1010 DUP3 PUSH2 0xFF2 JUMP JUMPDEST DUP5 DUP5 SLOAD PUSH2 0xF77 JUMP JUMPDEST DUP3 SSTORE POP POP POP POP JUMP JUMPDEST PUSH0 SWAP1 JUMP JUMPDEST PUSH2 0x102C PUSH2 0x1020 JUMP JUMPDEST PUSH2 0x1037 DUP2 DUP5 DUP5 PUSH2 0xFFB JUMP JUMPDEST POP POP POP JUMP JUMPDEST JUMPDEST DUP2 DUP2 LT ISZERO PUSH2 0x105A JUMPI PUSH2 0x104F PUSH0 DUP3 PUSH2 0x1024 JUMP JUMPDEST PUSH1 0x1 DUP2 ADD SWAP1 POP PUSH2 0x103D JUMP JUMPDEST POP POP JUMP JUMPDEST PUSH1 0x1F DUP3 GT ISZERO PUSH2 0x109F JUMPI PUSH2 0x1070 DUP2 PUSH2 0xF4A JUMP JUMPDEST PUSH2 0x1079 DUP5 PUSH2 0xF5C JUMP JUMPDEST DUP2 ADD PUSH1 0x20 DUP6 LT ISZERO PUSH2 0x1088 JUMPI DUP2 SWAP1 POP JUMPDEST PUSH2 0x109C PUSH2 0x1094 DUP6 PUSH2 0xF5C JUMP JUMPDEST DUP4 ADD DUP3 PUSH2 0x103C JUMP JUMPDEST POP POP JUMPDEST POP POP POP JUMP JUMPDEST PUSH0 DUP3 DUP3 SHR SWAP1 POP SWAP3 SWAP2 POP POP JUMP JUMPDEST PUSH0 PUSH2 0x10BF PUSH0 NOT DUP5 PUSH1 0x8 MUL PUSH2 0x10A4 JUMP JUMPDEST NOT DUP1 DUP4 AND SWAP2 POP POP SWAP3 SWAP2 POP POP JUMP JUMPDEST PUSH0 PUSH2 0x10D7 DUP4 DUP4 PUSH2 0x10B0 JUMP JUMPDEST SWAP2 POP DUP3 PUSH1 0x2 MUL DUP3 OR SWAP1 POP SWAP3 SWAP2 POP POP JUMP JUMPDEST PUSH2 0x10F0 DUP3 PUSH2 0xA03 JUMP JUMPDEST PUSH8 0xFFFFFFFFFFFFFFFF DUP2 GT ISZERO PUSH2 0x1109 JUMPI PUSH2 0x1108 PUSH2 0xC6B JUMP JUMPDEST JUMPDEST PUSH2 0x1113 DUP3 SLOAD PUSH2 0xEB2 JUMP JUMPDEST PUSH2 0x111E DUP3 DUP3 DUP6 PUSH2 0x105E JUMP JUMPDEST PUSH0 PUSH1 0x20 SWAP1 POP PUSH1 0x1F DUP4 GT PUSH1 0x1 DUP2 EQ PUSH2 0x114F JUMPI PUSH0 DUP5 ISZERO PUSH2 0x113D JUMPI DUP3 DUP8 ADD MLOAD SWAP1 POP JUMPDEST PUSH2 0x1147 DUP6 DUP3 PUSH2 0x10CC JUMP JUMPDEST DUP7 SSTORE POP PUSH2 0x11AE JUMP JUMPDEST PUSH1 0x1F NOT DUP5 AND PUSH2 0x115D DUP7 PUSH2 0xF4A JUMP JUMPDEST PUSH0 JUMPDEST DUP3 DUP2 LT ISZERO PUSH2 0x1184 JUMPI DUP5 DUP10 ADD MLOAD DUP3 SSTORE PUSH1 0x1 DUP3 ADD SWAP2 POP PUSH1 0x20 DUP6 ADD SWAP5 POP PUSH1 0x20 DUP2 ADD SWAP1 POP PUSH2 0x115F JUMP JUMPDEST DUP7 DUP4 LT ISZERO PUSH2 0x11A1 JUMPI DUP5 DUP10 ADD MLOAD PUSH2 0x119D PUSH1 0x1F DUP10 AND DUP3 PUSH2 0x10B0 JUMP JUMPDEST DUP4 SSTORE POP JUMPDEST PUSH1 0x1 PUSH1 0x2 DUP9 MUL ADD DUP9 SSTORE POP POP POP JUMPDEST POP POP POP POP POP POP JUMP JUMPDEST PUSH32 0x4E487B7100000000000000000000000000000000000000000000000000000000 PUSH0 MSTORE PUSH1 0x11 PUSH1 0x4 MSTORE PUSH1 0x24 PUSH0 REVERT JUMPDEST PUSH0 PUSH2 0x11ED DUP3 PUSH2 0x9A5 JUMP JUMPDEST SWAP2 POP PUSH32 0xFFFFFFFFFFFFFFFFFFFFFFFFFFFFFFFFFFFFFFFFFFFFFFFFFFFFFFFFFFFFFFFF DUP3 SUB PUSH2 0x121F JUMPI PUSH2 0x121E PUSH2 0x11B6 JUMP JUMPDEST JUMPDEST PUSH1 0x1 DUP3 ADD SWAP1 POP SWAP2 SWAP1 POP JUMP INVALID LOG2 PUSH5 0x6970667358 0x22 SLT KECCAK256 0x2A 0xE8 0x29 PUSH3 0x86E62C 0xCC 0xE1 NOT PUSH25 0xC37B510A827A696648286D27F5303A1B7B8B06719864736F6C PUSH4 0x43000816 STOP CALLER "
		},
		"gasEstimates": {
			"creation": {
				"codeDepositCost": "940800",
				"executionCost": "23078",
				"totalCost": "963878"
			},
			"external": {
				"buyGameLicense(uint256)": "117909",
				"checkLicense(uint256,address)": "7447",
				"developerGameRegistered(address,uint256)": "infinite",
				"gameLicenses(uint256,address)": "infinite",
				"games(uint256)": "infinite",
				"registerGame(string,string,string,uint256)": "infinite",
				"stake(address)": "2847",
				"userGames(address,uint256)": "infinite"
			},
			"internal": {
				"sufficientStake(address)": "6682"
			}
		},
		"methodIdentifiers": {
			"buyGameLicense(uint256)": "525103ac",
			"checkLicense(uint256,address)": "6f20d021",
			"developerGameRegistered(address,uint256)": "b6654d8c",
			"gameLicenses(uint256,address)": "1b91e3a3",
			"games(uint256)": "117a5b90",
			"registerGame(string,string,string,uint256)": "a48e438e",
			"stake(address)": "26476204",
			"userGames(address,uint256)": "bc0167cd"
		}
	},
	"abi": [
		{
			"inputs": [
				{
					"internalType": "uint256",
					"name": "_gameId",
					"type": "uint256"
				}
			],
			"name": "buyGameLicense",
			"outputs": [],
			"stateMutability": "payable",
			"type": "function"
		},
		{
			"inputs": [
				{
					"internalType": "uint256",
					"name": "_gameId",
					"type": "uint256"
				},
				{
					"internalType": "address",
					"name": "_owner",
					"type": "address"
				}
			],
			"name": "checkLicense",
			"outputs": [
				{
					"internalType": "bool",
					"name": "",
					"type": "bool"
				}
			],
			"stateMutability": "view",
			"type": "function"
		},
		{
			"inputs": [
				{
					"internalType": "address",
					"name": "",
					"type": "address"
				},
				{
					"internalType": "uint256",
					"name": "",
					"type": "uint256"
				}
			],
			"name": "developerGameRegistered",
			"outputs": [
				{
					"internalType": "uint256",
					"name": "",
					"type": "uint256"
				}
			],
			"stateMutability": "view",
			"type": "function"
		},
		{
			"inputs": [
				{
					"internalType": "uint256",
					"name": "",
					"type": "uint256"
				},
				{
					"internalType": "address",
					"name": "",
					"type": "address"
				}
			],
			"name": "gameLicenses",
			"outputs": [
				{
					"internalType": "uint256",
					"name": "licenseNumber",
					"type": "uint256"
				},
				{
					"internalType": "bool",
					"name": "isActive",
					"type": "bool"
				},
				{
					"internalType": "uint256",
					"name": "purchaseDate",
					"type": "uint256"
				}
			],
			"stateMutability": "view",
			"type": "function"
		},
		{
			"inputs": [
				{
					"internalType": "uint256",
					"name": "",
					"type": "uint256"
				}
			],
			"name": "games",
			"outputs": [
				{
					"internalType": "string",
					"name": "name",
					"type": "string"
				},
				{
					"internalType": "string",
					"name": "description",
					"type": "string"
				},
				{
					"internalType": "string",
					"name": "developerName",
					"type": "string"
				},
				{
					"internalType": "address",
					"name": "developer",
					"type": "address"
				},
				{
					"internalType": "uint256",
					"name": "price",
					"type": "uint256"
				},
				{
					"internalType": "uint256",
					"name": "nextGameLicense",
					"type": "uint256"
				}
			],
			"stateMutability": "view",
			"type": "function"
		},
		{
			"inputs": [
				{
					"internalType": "string",
					"name": "_name",
					"type": "string"
				},
				{
					"internalType": "string",
					"name": "_description",
					"type": "string"
				},
				{
					"internalType": "string",
					"name": "_developerName",
					"type": "string"
				},
				{
					"internalType": "uint256",
					"name": "_price",
					"type": "uint256"
				}
			],
			"name": "registerGame",
			"outputs": [],
			"stateMutability": "nonpayable",
			"type": "function"
		},
		{
			"inputs": [
				{
					"internalType": "address",
					"name": "",
					"type": "address"
				}
			],
			"name": "stake",
			"outputs": [
				{
					"internalType": "uint256",
					"name": "",
					"type": "uint256"
				}
			],
			"stateMutability": "view",
			"type": "function"
		},
		{
			"inputs": [
				{
					"internalType": "address",
					"name": "",
					"type": "address"
				},
				{
					"internalType": "uint256",
					"name": "",
					"type": "uint256"
				}
			],
			"name": "userGames",
			"outputs": [
				{
					"internalType": "uint256",
					"name": "",
					"type": "uint256"
				}
			],
			"stateMutability": "view",
			"type": "function"
		}
	]
}